{"contracts/EmanaICO.sol":{"EmanaICO":{"abi":[{"inputs":[],"stateMutability":"nonpayable","type":"constructor"},{"inputs":[{"internalType":"address","name":"account","type":"address"}],"name":"InvalidAddress","type":"error"},{"inputs":[{"internalType":"address","name":"from","type":"address"},{"internalType":"uint256","name":"sent","type":"uint256"},{"internalType":"uint256","name":"needed","type":"uint256"}],"name":"MinimumPurchaseNotMet","type":"error"},{"inputs":[],"name":"PausedStateRequired","type":"error"},{"inputs":[{"internalType":"address","name":"from","type":"address"},{"internalType":"uint256","name":"sent","type":"uint256"}],"name":"TransferPaymentFailed","type":"error"},{"inputs":[{"internalType":"address","name":"account","type":"address"}],"name":"UnauthorizedAccount","type":"error"},{"inputs":[],"name":"UnpausedStateRequired","type":"error"},{"anonymous":false,"inputs":[{"indexed":false,"internalType":"uint8","name":"version","type":"uint8"}],"name":"Initialized","type":"event"},{"anonymous":false,"inputs":[{"indexed":true,"internalType":"address","name":"previousOwner","type":"address"},{"indexed":true,"internalType":"address","name":"newOwner","type":"address"}],"name":"OwnershipTransferred","type":"event"},{"anonymous":false,"inputs":[{"indexed":false,"internalType":"address","name":"account","type":"address"}],"name":"Paused","type":"event"},{"anonymous":false,"inputs":[{"indexed":true,"internalType":"address","name":"account","type":"address"},{"indexed":false,"internalType":"uint256","name":"amount","type":"uint256"}],"name":"Purchased","type":"event"},{"anonymous":false,"inputs":[{"indexed":false,"internalType":"address","name":"account","type":"address"}],"name":"Unpaused","type":"event"},{"stateMutability":"payable","type":"fallback"},{"inputs":[{"internalType":"address","name":"governor","type":"address"}],"name":"grantGovernance","outputs":[],"stateMutability":"nonpayable","type":"function"},{"inputs":[{"internalType":"address","name":"emana_addr","type":"address"},{"internalType":"address","name":"busd_addr","type":"address"},{"internalType":"address","name":"usdt_addr","type":"address"},{"internalType":"address","name":"dai_addr","type":"address"},{"internalType":"address","name":"liquidity_addr","type":"address"},{"internalType":"address","name":"project_addr","type":"address"},{"internalType":"address","name":"operation1_addr","type":"address"},{"internalType":"address","name":"operation2_addr","type":"address"},{"internalType":"uint256","name":"_minPurchaseInUsd","type":"uint256"},{"internalType":"uint256","name":"_emanaPerUsd","type":"uint256"}],"name":"initialize","outputs":[],"stateMutability":"nonpayable","type":"function"},{"inputs":[{"internalType":"address","name":"addr","type":"address"}],"name":"isGovernor","outputs":[{"internalType":"bool","name":"","type":"bool"}],"stateMutability":"view","type":"function"},{"inputs":[],"name":"isPaused","outputs":[{"internalType":"bool","name":"","type":"bool"}],"stateMutability":"view","type":"function"},{"inputs":[],"name":"liquidity","outputs":[{"internalType":"address","name":"","type":"address"}],"stateMutability":"view","type":"function"},{"inputs":[],"name":"operation_1","outputs":[{"internalType":"address","name":"","type":"address"}],"stateMutability":"view","type":"function"},{"inputs":[],"name":"operation_2","outputs":[{"internalType":"address","name":"","type":"address"}],"stateMutability":"view","type":"function"},{"inputs":[],"name":"owner","outputs":[{"internalType":"address","name":"","type":"address"}],"stateMutability":"view","type":"function"},{"inputs":[],"name":"pause","outputs":[],"stateMutability":"nonpayable","type":"function"},{"inputs":[],"name":"project","outputs":[{"internalType":"address","name":"","type":"address"}],"stateMutability":"view","type":"function"},{"inputs":[{"internalType":"uint256","name":"busdAmount","type":"uint256"},{"internalType":"address","name":"referrer","type":"address"}],"name":"purchaseUsingBusd","outputs":[{"internalType":"bool","name":"","type":"bool"}],"stateMutability":"nonpayable","type":"function"},{"inputs":[{"internalType":"uint256","name":"daiAmount","type":"uint256"},{"internalType":"address","name":"referrer","type":"address"}],"name":"purchaseUsingDai","outputs":[{"internalType":"bool","name":"","type":"bool"}],"stateMutability":"nonpayable","type":"function"},{"inputs":[{"internalType":"uint256","name":"usdtAmount","type":"uint256"},{"internalType":"address","name":"referrer","type":"address"}],"name":"purchaseUsingUsdt","outputs":[{"internalType":"bool","name":"","type":"bool"}],"stateMutability":"nonpayable","type":"function"},{"inputs":[{"internalType":"address","name":"governor","type":"address"}],"name":"revokeGovernance","outputs":[],"stateMutability":"nonpayable","type":"function"},{"inputs":[],"name":"totalRaised","outputs":[{"internalType":"uint256","name":"","type":"uint256"}],"stateMutability":"view","type":"function"},{"inputs":[{"internalType":"address","name":"newOwner","type":"address"}],"name":"transferOwnership","outputs":[],"stateMutability":"nonpayable","type":"function"},{"inputs":[{"internalType":"uint256","name":"_minPurchaseInUsd","type":"uint256"},{"internalType":"uint256","name":"_emanaPerUsd","type":"uint256"}],"name":"tweakSettings","outputs":[],"stateMutability":"nonpayable","type":"function"},{"inputs":[],"name":"unpause","outputs":[],"stateMutability":"nonpayable","type":"function"},{"stateMutability":"payable","type":"receive"}],"evm":{"bytecode":{"linkReferences":{},"object":"60806040523480156200001157600080fd5b50620000226200002860201b60201c565b620001d2565b600060019054906101000a900460ff16156200007b576040517f08c379a0000000000000000000000000000000000000000000000000000000008152600401620000729062000175565b60405180910390fd5b60ff801660008054906101000a900460ff1660ff1614620000ec5760ff6000806101000a81548160ff021916908360ff1602179055507f7f26b83ff96e1f2b6a682f133852f6798a09c465da95921460cefb384740249860ff604051620000e39190620001b5565b60405180910390a15b565b600082825260208201905092915050565b7f496e697469616c697a61626c653a20636f6e747261637420697320696e69746960008201527f616c697a696e6700000000000000000000000000000000000000000000000000602082015250565b60006200015d602783620000ee565b91506200016a82620000ff565b604082019050919050565b6000602082019050818103600083015262000190816200014e565b9050919050565b600060ff82169050919050565b620001af8162000197565b82525050565b6000602082019050620001cc6000830184620001a4565b92915050565b6120ab80620001e26000396000f3fe60806040526004361061010d5760003560e01c8063a3ff6a6911610095578063c5c4744c11610064578063c5c4744c1461034b578063e43581b814610376578063f2fde38b146103b3578063f60ca60d146103dc578063f8fc6a5a1461040757610114565b8063a3ff6a691461027d578063ac2ed7a5146102ba578063b187bd26146102f7578063b1fd08071461032257610114565b8063238455c9116100dc578063238455c9146101bc5780633f4ba83a146101e757806360c4376d146101fe5780638456cb591461023b5780638da5cb5b1461025257610114565b806304dcd58d146101165780630d0c5c9e1461013f57806315a8435f146101685780631a6865021461019157610114565b3661011457005b005b34801561012257600080fd5b5061013d60048036038101906101389190611a01565b610432565b005b34801561014b57600080fd5b5061016660048036038101906101619190611a64565b610495565b005b34801561017457600080fd5b5061018f600480360381019061018a9190611aa4565b6104af565b005b34801561019d57600080fd5b506101a6610815565b6040516101b39190611b92565b60405180910390f35b3480156101c857600080fd5b506101d161083b565b6040516101de9190611b92565b60405180910390f35b3480156101f357600080fd5b506101fc610861565b005b34801561020a57600080fd5b5061022560048036038101906102209190611bad565b6108fb565b6040516102329190611c08565b60405180910390f35b34801561024757600080fd5b506102506109f9565b005b34801561025e57600080fd5b50610267610a94565b6040516102749190611b92565b60405180910390f35b34801561028957600080fd5b506102a4600480360381019061029f9190611bad565b610abd565b6040516102b19190611c08565b60405180910390f35b3480156102c657600080fd5b506102e160048036038101906102dc9190611bad565b610bbb565b6040516102ee9190611c08565b60405180910390f35b34801561030357600080fd5b5061030c610cb9565b6040516103199190611c08565b60405180910390f35b34801561032e57600080fd5b5061034960048036038101906103449190611a01565b610cd0565b005b34801561035757600080fd5b50610360610d32565b60405161036d9190611c32565b60405180910390f35b34801561038257600080fd5b5061039d60048036038101906103989190611a01565b610d38565b6040516103aa9190611c08565b60405180910390f35b3480156103bf57600080fd5b506103da60048036038101906103d59190611a01565b610d8e565b005b3480156103e857600080fd5b506103f1610ecc565b6040516103fe9190611b92565b60405180910390f35b34801561041357600080fd5b5061041c610ef2565b6040516104299190611b92565b60405180910390f35b61043a610f18565b6000600160008373ffffffffffffffffffffffffffffffffffffffff1673ffffffffffffffffffffffffffffffffffffffff16815260200190815260200160002060006101000a81548160ff02191690831515021790555050565b61049d610f18565b81600c8190555080600d819055505050565b60008060019054906101000a900460ff161590508080156104e05750600160008054906101000a900460ff1660ff16105b8061050d57506104ef30610fac565b15801561050c5750600160008054906101000a900460ff1660ff16145b5b61054c576040517f08c379a000000000000000000000000000000000000000000000000000000000815260040161054390611cd0565b60405180910390fd5b60016000806101000a81548160ff021916908360ff1602179055508015610589576001600060016101000a81548160ff0219169083151502179055505b610591610fcf565b610599611061565b8a600260016101000a81548173ffffffffffffffffffffffffffffffffffffffff021916908373ffffffffffffffffffffffffffffffffffffffff16021790555089600360006101000a81548173ffffffffffffffffffffffffffffffffffffffff021916908373ffffffffffffffffffffffffffffffffffffffff16021790555088600460006101000a81548173ffffffffffffffffffffffffffffffffffffffff021916908373ffffffffffffffffffffffffffffffffffffffff16021790555087600560006101000a81548173ffffffffffffffffffffffffffffffffffffffff021916908373ffffffffffffffffffffffffffffffffffffffff16021790555086600760006101000a81548173ffffffffffffffffffffffffffffffffffffffff021916908373ffffffffffffffffffffffffffffffffffffffff16021790555085600860006101000a81548173ffffffffffffffffffffffffffffffffffffffff021916908373ffffffffffffffffffffffffffffffffffffffff16021790555084600960006101000a81548173ffffffffffffffffffffffffffffffffffffffff021916908373ffffffffffffffffffffffffffffffffffffffff16021790555083600a60006101000a81548173ffffffffffffffffffffffffffffffffffffffff021916908373ffffffffffffffffffffffffffffffffffffffff16021790555082600c8190555081600d8190555080156108085760008060016101000a81548160ff0219169083151502179055507f7f26b83ff96e1f2b6a682f133852f6798a09c465da95921460cefb384740249860016040516107ff9190611d42565b60405180910390a15b5050505050505050505050565b600760009054906101000a900473ffffffffffffffffffffffffffffffffffffffff1681565b600960009054906101000a900473ffffffffffffffffffffffffffffffffffffffff1681565b610869610f18565b610871610cb9565b6108a7576040517f092fc71a00000000000000000000000000000000000000000000000000000000815260040160405180910390fd5b6000600260006101000a81548160ff0219169083151502179055507f5db9ee0a495bf2e6ff9c91a7834c1ba4fdd244a5e8aa4e537bd38aeae4b073aa336040516108f19190611b92565b60405180910390a1565b6000806109066110cd565b905080841015610951573384826040517fdf58d7af00000000000000000000000000000000000000000000000000000000815260040161094893929190611d5d565b60405180910390fd5b61097d600460009054906101000a900473ffffffffffffffffffffffffffffffffffffffff16856110ea565b60006109ab600460009054906101000a900473ffffffffffffffffffffffffffffffffffffffff168661121f565b90506109b6816112b3565b6109e4600460009054906101000a900473ffffffffffffffffffffffffffffffffffffffff168683876112ed565b6109ed8161157c565b60019250505092915050565b610a01610f18565b610a09610cb9565b15610a40576040517f74c90bdc00000000000000000000000000000000000000000000000000000000815260040160405180910390fd5b6001600260006101000a81548160ff0219169083151502179055507f62e78cea01bee320cd4e420270b5ea74000d11b0c9f74754ebdbfc544b05a25833604051610a8a9190611b92565b60405180910390a1565b60008060029054906101000a900473ffffffffffffffffffffffffffffffffffffffff16905090565b600080610ac86110cd565b905080841015610b13573384826040517fdf58d7af000000000000000000000000000000000000000000000000000000008152600401610b0a93929190611d5d565b60405180910390fd5b610b3f600560009054906101000a900473ffffffffffffffffffffffffffffffffffffffff16856110ea565b6000610b6d600560009054906101000a900473ffffffffffffffffffffffffffffffffffffffff168661121f565b9050610b78816112b3565b610ba6600560009054906101000a900473ffffffffffffffffffffffffffffffffffffffff168683876112ed565b610baf8161157c565b60019250505092915050565b600080610bc66110cd565b905080841015610c11573384826040517fdf58d7af000000000000000000000000000000000000000000000000000000008152600401610c0893929190611d5d565b60405180910390fd5b610c3d600360009054906101000a900473ffffffffffffffffffffffffffffffffffffffff16856110ea565b6000610c6b600360009054906101000a900473ffffffffffffffffffffffffffffffffffffffff168661121f565b9050610c76816112b3565b610ca4600360009054906101000a900473ffffffffffffffffffffffffffffffffffffffff168683876112ed565b610cad8161157c565b60019250505092915050565b6000600260009054906101000a900460ff16905090565b610cd8610f18565b60018060008373ffffffffffffffffffffffffffffffffffffffff1673ffffffffffffffffffffffffffffffffffffffff16815260200190815260200160002060006101000a81548160ff02191690831515021790555050565b60065481565b6000600160008373ffffffffffffffffffffffffffffffffffffffff1673ffffffffffffffffffffffffffffffffffffffff16815260200190815260200160002060009054906101000a900460ff169050919050565b610d96610f18565b600073ffffffffffffffffffffffffffffffffffffffff168173ffffffffffffffffffffffffffffffffffffffff1603610e0757806040517f8e4c8aa6000000000000000000000000000000000000000000000000000000008152600401610dfe9190611b92565b60405180910390fd5b60008060029054906101000a900473ffffffffffffffffffffffffffffffffffffffff16905081600060026101000a81548173ffffffffffffffffffffffffffffffffffffffff021916908373ffffffffffffffffffffffffffffffffffffffff1602179055508173ffffffffffffffffffffffffffffffffffffffff168173ffffffffffffffffffffffffffffffffffffffff167f8be0079c531659141344cd1fd0a4f28419497f9722a3daafe3b4186f6b6457e060405160405180910390a35050565b600860009054906101000a900473ffffffffffffffffffffffffffffffffffffffff1681565b600a60009054906101000a900473ffffffffffffffffffffffffffffffffffffffff1681565b600060029054906101000a900473ffffffffffffffffffffffffffffffffffffffff1673ffffffffffffffffffffffffffffffffffffffff163373ffffffffffffffffffffffffffffffffffffffff1614610faa57336040517f32b2baa3000000000000000000000000000000000000000000000000000000008152600401610fa19190611b92565b60405180910390fd5b565b6000808273ffffffffffffffffffffffffffffffffffffffff163b119050919050565b600060019054906101000a900460ff1661101e576040517f08c379a000000000000000000000000000000000000000000000000000000000815260040161101590611e06565b60405180910390fd5b33600060026101000a81548173ffffffffffffffffffffffffffffffffffffffff021916908373ffffffffffffffffffffffffffffffffffffffff160217905550565b600060019054906101000a900460ff166110b0576040517f08c379a00000000000000000000000000000000000000000000000000000000081526004016110a790611e06565b60405180910390fd5b6000600260006101000a81548160ff021916908315150217905550565b6000670de0b6b3a7640000600c546110e59190611e55565b905090565b60008273ffffffffffffffffffffffffffffffffffffffff166323b872dd3330856040518463ffffffff1660e01b815260040161112993929190611e97565b6020604051808303816000875af1158015611148573d6000803e3d6000fd5b505050506040513d601f19601f8201168201806040525081019061116c9190611efa565b9050806111b25733826040517f29dd36ae0000000000000000000000000000000000000000000000000000000081526004016111a9929190611f27565b60405180910390fd5b6111e183600760009054906101000a900473ffffffffffffffffffffffffffffffffffffffff1684603261166e565b61121083600860009054906101000a900473ffffffffffffffffffffffffffffffffffffffff1684601e61166e565b61121a8383611744565b505050565b6000600d548373ffffffffffffffffffffffffffffffffffffffff1663313ce5676040518163ffffffff1660e01b8152600401602060405180830381865afa15801561126f573d6000803e3d6000fd5b505050506040513d601f19601f820116820180604052508101906112939190611f7c565b60ff16836112a19190611fd8565b6112ab9190611e55565b905092915050565b6112e1600760009054906101000a900473ffffffffffffffffffffffffffffffffffffffff168260326117a6565b6112ea81611893565b50565b6000600b60003373ffffffffffffffffffffffffffffffffffffffff1673ffffffffffffffffffffffffffffffffffffffff16815260200190815260200160002060000160009054906101000a900473ffffffffffffffffffffffffffffffffffffffff16905060008073ffffffffffffffffffffffffffffffffffffffff168273ffffffffffffffffffffffffffffffffffffffff161461138f5781611391565b825b905060008073ffffffffffffffffffffffffffffffffffffffff168273ffffffffffffffffffffffffffffffffffffffff1614905080156113e4576113d68787611744565b6113df85611893565b611573565b6000600b60008473ffffffffffffffffffffffffffffffffffffffff1673ffffffffffffffffffffffffffffffffffffffff16815260200190815260200160002060000160009054906101000a900473ffffffffffffffffffffffffffffffffffffffff1690506000600b60008373ffffffffffffffffffffffffffffffffffffffff1673ffffffffffffffffffffffffffffffffffffffff16815260200190815260200160002060000160009054906101000a900473ffffffffffffffffffffffffffffffffffffffff1690506114bb846118f2565b6114c889858a600561166e565b6114d4848860056117a6565b600073ffffffffffffffffffffffffffffffffffffffff168273ffffffffffffffffffffffffffffffffffffffff16146115225761151589838a600361166e565b611521828860036117a6565b5b600073ffffffffffffffffffffffffffffffffffffffff168173ffffffffffffffffffffffffffffffffffffffff16146115705761156389828a600261166e565b61156f818860026117a6565b5b50505b50505050505050565b600260019054906101000a900473ffffffffffffffffffffffffffffffffffffffff1673ffffffffffffffffffffffffffffffffffffffff1663cb7e4ed833836040518363ffffffff1660e01b81526004016115d9929190611f27565b6020604051808303816000875af11580156115f8573d6000803e3d6000fd5b505050506040513d601f19601f8201168201806040525081019061161c9190611efa565b503373ffffffffffffffffffffffffffffffffffffffff167fa512fb2532ca8587f236380171326ebb69670e86a2ba0c4412a3fcca4c3ada9b826040516116639190611c32565b60405180910390a250565b60008473ffffffffffffffffffffffffffffffffffffffff1663a9059cbb856116978686611976565b6040518363ffffffff1660e01b81526004016116b4929190611f27565b6020604051808303816000875af11580156116d3573d6000803e3d6000fd5b505050506040513d601f19601f820116820180604052508101906116f79190611efa565b90508061173d5733836040517f29dd36ae000000000000000000000000000000000000000000000000000000008152600401611734929190611f27565b60405180910390fd5b5050505050565b61177382600960009054906101000a900473ffffffffffffffffffffffffffffffffffffffff1683600561166e565b6117a282600a60009054906101000a900473ffffffffffffffffffffffffffffffffffffffff1683600561166e565b5050565b600260019054906101000a900473ffffffffffffffffffffffffffffffffffffffff1673ffffffffffffffffffffffffffffffffffffffff1663cb7e4ed8846117ef8585611976565b6040518363ffffffff1660e01b815260040161180c929190611f27565b6020604051808303816000875af115801561182b573d6000803e3d6000fd5b505050506040513d601f19601f8201168201806040525081019061184f9190611efa565b61188e576040517f08c379a000000000000000000000000000000000000000000000000000000000815260040161188590612055565b60405180910390fd5b505050565b6118c1600960009054906101000a900473ffffffffffffffffffffffffffffffffffffffff168260056117a6565b6118ef600a60009054906101000a900473ffffffffffffffffffffffffffffffffffffffff168260056117a6565b50565b80600b60003373ffffffffffffffffffffffffffffffffffffffff1673ffffffffffffffffffffffffffffffffffffffff16815260200190815260200160002060000160006101000a81548173ffffffffffffffffffffffffffffffffffffffff021916908373ffffffffffffffffffffffffffffffffffffffff16021790555050565b6000606460ff168260ff168461198c9190611e55565b6119969190611fd8565b905092915050565b600080fd5b600073ffffffffffffffffffffffffffffffffffffffff82169050919050565b60006119ce826119a3565b9050919050565b6119de816119c3565b81146119e957600080fd5b50565b6000813590506119fb816119d5565b92915050565b600060208284031215611a1757611a1661199e565b5b6000611a25848285016119ec565b91505092915050565b6000819050919050565b611a4181611a2e565b8114611a4c57600080fd5b50565b600081359050611a5e81611a38565b92915050565b60008060408385031215611a7b57611a7a61199e565b5b6000611a8985828601611a4f565b9250506020611a9a85828601611a4f565b9150509250929050565b6000806000806000806000806000806101408b8d031215611ac857611ac761199e565b5b6000611ad68d828e016119ec565b9a50506020611ae78d828e016119ec565b9950506040611af88d828e016119ec565b9850506060611b098d828e016119ec565b9750506080611b1a8d828e016119ec565b96505060a0611b2b8d828e016119ec565b95505060c0611b3c8d828e016119ec565b94505060e0611b4d8d828e016119ec565b935050610100611b5f8d828e01611a4f565b925050610120611b718d828e01611a4f565b9150509295989b9194979a5092959850565b611b8c816119c3565b82525050565b6000602082019050611ba76000830184611b83565b92915050565b60008060408385031215611bc457611bc361199e565b5b6000611bd285828601611a4f565b9250506020611be3858286016119ec565b9150509250929050565b60008115159050919050565b611c0281611bed565b82525050565b6000602082019050611c1d6000830184611bf9565b92915050565b611c2c81611a2e565b82525050565b6000602082019050611c476000830184611c23565b92915050565b600082825260208201905092915050565b7f496e697469616c697a61626c653a20636f6e747261637420697320616c72656160008201527f647920696e697469616c697a6564000000000000000000000000000000000000602082015250565b6000611cba602e83611c4d565b9150611cc582611c5e565b604082019050919050565b60006020820190508181036000830152611ce981611cad565b9050919050565b6000819050919050565b600060ff82169050919050565b6000819050919050565b6000611d2c611d27611d2284611cf0565b611d07565b611cfa565b9050919050565b611d3c81611d11565b82525050565b6000602082019050611d576000830184611d33565b92915050565b6000606082019050611d726000830186611b83565b611d7f6020830185611c23565b611d8c6040830184611c23565b949350505050565b7f496e697469616c697a61626c653a20636f6e7472616374206973206e6f74206960008201527f6e697469616c697a696e67000000000000000000000000000000000000000000602082015250565b6000611df0602b83611c4d565b9150611dfb82611d94565b604082019050919050565b60006020820190508181036000830152611e1f81611de3565b9050919050565b7f4e487b7100000000000000000000000000000000000000000000000000000000600052601160045260246000fd5b6000611e6082611a2e565b9150611e6b83611a2e565b9250828202611e7981611a2e565b91508282048414831517611e9057611e8f611e26565b5b5092915050565b6000606082019050611eac6000830186611b83565b611eb96020830185611b83565b611ec66040830184611c23565b949350505050565b611ed781611bed565b8114611ee257600080fd5b50565b600081519050611ef481611ece565b92915050565b600060208284031215611f1057611f0f61199e565b5b6000611f1e84828501611ee5565b91505092915050565b6000604082019050611f3c6000830185611b83565b611f496020830184611c23565b9392505050565b611f5981611cfa565b8114611f6457600080fd5b50565b600081519050611f7681611f50565b92915050565b600060208284031215611f9257611f9161199e565b5b6000611fa084828501611f67565b91505092915050565b7f4e487b7100000000000000000000000000000000000000000000000000000000600052601260045260246000fd5b6000611fe382611a2e565b9150611fee83611a2e565b925082611ffe57611ffd611fa9565b5b828204905092915050565b7f456d616e6149434f3a205472616e7366657220456d616e61206661696c656400600082015250565b600061203f601f83611c4d565b915061204a82612009565b602082019050919050565b6000602082019050818103600083015261206e81612032565b905091905056fea26469706673582212205f49b4a88900a3c42364fd1b04682d8cd7dec88478265a088ef0f37a41dc3eb364736f6c63430008130033","opcodes":"PUSH1 0x80 PUSH1 0x40 MSTORE CALLVALUE DUP1 ISZERO PUSH3 0x11 JUMPI PUSH1 0x0 DUP1 REVERT JUMPDEST POP PUSH3 0x22 PUSH3 0x28 PUSH1 0x20 SHL PUSH1 0x20 SHR JUMP JUMPDEST PUSH3 0x1D2 JUMP JUMPDEST PUSH1 0x0 PUSH1 0x1 SWAP1 SLOAD SWAP1 PUSH2 0x100 EXP SWAP1 DIV PUSH1 0xFF AND ISZERO PUSH3 0x7B JUMPI PUSH1 0x40 MLOAD PUSH32 0x8C379A000000000000000000000000000000000000000000000000000000000 DUP2 MSTORE PUSH1 0x4 ADD PUSH3 0x72 SWAP1 PUSH3 0x175 JUMP JUMPDEST PUSH1 0x40 MLOAD DUP1 SWAP2 SUB SWAP1 REVERT JUMPDEST PUSH1 0xFF DUP1 AND PUSH1 0x0 DUP1 SLOAD SWAP1 PUSH2 0x100 EXP SWAP1 DIV PUSH1 0xFF AND PUSH1 0xFF AND EQ PUSH3 0xEC JUMPI PUSH1 0xFF PUSH1 0x0 DUP1 PUSH2 0x100 EXP DUP2 SLOAD DUP2 PUSH1 0xFF MUL NOT AND SWAP1 DUP4 PUSH1 0xFF AND MUL OR SWAP1 SSTORE POP PUSH32 0x7F26B83FF96E1F2B6A682F133852F6798A09C465DA95921460CEFB3847402498 PUSH1 0xFF PUSH1 0x40 MLOAD PUSH3 0xE3 SWAP2 SWAP1 PUSH3 0x1B5 JUMP JUMPDEST PUSH1 0x40 MLOAD DUP1 SWAP2 SUB SWAP1 LOG1 JUMPDEST JUMP JUMPDEST PUSH1 0x0 DUP3 DUP3 MSTORE PUSH1 0x20 DUP3 ADD SWAP1 POP SWAP3 SWAP2 POP POP JUMP JUMPDEST PUSH32 0x496E697469616C697A61626C653A20636F6E747261637420697320696E697469 PUSH1 0x0 DUP3 ADD MSTORE PUSH32 0x616C697A696E6700000000000000000000000000000000000000000000000000 PUSH1 0x20 DUP3 ADD MSTORE POP JUMP JUMPDEST PUSH1 0x0 PUSH3 0x15D PUSH1 0x27 DUP4 PUSH3 0xEE JUMP JUMPDEST SWAP2 POP PUSH3 0x16A DUP3 PUSH3 0xFF JUMP JUMPDEST PUSH1 0x40 DUP3 ADD SWAP1 POP SWAP2 SWAP1 POP JUMP JUMPDEST PUSH1 0x0 PUSH1 0x20 DUP3 ADD SWAP1 POP DUP2 DUP2 SUB PUSH1 0x0 DUP4 ADD MSTORE PUSH3 0x190 DUP2 PUSH3 0x14E JUMP JUMPDEST SWAP1 POP SWAP2 SWAP1 POP JUMP JUMPDEST PUSH1 0x0 PUSH1 0xFF DUP3 AND SWAP1 POP SWAP2 SWAP1 POP JUMP JUMPDEST PUSH3 0x1AF DUP2 PUSH3 0x197 JUMP JUMPDEST DUP3 MSTORE POP POP JUMP JUMPDEST PUSH1 0x0 PUSH1 0x20 DUP3 ADD SWAP1 POP PUSH3 0x1CC PUSH1 0x0 DUP4 ADD DUP5 PUSH3 0x1A4 JUMP JUMPDEST SWAP3 SWAP2 POP POP JUMP JUMPDEST PUSH2 0x20AB DUP1 PUSH3 0x1E2 PUSH1 0x0 CODECOPY PUSH1 0x0 RETURN INVALID PUSH1 0x80 PUSH1 0x40 MSTORE PUSH1 0x4 CALLDATASIZE LT PUSH2 0x10D JUMPI PUSH1 0x0 CALLDATALOAD PUSH1 0xE0 SHR DUP1 PUSH4 0xA3FF6A69 GT PUSH2 0x95 JUMPI DUP1 PUSH4 0xC5C4744C GT PUSH2 0x64 JUMPI DUP1 PUSH4 0xC5C4744C EQ PUSH2 0x34B JUMPI DUP1 PUSH4 0xE43581B8 EQ PUSH2 0x376 JUMPI DUP1 PUSH4 0xF2FDE38B EQ PUSH2 0x3B3 JUMPI DUP1 PUSH4 0xF60CA60D EQ PUSH2 0x3DC JUMPI DUP1 PUSH4 0xF8FC6A5A EQ PUSH2 0x407 JUMPI PUSH2 0x114 JUMP JUMPDEST DUP1 PUSH4 0xA3FF6A69 EQ PUSH2 0x27D JUMPI DUP1 PUSH4 0xAC2ED7A5 EQ PUSH2 0x2BA JUMPI DUP1 PUSH4 0xB187BD26 EQ PUSH2 0x2F7 JUMPI DUP1 PUSH4 0xB1FD0807 EQ PUSH2 0x322 JUMPI PUSH2 0x114 JUMP JUMPDEST DUP1 PUSH4 0x238455C9 GT PUSH2 0xDC JUMPI DUP1 PUSH4 0x238455C9 EQ PUSH2 0x1BC JUMPI DUP1 PUSH4 0x3F4BA83A EQ PUSH2 0x1E7 JUMPI DUP1 PUSH4 0x60C4376D EQ PUSH2 0x1FE JUMPI DUP1 PUSH4 0x8456CB59 EQ PUSH2 0x23B JUMPI DUP1 PUSH4 0x8DA5CB5B EQ PUSH2 0x252 JUMPI PUSH2 0x114 JUMP JUMPDEST DUP1 PUSH4 0x4DCD58D EQ PUSH2 0x116 JUMPI DUP1 PUSH4 0xD0C5C9E EQ PUSH2 0x13F JUMPI DUP1 PUSH4 0x15A8435F EQ PUSH2 0x168 JUMPI DUP1 PUSH4 0x1A686502 EQ PUSH2 0x191 JUMPI PUSH2 0x114 JUMP JUMPDEST CALLDATASIZE PUSH2 0x114 JUMPI STOP JUMPDEST STOP JUMPDEST CALLVALUE DUP1 ISZERO PUSH2 0x122 JUMPI PUSH1 0x0 DUP1 REVERT JUMPDEST POP PUSH2 0x13D PUSH1 0x4 DUP1 CALLDATASIZE SUB DUP2 ADD SWAP1 PUSH2 0x138 SWAP2 SWAP1 PUSH2 0x1A01 JUMP JUMPDEST PUSH2 0x432 JUMP JUMPDEST STOP JUMPDEST CALLVALUE DUP1 ISZERO PUSH2 0x14B JUMPI PUSH1 0x0 DUP1 REVERT JUMPDEST POP PUSH2 0x166 PUSH1 0x4 DUP1 CALLDATASIZE SUB DUP2 ADD SWAP1 PUSH2 0x161 SWAP2 SWAP1 PUSH2 0x1A64 JUMP JUMPDEST PUSH2 0x495 JUMP JUMPDEST STOP JUMPDEST CALLVALUE DUP1 ISZERO PUSH2 0x174 JUMPI PUSH1 0x0 DUP1 REVERT JUMPDEST POP PUSH2 0x18F PUSH1 0x4 DUP1 CALLDATASIZE SUB DUP2 ADD SWAP1 PUSH2 0x18A SWAP2 SWAP1 PUSH2 0x1AA4 JUMP JUMPDEST PUSH2 0x4AF JUMP JUMPDEST STOP JUMPDEST CALLVALUE DUP1 ISZERO PUSH2 0x19D JUMPI PUSH1 0x0 DUP1 REVERT JUMPDEST POP PUSH2 0x1A6 PUSH2 0x815 JUMP JUMPDEST PUSH1 0x40 MLOAD PUSH2 0x1B3 SWAP2 SWAP1 PUSH2 0x1B92 JUMP JUMPDEST PUSH1 0x40 MLOAD DUP1 SWAP2 SUB SWAP1 RETURN JUMPDEST CALLVALUE DUP1 ISZERO PUSH2 0x1C8 JUMPI PUSH1 0x0 DUP1 REVERT JUMPDEST POP PUSH2 0x1D1 PUSH2 0x83B JUMP JUMPDEST PUSH1 0x40 MLOAD PUSH2 0x1DE SWAP2 SWAP1 PUSH2 0x1B92 JUMP JUMPDEST PUSH1 0x40 MLOAD DUP1 SWAP2 SUB SWAP1 RETURN JUMPDEST CALLVALUE DUP1 ISZERO PUSH2 0x1F3 JUMPI PUSH1 0x0 DUP1 REVERT JUMPDEST POP PUSH2 0x1FC PUSH2 0x861 JUMP JUMPDEST STOP JUMPDEST CALLVALUE DUP1 ISZERO PUSH2 0x20A JUMPI PUSH1 0x0 DUP1 REVERT JUMPDEST POP PUSH2 0x225 PUSH1 0x4 DUP1 CALLDATASIZE SUB DUP2 ADD SWAP1 PUSH2 0x220 SWAP2 SWAP1 PUSH2 0x1BAD JUMP JUMPDEST PUSH2 0x8FB JUMP JUMPDEST PUSH1 0x40 MLOAD PUSH2 0x232 SWAP2 SWAP1 PUSH2 0x1C08 JUMP JUMPDEST PUSH1 0x40 MLOAD DUP1 SWAP2 SUB SWAP1 RETURN JUMPDEST CALLVALUE DUP1 ISZERO PUSH2 0x247 JUMPI PUSH1 0x0 DUP1 REVERT JUMPDEST POP PUSH2 0x250 PUSH2 0x9F9 JUMP JUMPDEST STOP JUMPDEST CALLVALUE DUP1 ISZERO PUSH2 0x25E JUMPI PUSH1 0x0 DUP1 REVERT JUMPDEST POP PUSH2 0x267 PUSH2 0xA94 JUMP JUMPDEST PUSH1 0x40 MLOAD PUSH2 0x274 SWAP2 SWAP1 PUSH2 0x1B92 JUMP JUMPDEST PUSH1 0x40 MLOAD DUP1 SWAP2 SUB SWAP1 RETURN JUMPDEST CALLVALUE DUP1 ISZERO PUSH2 0x289 JUMPI PUSH1 0x0 DUP1 REVERT JUMPDEST POP PUSH2 0x2A4 PUSH1 0x4 DUP1 CALLDATASIZE SUB DUP2 ADD SWAP1 PUSH2 0x29F SWAP2 SWAP1 PUSH2 0x1BAD JUMP JUMPDEST PUSH2 0xABD JUMP JUMPDEST PUSH1 0x40 MLOAD PUSH2 0x2B1 SWAP2 SWAP1 PUSH2 0x1C08 JUMP JUMPDEST PUSH1 0x40 MLOAD DUP1 SWAP2 SUB SWAP1 RETURN JUMPDEST CALLVALUE DUP1 ISZERO PUSH2 0x2C6 JUMPI PUSH1 0x0 DUP1 REVERT JUMPDEST POP PUSH2 0x2E1 PUSH1 0x4 DUP1 CALLDATASIZE SUB DUP2 ADD SWAP1 PUSH2 0x2DC SWAP2 SWAP1 PUSH2 0x1BAD JUMP JUMPDEST PUSH2 0xBBB JUMP JUMPDEST PUSH1 0x40 MLOAD PUSH2 0x2EE SWAP2 SWAP1 PUSH2 0x1C08 JUMP JUMPDEST PUSH1 0x40 MLOAD DUP1 SWAP2 SUB SWAP1 RETURN JUMPDEST CALLVALUE DUP1 ISZERO PUSH2 0x303 JUMPI PUSH1 0x0 DUP1 REVERT JUMPDEST POP PUSH2 0x30C PUSH2 0xCB9 JUMP JUMPDEST PUSH1 0x40 MLOAD PUSH2 0x319 SWAP2 SWAP1 PUSH2 0x1C08 JUMP JUMPDEST PUSH1 0x40 MLOAD DUP1 SWAP2 SUB SWAP1 RETURN JUMPDEST CALLVALUE DUP1 ISZERO PUSH2 0x32E JUMPI PUSH1 0x0 DUP1 REVERT JUMPDEST POP PUSH2 0x349 PUSH1 0x4 DUP1 CALLDATASIZE SUB DUP2 ADD SWAP1 PUSH2 0x344 SWAP2 SWAP1 PUSH2 0x1A01 JUMP JUMPDEST PUSH2 0xCD0 JUMP JUMPDEST STOP JUMPDEST CALLVALUE DUP1 ISZERO PUSH2 0x357 JUMPI PUSH1 0x0 DUP1 REVERT JUMPDEST POP PUSH2 0x360 PUSH2 0xD32 JUMP JUMPDEST PUSH1 0x40 MLOAD PUSH2 0x36D SWAP2 SWAP1 PUSH2 0x1C32 JUMP JUMPDEST PUSH1 0x40 MLOAD DUP1 SWAP2 SUB SWAP1 RETURN JUMPDEST CALLVALUE DUP1 ISZERO PUSH2 0x382 JUMPI PUSH1 0x0 DUP1 REVERT JUMPDEST POP PUSH2 0x39D PUSH1 0x4 DUP1 CALLDATASIZE SUB DUP2 ADD SWAP1 PUSH2 0x398 SWAP2 SWAP1 PUSH2 0x1A01 JUMP JUMPDEST PUSH2 0xD38 JUMP JUMPDEST PUSH1 0x40 MLOAD PUSH2 0x3AA SWAP2 SWAP1 PUSH2 0x1C08 JUMP JUMPDEST PUSH1 0x40 MLOAD DUP1 SWAP2 SUB SWAP1 RETURN JUMPDEST CALLVALUE DUP1 ISZERO PUSH2 0x3BF JUMPI PUSH1 0x0 DUP1 REVERT JUMPDEST POP PUSH2 0x3DA PUSH1 0x4 DUP1 CALLDATASIZE SUB DUP2 ADD SWAP1 PUSH2 0x3D5 SWAP2 SWAP1 PUSH2 0x1A01 JUMP JUMPDEST PUSH2 0xD8E JUMP JUMPDEST STOP JUMPDEST CALLVALUE DUP1 ISZERO PUSH2 0x3E8 JUMPI PUSH1 0x0 DUP1 REVERT JUMPDEST POP PUSH2 0x3F1 PUSH2 0xECC JUMP JUMPDEST PUSH1 0x40 MLOAD PUSH2 0x3FE SWAP2 SWAP1 PUSH2 0x1B92 JUMP JUMPDEST PUSH1 0x40 MLOAD DUP1 SWAP2 SUB SWAP1 RETURN JUMPDEST CALLVALUE DUP1 ISZERO PUSH2 0x413 JUMPI PUSH1 0x0 DUP1 REVERT JUMPDEST POP PUSH2 0x41C PUSH2 0xEF2 JUMP JUMPDEST PUSH1 0x40 MLOAD PUSH2 0x429 SWAP2 SWAP1 PUSH2 0x1B92 JUMP JUMPDEST PUSH1 0x40 MLOAD DUP1 SWAP2 SUB SWAP1 RETURN JUMPDEST PUSH2 0x43A PUSH2 0xF18 JUMP JUMPDEST PUSH1 0x0 PUSH1 0x1 PUSH1 0x0 DUP4 PUSH20 0xFFFFFFFFFFFFFFFFFFFFFFFFFFFFFFFFFFFFFFFF AND PUSH20 0xFFFFFFFFFFFFFFFFFFFFFFFFFFFFFFFFFFFFFFFF AND DUP2 MSTORE PUSH1 0x20 ADD SWAP1 DUP2 MSTORE PUSH1 0x20 ADD PUSH1 0x0 KECCAK256 PUSH1 0x0 PUSH2 0x100 EXP DUP2 SLOAD DUP2 PUSH1 0xFF MUL NOT AND SWAP1 DUP4 ISZERO ISZERO MUL OR SWAP1 SSTORE POP POP JUMP JUMPDEST PUSH2 0x49D PUSH2 0xF18 JUMP JUMPDEST DUP2 PUSH1 0xC DUP2 SWAP1 SSTORE POP DUP1 PUSH1 0xD DUP2 SWAP1 SSTORE POP POP POP JUMP JUMPDEST PUSH1 0x0 DUP1 PUSH1 0x1 SWAP1 SLOAD SWAP1 PUSH2 0x100 EXP SWAP1 DIV PUSH1 0xFF AND ISZERO SWAP1 POP DUP1 DUP1 ISZERO PUSH2 0x4E0 JUMPI POP PUSH1 0x1 PUSH1 0x0 DUP1 SLOAD SWAP1 PUSH2 0x100 EXP SWAP1 DIV PUSH1 0xFF AND PUSH1 0xFF AND LT JUMPDEST DUP1 PUSH2 0x50D JUMPI POP PUSH2 0x4EF ADDRESS PUSH2 0xFAC JUMP JUMPDEST ISZERO DUP1 ISZERO PUSH2 0x50C JUMPI POP PUSH1 0x1 PUSH1 0x0 DUP1 SLOAD SWAP1 PUSH2 0x100 EXP SWAP1 DIV PUSH1 0xFF AND PUSH1 0xFF AND EQ JUMPDEST JUMPDEST PUSH2 0x54C JUMPI PUSH1 0x40 MLOAD PUSH32 0x8C379A000000000000000000000000000000000000000000000000000000000 DUP2 MSTORE PUSH1 0x4 ADD PUSH2 0x543 SWAP1 PUSH2 0x1CD0 JUMP JUMPDEST PUSH1 0x40 MLOAD DUP1 SWAP2 SUB SWAP1 REVERT JUMPDEST PUSH1 0x1 PUSH1 0x0 DUP1 PUSH2 0x100 EXP DUP2 SLOAD DUP2 PUSH1 0xFF MUL NOT AND SWAP1 DUP4 PUSH1 0xFF AND MUL OR SWAP1 SSTORE POP DUP1 ISZERO PUSH2 0x589 JUMPI PUSH1 0x1 PUSH1 0x0 PUSH1 0x1 PUSH2 0x100 EXP DUP2 SLOAD DUP2 PUSH1 0xFF MUL NOT AND SWAP1 DUP4 ISZERO ISZERO MUL OR SWAP1 SSTORE POP JUMPDEST PUSH2 0x591 PUSH2 0xFCF JUMP JUMPDEST PUSH2 0x599 PUSH2 0x1061 JUMP JUMPDEST DUP11 PUSH1 0x2 PUSH1 0x1 PUSH2 0x100 EXP DUP2 SLOAD DUP2 PUSH20 0xFFFFFFFFFFFFFFFFFFFFFFFFFFFFFFFFFFFFFFFF MUL NOT AND SWAP1 DUP4 PUSH20 0xFFFFFFFFFFFFFFFFFFFFFFFFFFFFFFFFFFFFFFFF AND MUL OR SWAP1 SSTORE POP DUP10 PUSH1 0x3 PUSH1 0x0 PUSH2 0x100 EXP DUP2 SLOAD DUP2 PUSH20 0xFFFFFFFFFFFFFFFFFFFFFFFFFFFFFFFFFFFFFFFF MUL NOT AND SWAP1 DUP4 PUSH20 0xFFFFFFFFFFFFFFFFFFFFFFFFFFFFFFFFFFFFFFFF AND MUL OR SWAP1 SSTORE POP DUP9 PUSH1 0x4 PUSH1 0x0 PUSH2 0x100 EXP DUP2 SLOAD DUP2 PUSH20 0xFFFFFFFFFFFFFFFFFFFFFFFFFFFFFFFFFFFFFFFF MUL NOT AND SWAP1 DUP4 PUSH20 0xFFFFFFFFFFFFFFFFFFFFFFFFFFFFFFFFFFFFFFFF AND MUL OR SWAP1 SSTORE POP DUP8 PUSH1 0x5 PUSH1 0x0 PUSH2 0x100 EXP DUP2 SLOAD DUP2 PUSH20 0xFFFFFFFFFFFFFFFFFFFFFFFFFFFFFFFFFFFFFFFF MUL NOT AND SWAP1 DUP4 PUSH20 0xFFFFFFFFFFFFFFFFFFFFFFFFFFFFFFFFFFFFFFFF AND MUL OR SWAP1 SSTORE POP DUP7 PUSH1 0x7 PUSH1 0x0 PUSH2 0x100 EXP DUP2 SLOAD DUP2 PUSH20 0xFFFFFFFFFFFFFFFFFFFFFFFFFFFFFFFFFFFFFFFF MUL NOT AND SWAP1 DUP4 PUSH20 0xFFFFFFFFFFFFFFFFFFFFFFFFFFFFFFFFFFFFFFFF AND MUL OR SWAP1 SSTORE POP DUP6 PUSH1 0x8 PUSH1 0x0 PUSH2 0x100 EXP DUP2 SLOAD DUP2 PUSH20 0xFFFFFFFFFFFFFFFFFFFFFFFFFFFFFFFFFFFFFFFF MUL NOT AND SWAP1 DUP4 PUSH20 0xFFFFFFFFFFFFFFFFFFFFFFFFFFFFFFFFFFFFFFFF AND MUL OR SWAP1 SSTORE POP DUP5 PUSH1 0x9 PUSH1 0x0 PUSH2 0x100 EXP DUP2 SLOAD DUP2 PUSH20 0xFFFFFFFFFFFFFFFFFFFFFFFFFFFFFFFFFFFFFFFF MUL NOT AND SWAP1 DUP4 PUSH20 0xFFFFFFFFFFFFFFFFFFFFFFFFFFFFFFFFFFFFFFFF AND MUL OR SWAP1 SSTORE POP DUP4 PUSH1 0xA PUSH1 0x0 PUSH2 0x100 EXP DUP2 SLOAD DUP2 PUSH20 0xFFFFFFFFFFFFFFFFFFFFFFFFFFFFFFFFFFFFFFFF MUL NOT AND SWAP1 DUP4 PUSH20 0xFFFFFFFFFFFFFFFFFFFFFFFFFFFFFFFFFFFFFFFF AND MUL OR SWAP1 SSTORE POP DUP3 PUSH1 0xC DUP2 SWAP1 SSTORE POP DUP2 PUSH1 0xD DUP2 SWAP1 SSTORE POP DUP1 ISZERO PUSH2 0x808 JUMPI PUSH1 0x0 DUP1 PUSH1 0x1 PUSH2 0x100 EXP DUP2 SLOAD DUP2 PUSH1 0xFF MUL NOT AND SWAP1 DUP4 ISZERO ISZERO MUL OR SWAP1 SSTORE POP PUSH32 0x7F26B83FF96E1F2B6A682F133852F6798A09C465DA95921460CEFB3847402498 PUSH1 0x1 PUSH1 0x40 MLOAD PUSH2 0x7FF SWAP2 SWAP1 PUSH2 0x1D42 JUMP JUMPDEST PUSH1 0x40 MLOAD DUP1 SWAP2 SUB SWAP1 LOG1 JUMPDEST POP POP POP POP POP POP POP POP POP POP POP JUMP JUMPDEST PUSH1 0x7 PUSH1 0x0 SWAP1 SLOAD SWAP1 PUSH2 0x100 EXP SWAP1 DIV PUSH20 0xFFFFFFFFFFFFFFFFFFFFFFFFFFFFFFFFFFFFFFFF AND DUP2 JUMP JUMPDEST PUSH1 0x9 PUSH1 0x0 SWAP1 SLOAD SWAP1 PUSH2 0x100 EXP SWAP1 DIV PUSH20 0xFFFFFFFFFFFFFFFFFFFFFFFFFFFFFFFFFFFFFFFF AND DUP2 JUMP JUMPDEST PUSH2 0x869 PUSH2 0xF18 JUMP JUMPDEST PUSH2 0x871 PUSH2 0xCB9 JUMP JUMPDEST PUSH2 0x8A7 JUMPI PUSH1 0x40 MLOAD PUSH32 0x92FC71A00000000000000000000000000000000000000000000000000000000 DUP2 MSTORE PUSH1 0x4 ADD PUSH1 0x40 MLOAD DUP1 SWAP2 SUB SWAP1 REVERT JUMPDEST PUSH1 0x0 PUSH1 0x2 PUSH1 0x0 PUSH2 0x100 EXP DUP2 SLOAD DUP2 PUSH1 0xFF MUL NOT AND SWAP1 DUP4 ISZERO ISZERO MUL OR SWAP1 SSTORE POP PUSH32 0x5DB9EE0A495BF2E6FF9C91A7834C1BA4FDD244A5E8AA4E537BD38AEAE4B073AA CALLER PUSH1 0x40 MLOAD PUSH2 0x8F1 SWAP2 SWAP1 PUSH2 0x1B92 JUMP JUMPDEST PUSH1 0x40 MLOAD DUP1 SWAP2 SUB SWAP1 LOG1 JUMP JUMPDEST PUSH1 0x0 DUP1 PUSH2 0x906 PUSH2 0x10CD JUMP JUMPDEST SWAP1 POP DUP1 DUP5 LT ISZERO PUSH2 0x951 JUMPI CALLER DUP5 DUP3 PUSH1 0x40 MLOAD PUSH32 0xDF58D7AF00000000000000000000000000000000000000000000000000000000 DUP2 MSTORE PUSH1 0x4 ADD PUSH2 0x948 SWAP4 SWAP3 SWAP2 SWAP1 PUSH2 0x1D5D JUMP JUMPDEST PUSH1 0x40 MLOAD DUP1 SWAP2 SUB SWAP1 REVERT JUMPDEST PUSH2 0x97D PUSH1 0x4 PUSH1 0x0 SWAP1 SLOAD SWAP1 PUSH2 0x100 EXP SWAP1 DIV PUSH20 0xFFFFFFFFFFFFFFFFFFFFFFFFFFFFFFFFFFFFFFFF AND DUP6 PUSH2 0x10EA JUMP JUMPDEST PUSH1 0x0 PUSH2 0x9AB PUSH1 0x4 PUSH1 0x0 SWAP1 SLOAD SWAP1 PUSH2 0x100 EXP SWAP1 DIV PUSH20 0xFFFFFFFFFFFFFFFFFFFFFFFFFFFFFFFFFFFFFFFF AND DUP7 PUSH2 0x121F JUMP JUMPDEST SWAP1 POP PUSH2 0x9B6 DUP2 PUSH2 0x12B3 JUMP JUMPDEST PUSH2 0x9E4 PUSH1 0x4 PUSH1 0x0 SWAP1 SLOAD SWAP1 PUSH2 0x100 EXP SWAP1 DIV PUSH20 0xFFFFFFFFFFFFFFFFFFFFFFFFFFFFFFFFFFFFFFFF AND DUP7 DUP4 DUP8 PUSH2 0x12ED JUMP JUMPDEST PUSH2 0x9ED DUP2 PUSH2 0x157C JUMP JUMPDEST PUSH1 0x1 SWAP3 POP POP POP SWAP3 SWAP2 POP POP JUMP JUMPDEST PUSH2 0xA01 PUSH2 0xF18 JUMP JUMPDEST PUSH2 0xA09 PUSH2 0xCB9 JUMP JUMPDEST ISZERO PUSH2 0xA40 JUMPI PUSH1 0x40 MLOAD PUSH32 0x74C90BDC00000000000000000000000000000000000000000000000000000000 DUP2 MSTORE PUSH1 0x4 ADD PUSH1 0x40 MLOAD DUP1 SWAP2 SUB SWAP1 REVERT JUMPDEST PUSH1 0x1 PUSH1 0x2 PUSH1 0x0 PUSH2 0x100 EXP DUP2 SLOAD DUP2 PUSH1 0xFF MUL NOT AND SWAP1 DUP4 ISZERO ISZERO MUL OR SWAP1 SSTORE POP PUSH32 0x62E78CEA01BEE320CD4E420270B5EA74000D11B0C9F74754EBDBFC544B05A258 CALLER PUSH1 0x40 MLOAD PUSH2 0xA8A SWAP2 SWAP1 PUSH2 0x1B92 JUMP JUMPDEST PUSH1 0x40 MLOAD DUP1 SWAP2 SUB SWAP1 LOG1 JUMP JUMPDEST PUSH1 0x0 DUP1 PUSH1 0x2 SWAP1 SLOAD SWAP1 PUSH2 0x100 EXP SWAP1 DIV PUSH20 0xFFFFFFFFFFFFFFFFFFFFFFFFFFFFFFFFFFFFFFFF AND SWAP1 POP SWAP1 JUMP JUMPDEST PUSH1 0x0 DUP1 PUSH2 0xAC8 PUSH2 0x10CD JUMP JUMPDEST SWAP1 POP DUP1 DUP5 LT ISZERO PUSH2 0xB13 JUMPI CALLER DUP5 DUP3 PUSH1 0x40 MLOAD PUSH32 0xDF58D7AF00000000000000000000000000000000000000000000000000000000 DUP2 MSTORE PUSH1 0x4 ADD PUSH2 0xB0A SWAP4 SWAP3 SWAP2 SWAP1 PUSH2 0x1D5D JUMP JUMPDEST PUSH1 0x40 MLOAD DUP1 SWAP2 SUB SWAP1 REVERT JUMPDEST PUSH2 0xB3F PUSH1 0x5 PUSH1 0x0 SWAP1 SLOAD SWAP1 PUSH2 0x100 EXP SWAP1 DIV PUSH20 0xFFFFFFFFFFFFFFFFFFFFFFFFFFFFFFFFFFFFFFFF AND DUP6 PUSH2 0x10EA JUMP JUMPDEST PUSH1 0x0 PUSH2 0xB6D PUSH1 0x5 PUSH1 0x0 SWAP1 SLOAD SWAP1 PUSH2 0x100 EXP SWAP1 DIV PUSH20 0xFFFFFFFFFFFFFFFFFFFFFFFFFFFFFFFFFFFFFFFF AND DUP7 PUSH2 0x121F JUMP JUMPDEST SWAP1 POP PUSH2 0xB78 DUP2 PUSH2 0x12B3 JUMP JUMPDEST PUSH2 0xBA6 PUSH1 0x5 PUSH1 0x0 SWAP1 SLOAD SWAP1 PUSH2 0x100 EXP SWAP1 DIV PUSH20 0xFFFFFFFFFFFFFFFFFFFFFFFFFFFFFFFFFFFFFFFF AND DUP7 DUP4 DUP8 PUSH2 0x12ED JUMP JUMPDEST PUSH2 0xBAF DUP2 PUSH2 0x157C JUMP JUMPDEST PUSH1 0x1 SWAP3 POP POP POP SWAP3 SWAP2 POP POP JUMP JUMPDEST PUSH1 0x0 DUP1 PUSH2 0xBC6 PUSH2 0x10CD JUMP JUMPDEST SWAP1 POP DUP1 DUP5 LT ISZERO PUSH2 0xC11 JUMPI CALLER DUP5 DUP3 PUSH1 0x40 MLOAD PUSH32 0xDF58D7AF00000000000000000000000000000000000000000000000000000000 DUP2 MSTORE PUSH1 0x4 ADD PUSH2 0xC08 SWAP4 SWAP3 SWAP2 SWAP1 PUSH2 0x1D5D JUMP JUMPDEST PUSH1 0x40 MLOAD DUP1 SWAP2 SUB SWAP1 REVERT JUMPDEST PUSH2 0xC3D PUSH1 0x3 PUSH1 0x0 SWAP1 SLOAD SWAP1 PUSH2 0x100 EXP SWAP1 DIV PUSH20 0xFFFFFFFFFFFFFFFFFFFFFFFFFFFFFFFFFFFFFFFF AND DUP6 PUSH2 0x10EA JUMP JUMPDEST PUSH1 0x0 PUSH2 0xC6B PUSH1 0x3 PUSH1 0x0 SWAP1 SLOAD SWAP1 PUSH2 0x100 EXP SWAP1 DIV PUSH20 0xFFFFFFFFFFFFFFFFFFFFFFFFFFFFFFFFFFFFFFFF AND DUP7 PUSH2 0x121F JUMP JUMPDEST SWAP1 POP PUSH2 0xC76 DUP2 PUSH2 0x12B3 JUMP JUMPDEST PUSH2 0xCA4 PUSH1 0x3 PUSH1 0x0 SWAP1 SLOAD SWAP1 PUSH2 0x100 EXP SWAP1 DIV PUSH20 0xFFFFFFFFFFFFFFFFFFFFFFFFFFFFFFFFFFFFFFFF AND DUP7 DUP4 DUP8 PUSH2 0x12ED JUMP JUMPDEST PUSH2 0xCAD DUP2 PUSH2 0x157C JUMP JUMPDEST PUSH1 0x1 SWAP3 POP POP POP SWAP3 SWAP2 POP POP JUMP JUMPDEST PUSH1 0x0 PUSH1 0x2 PUSH1 0x0 SWAP1 SLOAD SWAP1 PUSH2 0x100 EXP SWAP1 DIV PUSH1 0xFF AND SWAP1 POP SWAP1 JUMP JUMPDEST PUSH2 0xCD8 PUSH2 0xF18 JUMP JUMPDEST PUSH1 0x1 DUP1 PUSH1 0x0 DUP4 PUSH20 0xFFFFFFFFFFFFFFFFFFFFFFFFFFFFFFFFFFFFFFFF AND PUSH20 0xFFFFFFFFFFFFFFFFFFFFFFFFFFFFFFFFFFFFFFFF AND DUP2 MSTORE PUSH1 0x20 ADD SWAP1 DUP2 MSTORE PUSH1 0x20 ADD PUSH1 0x0 KECCAK256 PUSH1 0x0 PUSH2 0x100 EXP DUP2 SLOAD DUP2 PUSH1 0xFF MUL NOT AND SWAP1 DUP4 ISZERO ISZERO MUL OR SWAP1 SSTORE POP POP JUMP JUMPDEST PUSH1 0x6 SLOAD DUP2 JUMP JUMPDEST PUSH1 0x0 PUSH1 0x1 PUSH1 0x0 DUP4 PUSH20 0xFFFFFFFFFFFFFFFFFFFFFFFFFFFFFFFFFFFFFFFF AND PUSH20 0xFFFFFFFFFFFFFFFFFFFFFFFFFFFFFFFFFFFFFFFF AND DUP2 MSTORE PUSH1 0x20 ADD SWAP1 DUP2 MSTORE PUSH1 0x20 ADD PUSH1 0x0 KECCAK256 PUSH1 0x0 SWAP1 SLOAD SWAP1 PUSH2 0x100 EXP SWAP1 DIV PUSH1 0xFF AND SWAP1 POP SWAP2 SWAP1 POP JUMP JUMPDEST PUSH2 0xD96 PUSH2 0xF18 JUMP JUMPDEST PUSH1 0x0 PUSH20 0xFFFFFFFFFFFFFFFFFFFFFFFFFFFFFFFFFFFFFFFF AND DUP2 PUSH20 0xFFFFFFFFFFFFFFFFFFFFFFFFFFFFFFFFFFFFFFFF AND SUB PUSH2 0xE07 JUMPI DUP1 PUSH1 0x40 MLOAD PUSH32 0x8E4C8AA600000000000000000000000000000000000000000000000000000000 DUP2 MSTORE PUSH1 0x4 ADD PUSH2 0xDFE SWAP2 SWAP1 PUSH2 0x1B92 JUMP JUMPDEST PUSH1 0x40 MLOAD DUP1 SWAP2 SUB SWAP1 REVERT JUMPDEST PUSH1 0x0 DUP1 PUSH1 0x2 SWAP1 SLOAD SWAP1 PUSH2 0x100 EXP SWAP1 DIV PUSH20 0xFFFFFFFFFFFFFFFFFFFFFFFFFFFFFFFFFFFFFFFF AND SWAP1 POP DUP2 PUSH1 0x0 PUSH1 0x2 PUSH2 0x100 EXP DUP2 SLOAD DUP2 PUSH20 0xFFFFFFFFFFFFFFFFFFFFFFFFFFFFFFFFFFFFFFFF MUL NOT AND SWAP1 DUP4 PUSH20 0xFFFFFFFFFFFFFFFFFFFFFFFFFFFFFFFFFFFFFFFF AND MUL OR SWAP1 SSTORE POP DUP2 PUSH20 0xFFFFFFFFFFFFFFFFFFFFFFFFFFFFFFFFFFFFFFFF AND DUP2 PUSH20 0xFFFFFFFFFFFFFFFFFFFFFFFFFFFFFFFFFFFFFFFF AND PUSH32 0x8BE0079C531659141344CD1FD0A4F28419497F9722A3DAAFE3B4186F6B6457E0 PUSH1 0x40 MLOAD PUSH1 0x40 MLOAD DUP1 SWAP2 SUB SWAP1 LOG3 POP POP JUMP JUMPDEST PUSH1 0x8 PUSH1 0x0 SWAP1 SLOAD SWAP1 PUSH2 0x100 EXP SWAP1 DIV PUSH20 0xFFFFFFFFFFFFFFFFFFFFFFFFFFFFFFFFFFFFFFFF AND DUP2 JUMP JUMPDEST PUSH1 0xA PUSH1 0x0 SWAP1 SLOAD SWAP1 PUSH2 0x100 EXP SWAP1 DIV PUSH20 0xFFFFFFFFFFFFFFFFFFFFFFFFFFFFFFFFFFFFFFFF AND DUP2 JUMP JUMPDEST PUSH1 0x0 PUSH1 0x2 SWAP1 SLOAD SWAP1 PUSH2 0x100 EXP SWAP1 DIV PUSH20 0xFFFFFFFFFFFFFFFFFFFFFFFFFFFFFFFFFFFFFFFF AND PUSH20 0xFFFFFFFFFFFFFFFFFFFFFFFFFFFFFFFFFFFFFFFF AND CALLER PUSH20 0xFFFFFFFFFFFFFFFFFFFFFFFFFFFFFFFFFFFFFFFF AND EQ PUSH2 0xFAA JUMPI CALLER PUSH1 0x40 MLOAD PUSH32 0x32B2BAA300000000000000000000000000000000000000000000000000000000 DUP2 MSTORE PUSH1 0x4 ADD PUSH2 0xFA1 SWAP2 SWAP1 PUSH2 0x1B92 JUMP JUMPDEST PUSH1 0x40 MLOAD DUP1 SWAP2 SUB SWAP1 REVERT JUMPDEST JUMP JUMPDEST PUSH1 0x0 DUP1 DUP3 PUSH20 0xFFFFFFFFFFFFFFFFFFFFFFFFFFFFFFFFFFFFFFFF AND EXTCODESIZE GT SWAP1 POP SWAP2 SWAP1 POP JUMP JUMPDEST PUSH1 0x0 PUSH1 0x1 SWAP1 SLOAD SWAP1 PUSH2 0x100 EXP SWAP1 DIV PUSH1 0xFF AND PUSH2 0x101E JUMPI PUSH1 0x40 MLOAD PUSH32 0x8C379A000000000000000000000000000000000000000000000000000000000 DUP2 MSTORE PUSH1 0x4 ADD PUSH2 0x1015 SWAP1 PUSH2 0x1E06 JUMP JUMPDEST PUSH1 0x40 MLOAD DUP1 SWAP2 SUB SWAP1 REVERT JUMPDEST CALLER PUSH1 0x0 PUSH1 0x2 PUSH2 0x100 EXP DUP2 SLOAD DUP2 PUSH20 0xFFFFFFFFFFFFFFFFFFFFFFFFFFFFFFFFFFFFFFFF MUL NOT AND SWAP1 DUP4 PUSH20 0xFFFFFFFFFFFFFFFFFFFFFFFFFFFFFFFFFFFFFFFF AND MUL OR SWAP1 SSTORE POP JUMP JUMPDEST PUSH1 0x0 PUSH1 0x1 SWAP1 SLOAD SWAP1 PUSH2 0x100 EXP SWAP1 DIV PUSH1 0xFF AND PUSH2 0x10B0 JUMPI PUSH1 0x40 MLOAD PUSH32 0x8C379A000000000000000000000000000000000000000000000000000000000 DUP2 MSTORE PUSH1 0x4 ADD PUSH2 0x10A7 SWAP1 PUSH2 0x1E06 JUMP JUMPDEST PUSH1 0x40 MLOAD DUP1 SWAP2 SUB SWAP1 REVERT JUMPDEST PUSH1 0x0 PUSH1 0x2 PUSH1 0x0 PUSH2 0x100 EXP DUP2 SLOAD DUP2 PUSH1 0xFF MUL NOT AND SWAP1 DUP4 ISZERO ISZERO MUL OR SWAP1 SSTORE POP JUMP JUMPDEST PUSH1 0x0 PUSH8 0xDE0B6B3A7640000 PUSH1 0xC SLOAD PUSH2 0x10E5 SWAP2 SWAP1 PUSH2 0x1E55 JUMP JUMPDEST SWAP1 POP SWAP1 JUMP JUMPDEST PUSH1 0x0 DUP3 PUSH20 0xFFFFFFFFFFFFFFFFFFFFFFFFFFFFFFFFFFFFFFFF AND PUSH4 0x23B872DD CALLER ADDRESS DUP6 PUSH1 0x40 MLOAD DUP5 PUSH4 0xFFFFFFFF AND PUSH1 0xE0 SHL DUP2 MSTORE PUSH1 0x4 ADD PUSH2 0x1129 SWAP4 SWAP3 SWAP2 SWAP1 PUSH2 0x1E97 JUMP JUMPDEST PUSH1 0x20 PUSH1 0x40 MLOAD DUP1 DUP4 SUB DUP2 PUSH1 0x0 DUP8 GAS CALL ISZERO DUP1 ISZERO PUSH2 0x1148 JUMPI RETURNDATASIZE PUSH1 0x0 DUP1 RETURNDATACOPY RETURNDATASIZE PUSH1 0x0 REVERT JUMPDEST POP POP POP POP PUSH1 0x40 MLOAD RETURNDATASIZE PUSH1 0x1F NOT PUSH1 0x1F DUP3 ADD AND DUP3 ADD DUP1 PUSH1 0x40 MSTORE POP DUP2 ADD SWAP1 PUSH2 0x116C SWAP2 SWAP1 PUSH2 0x1EFA JUMP JUMPDEST SWAP1 POP DUP1 PUSH2 0x11B2 JUMPI CALLER DUP3 PUSH1 0x40 MLOAD PUSH32 0x29DD36AE00000000000000000000000000000000000000000000000000000000 DUP2 MSTORE PUSH1 0x4 ADD PUSH2 0x11A9 SWAP3 SWAP2 SWAP1 PUSH2 0x1F27 JUMP JUMPDEST PUSH1 0x40 MLOAD DUP1 SWAP2 SUB SWAP1 REVERT JUMPDEST PUSH2 0x11E1 DUP4 PUSH1 0x7 PUSH1 0x0 SWAP1 SLOAD SWAP1 PUSH2 0x100 EXP SWAP1 DIV PUSH20 0xFFFFFFFFFFFFFFFFFFFFFFFFFFFFFFFFFFFFFFFF AND DUP5 PUSH1 0x32 PUSH2 0x166E JUMP JUMPDEST PUSH2 0x1210 DUP4 PUSH1 0x8 PUSH1 0x0 SWAP1 SLOAD SWAP1 PUSH2 0x100 EXP SWAP1 DIV PUSH20 0xFFFFFFFFFFFFFFFFFFFFFFFFFFFFFFFFFFFFFFFF AND DUP5 PUSH1 0x1E PUSH2 0x166E JUMP JUMPDEST PUSH2 0x121A DUP4 DUP4 PUSH2 0x1744 JUMP JUMPDEST POP POP POP JUMP JUMPDEST PUSH1 0x0 PUSH1 0xD SLOAD DUP4 PUSH20 0xFFFFFFFFFFFFFFFFFFFFFFFFFFFFFFFFFFFFFFFF AND PUSH4 0x313CE567 PUSH1 0x40 MLOAD DUP2 PUSH4 0xFFFFFFFF AND PUSH1 0xE0 SHL DUP2 MSTORE PUSH1 0x4 ADD PUSH1 0x20 PUSH1 0x40 MLOAD DUP1 DUP4 SUB DUP2 DUP7 GAS STATICCALL ISZERO DUP1 ISZERO PUSH2 0x126F JUMPI RETURNDATASIZE PUSH1 0x0 DUP1 RETURNDATACOPY RETURNDATASIZE PUSH1 0x0 REVERT JUMPDEST POP POP POP POP PUSH1 0x40 MLOAD RETURNDATASIZE PUSH1 0x1F NOT PUSH1 0x1F DUP3 ADD AND DUP3 ADD DUP1 PUSH1 0x40 MSTORE POP DUP2 ADD SWAP1 PUSH2 0x1293 SWAP2 SWAP1 PUSH2 0x1F7C JUMP JUMPDEST PUSH1 0xFF AND DUP4 PUSH2 0x12A1 SWAP2 SWAP1 PUSH2 0x1FD8 JUMP JUMPDEST PUSH2 0x12AB SWAP2 SWAP1 PUSH2 0x1E55 JUMP JUMPDEST SWAP1 POP SWAP3 SWAP2 POP POP JUMP JUMPDEST PUSH2 0x12E1 PUSH1 0x7 PUSH1 0x0 SWAP1 SLOAD SWAP1 PUSH2 0x100 EXP SWAP1 DIV PUSH20 0xFFFFFFFFFFFFFFFFFFFFFFFFFFFFFFFFFFFFFFFF AND DUP3 PUSH1 0x32 PUSH2 0x17A6 JUMP JUMPDEST PUSH2 0x12EA DUP2 PUSH2 0x1893 JUMP JUMPDEST POP JUMP JUMPDEST PUSH1 0x0 PUSH1 0xB PUSH1 0x0 CALLER PUSH20 0xFFFFFFFFFFFFFFFFFFFFFFFFFFFFFFFFFFFFFFFF AND PUSH20 0xFFFFFFFFFFFFFFFFFFFFFFFFFFFFFFFFFFFFFFFF AND DUP2 MSTORE PUSH1 0x20 ADD SWAP1 DUP2 MSTORE PUSH1 0x20 ADD PUSH1 0x0 KECCAK256 PUSH1 0x0 ADD PUSH1 0x0 SWAP1 SLOAD SWAP1 PUSH2 0x100 EXP SWAP1 DIV PUSH20 0xFFFFFFFFFFFFFFFFFFFFFFFFFFFFFFFFFFFFFFFF AND SWAP1 POP PUSH1 0x0 DUP1 PUSH20 0xFFFFFFFFFFFFFFFFFFFFFFFFFFFFFFFFFFFFFFFF AND DUP3 PUSH20 0xFFFFFFFFFFFFFFFFFFFFFFFFFFFFFFFFFFFFFFFF AND EQ PUSH2 0x138F JUMPI DUP2 PUSH2 0x1391 JUMP JUMPDEST DUP3 JUMPDEST SWAP1 POP PUSH1 0x0 DUP1 PUSH20 0xFFFFFFFFFFFFFFFFFFFFFFFFFFFFFFFFFFFFFFFF AND DUP3 PUSH20 0xFFFFFFFFFFFFFFFFFFFFFFFFFFFFFFFFFFFFFFFF AND EQ SWAP1 POP DUP1 ISZERO PUSH2 0x13E4 JUMPI PUSH2 0x13D6 DUP8 DUP8 PUSH2 0x1744 JUMP JUMPDEST PUSH2 0x13DF DUP6 PUSH2 0x1893 JUMP JUMPDEST PUSH2 0x1573 JUMP JUMPDEST PUSH1 0x0 PUSH1 0xB PUSH1 0x0 DUP5 PUSH20 0xFFFFFFFFFFFFFFFFFFFFFFFFFFFFFFFFFFFFFFFF AND PUSH20 0xFFFFFFFFFFFFFFFFFFFFFFFFFFFFFFFFFFFFFFFF AND DUP2 MSTORE PUSH1 0x20 ADD SWAP1 DUP2 MSTORE PUSH1 0x20 ADD PUSH1 0x0 KECCAK256 PUSH1 0x0 ADD PUSH1 0x0 SWAP1 SLOAD SWAP1 PUSH2 0x100 EXP SWAP1 DIV PUSH20 0xFFFFFFFFFFFFFFFFFFFFFFFFFFFFFFFFFFFFFFFF AND SWAP1 POP PUSH1 0x0 PUSH1 0xB PUSH1 0x0 DUP4 PUSH20 0xFFFFFFFFFFFFFFFFFFFFFFFFFFFFFFFFFFFFFFFF AND PUSH20 0xFFFFFFFFFFFFFFFFFFFFFFFFFFFFFFFFFFFFFFFF AND DUP2 MSTORE PUSH1 0x20 ADD SWAP1 DUP2 MSTORE PUSH1 0x20 ADD PUSH1 0x0 KECCAK256 PUSH1 0x0 ADD PUSH1 0x0 SWAP1 SLOAD SWAP1 PUSH2 0x100 EXP SWAP1 DIV PUSH20 0xFFFFFFFFFFFFFFFFFFFFFFFFFFFFFFFFFFFFFFFF AND SWAP1 POP PUSH2 0x14BB DUP5 PUSH2 0x18F2 JUMP JUMPDEST PUSH2 0x14C8 DUP10 DUP6 DUP11 PUSH1 0x5 PUSH2 0x166E JUMP JUMPDEST PUSH2 0x14D4 DUP5 DUP9 PUSH1 0x5 PUSH2 0x17A6 JUMP JUMPDEST PUSH1 0x0 PUSH20 0xFFFFFFFFFFFFFFFFFFFFFFFFFFFFFFFFFFFFFFFF AND DUP3 PUSH20 0xFFFFFFFFFFFFFFFFFFFFFFFFFFFFFFFFFFFFFFFF AND EQ PUSH2 0x1522 JUMPI PUSH2 0x1515 DUP10 DUP4 DUP11 PUSH1 0x3 PUSH2 0x166E JUMP JUMPDEST PUSH2 0x1521 DUP3 DUP9 PUSH1 0x3 PUSH2 0x17A6 JUMP JUMPDEST JUMPDEST PUSH1 0x0 PUSH20 0xFFFFFFFFFFFFFFFFFFFFFFFFFFFFFFFFFFFFFFFF AND DUP2 PUSH20 0xFFFFFFFFFFFFFFFFFFFFFFFFFFFFFFFFFFFFFFFF AND EQ PUSH2 0x1570 JUMPI PUSH2 0x1563 DUP10 DUP3 DUP11 PUSH1 0x2 PUSH2 0x166E JUMP JUMPDEST PUSH2 0x156F DUP2 DUP9 PUSH1 0x2 PUSH2 0x17A6 JUMP JUMPDEST JUMPDEST POP POP JUMPDEST POP POP POP POP POP POP POP JUMP JUMPDEST PUSH1 0x2 PUSH1 0x1 SWAP1 SLOAD SWAP1 PUSH2 0x100 EXP SWAP1 DIV PUSH20 0xFFFFFFFFFFFFFFFFFFFFFFFFFFFFFFFFFFFFFFFF AND PUSH20 0xFFFFFFFFFFFFFFFFFFFFFFFFFFFFFFFFFFFFFFFF AND PUSH4 0xCB7E4ED8 CALLER DUP4 PUSH1 0x40 MLOAD DUP4 PUSH4 0xFFFFFFFF AND PUSH1 0xE0 SHL DUP2 MSTORE PUSH1 0x4 ADD PUSH2 0x15D9 SWAP3 SWAP2 SWAP1 PUSH2 0x1F27 JUMP JUMPDEST PUSH1 0x20 PUSH1 0x40 MLOAD DUP1 DUP4 SUB DUP2 PUSH1 0x0 DUP8 GAS CALL ISZERO DUP1 ISZERO PUSH2 0x15F8 JUMPI RETURNDATASIZE PUSH1 0x0 DUP1 RETURNDATACOPY RETURNDATASIZE PUSH1 0x0 REVERT JUMPDEST POP POP POP POP PUSH1 0x40 MLOAD RETURNDATASIZE PUSH1 0x1F NOT PUSH1 0x1F DUP3 ADD AND DUP3 ADD DUP1 PUSH1 0x40 MSTORE POP DUP2 ADD SWAP1 PUSH2 0x161C SWAP2 SWAP1 PUSH2 0x1EFA JUMP JUMPDEST POP CALLER PUSH20 0xFFFFFFFFFFFFFFFFFFFFFFFFFFFFFFFFFFFFFFFF AND PUSH32 0xA512FB2532CA8587F236380171326EBB69670E86A2BA0C4412A3FCCA4C3ADA9B DUP3 PUSH1 0x40 MLOAD PUSH2 0x1663 SWAP2 SWAP1 PUSH2 0x1C32 JUMP JUMPDEST PUSH1 0x40 MLOAD DUP1 SWAP2 SUB SWAP1 LOG2 POP JUMP JUMPDEST PUSH1 0x0 DUP5 PUSH20 0xFFFFFFFFFFFFFFFFFFFFFFFFFFFFFFFFFFFFFFFF AND PUSH4 0xA9059CBB DUP6 PUSH2 0x1697 DUP7 DUP7 PUSH2 0x1976 JUMP JUMPDEST PUSH1 0x40 MLOAD DUP4 PUSH4 0xFFFFFFFF AND PUSH1 0xE0 SHL DUP2 MSTORE PUSH1 0x4 ADD PUSH2 0x16B4 SWAP3 SWAP2 SWAP1 PUSH2 0x1F27 JUMP JUMPDEST PUSH1 0x20 PUSH1 0x40 MLOAD DUP1 DUP4 SUB DUP2 PUSH1 0x0 DUP8 GAS CALL ISZERO DUP1 ISZERO PUSH2 0x16D3 JUMPI RETURNDATASIZE PUSH1 0x0 DUP1 RETURNDATACOPY RETURNDATASIZE PUSH1 0x0 REVERT JUMPDEST POP POP POP POP PUSH1 0x40 MLOAD RETURNDATASIZE PUSH1 0x1F NOT PUSH1 0x1F DUP3 ADD AND DUP3 ADD DUP1 PUSH1 0x40 MSTORE POP DUP2 ADD SWAP1 PUSH2 0x16F7 SWAP2 SWAP1 PUSH2 0x1EFA JUMP JUMPDEST SWAP1 POP DUP1 PUSH2 0x173D JUMPI CALLER DUP4 PUSH1 0x40 MLOAD PUSH32 0x29DD36AE00000000000000000000000000000000000000000000000000000000 DUP2 MSTORE PUSH1 0x4 ADD PUSH2 0x1734 SWAP3 SWAP2 SWAP1 PUSH2 0x1F27 JUMP JUMPDEST PUSH1 0x40 MLOAD DUP1 SWAP2 SUB SWAP1 REVERT JUMPDEST POP POP POP POP POP JUMP JUMPDEST PUSH2 0x1773 DUP3 PUSH1 0x9 PUSH1 0x0 SWAP1 SLOAD SWAP1 PUSH2 0x100 EXP SWAP1 DIV PUSH20 0xFFFFFFFFFFFFFFFFFFFFFFFFFFFFFFFFFFFFFFFF AND DUP4 PUSH1 0x5 PUSH2 0x166E JUMP JUMPDEST PUSH2 0x17A2 DUP3 PUSH1 0xA PUSH1 0x0 SWAP1 SLOAD SWAP1 PUSH2 0x100 EXP SWAP1 DIV PUSH20 0xFFFFFFFFFFFFFFFFFFFFFFFFFFFFFFFFFFFFFFFF AND DUP4 PUSH1 0x5 PUSH2 0x166E JUMP JUMPDEST POP POP JUMP JUMPDEST PUSH1 0x2 PUSH1 0x1 SWAP1 SLOAD SWAP1 PUSH2 0x100 EXP SWAP1 DIV PUSH20 0xFFFFFFFFFFFFFFFFFFFFFFFFFFFFFFFFFFFFFFFF AND PUSH20 0xFFFFFFFFFFFFFFFFFFFFFFFFFFFFFFFFFFFFFFFF AND PUSH4 0xCB7E4ED8 DUP5 PUSH2 0x17EF DUP6 DUP6 PUSH2 0x1976 JUMP JUMPDEST PUSH1 0x40 MLOAD DUP4 PUSH4 0xFFFFFFFF AND PUSH1 0xE0 SHL DUP2 MSTORE PUSH1 0x4 ADD PUSH2 0x180C SWAP3 SWAP2 SWAP1 PUSH2 0x1F27 JUMP JUMPDEST PUSH1 0x20 PUSH1 0x40 MLOAD DUP1 DUP4 SUB DUP2 PUSH1 0x0 DUP8 GAS CALL ISZERO DUP1 ISZERO PUSH2 0x182B JUMPI RETURNDATASIZE PUSH1 0x0 DUP1 RETURNDATACOPY RETURNDATASIZE PUSH1 0x0 REVERT JUMPDEST POP POP POP POP PUSH1 0x40 MLOAD RETURNDATASIZE PUSH1 0x1F NOT PUSH1 0x1F DUP3 ADD AND DUP3 ADD DUP1 PUSH1 0x40 MSTORE POP DUP2 ADD SWAP1 PUSH2 0x184F SWAP2 SWAP1 PUSH2 0x1EFA JUMP JUMPDEST PUSH2 0x188E JUMPI PUSH1 0x40 MLOAD PUSH32 0x8C379A000000000000000000000000000000000000000000000000000000000 DUP2 MSTORE PUSH1 0x4 ADD PUSH2 0x1885 SWAP1 PUSH2 0x2055 JUMP JUMPDEST PUSH1 0x40 MLOAD DUP1 SWAP2 SUB SWAP1 REVERT JUMPDEST POP POP POP JUMP JUMPDEST PUSH2 0x18C1 PUSH1 0x9 PUSH1 0x0 SWAP1 SLOAD SWAP1 PUSH2 0x100 EXP SWAP1 DIV PUSH20 0xFFFFFFFFFFFFFFFFFFFFFFFFFFFFFFFFFFFFFFFF AND DUP3 PUSH1 0x5 PUSH2 0x17A6 JUMP JUMPDEST PUSH2 0x18EF PUSH1 0xA PUSH1 0x0 SWAP1 SLOAD SWAP1 PUSH2 0x100 EXP SWAP1 DIV PUSH20 0xFFFFFFFFFFFFFFFFFFFFFFFFFFFFFFFFFFFFFFFF AND DUP3 PUSH1 0x5 PUSH2 0x17A6 JUMP JUMPDEST POP JUMP JUMPDEST DUP1 PUSH1 0xB PUSH1 0x0 CALLER PUSH20 0xFFFFFFFFFFFFFFFFFFFFFFFFFFFFFFFFFFFFFFFF AND PUSH20 0xFFFFFFFFFFFFFFFFFFFFFFFFFFFFFFFFFFFFFFFF AND DUP2 MSTORE PUSH1 0x20 ADD SWAP1 DUP2 MSTORE PUSH1 0x20 ADD PUSH1 0x0 KECCAK256 PUSH1 0x0 ADD PUSH1 0x0 PUSH2 0x100 EXP DUP2 SLOAD DUP2 PUSH20 0xFFFFFFFFFFFFFFFFFFFFFFFFFFFFFFFFFFFFFFFF MUL NOT AND SWAP1 DUP4 PUSH20 0xFFFFFFFFFFFFFFFFFFFFFFFFFFFFFFFFFFFFFFFF AND MUL OR SWAP1 SSTORE POP POP JUMP JUMPDEST PUSH1 0x0 PUSH1 0x64 PUSH1 0xFF AND DUP3 PUSH1 0xFF AND DUP5 PUSH2 0x198C SWAP2 SWAP1 PUSH2 0x1E55 JUMP JUMPDEST PUSH2 0x1996 SWAP2 SWAP1 PUSH2 0x1FD8 JUMP JUMPDEST SWAP1 POP SWAP3 SWAP2 POP POP JUMP JUMPDEST PUSH1 0x0 DUP1 REVERT JUMPDEST PUSH1 0x0 PUSH20 0xFFFFFFFFFFFFFFFFFFFFFFFFFFFFFFFFFFFFFFFF DUP3 AND SWAP1 POP SWAP2 SWAP1 POP JUMP JUMPDEST PUSH1 0x0 PUSH2 0x19CE DUP3 PUSH2 0x19A3 JUMP JUMPDEST SWAP1 POP SWAP2 SWAP1 POP JUMP JUMPDEST PUSH2 0x19DE DUP2 PUSH2 0x19C3 JUMP JUMPDEST DUP2 EQ PUSH2 0x19E9 JUMPI PUSH1 0x0 DUP1 REVERT JUMPDEST POP JUMP JUMPDEST PUSH1 0x0 DUP2 CALLDATALOAD SWAP1 POP PUSH2 0x19FB DUP2 PUSH2 0x19D5 JUMP JUMPDEST SWAP3 SWAP2 POP POP JUMP JUMPDEST PUSH1 0x0 PUSH1 0x20 DUP3 DUP5 SUB SLT ISZERO PUSH2 0x1A17 JUMPI PUSH2 0x1A16 PUSH2 0x199E JUMP JUMPDEST JUMPDEST PUSH1 0x0 PUSH2 0x1A25 DUP5 DUP3 DUP6 ADD PUSH2 0x19EC JUMP JUMPDEST SWAP2 POP POP SWAP3 SWAP2 POP POP JUMP JUMPDEST PUSH1 0x0 DUP2 SWAP1 POP SWAP2 SWAP1 POP JUMP JUMPDEST PUSH2 0x1A41 DUP2 PUSH2 0x1A2E JUMP JUMPDEST DUP2 EQ PUSH2 0x1A4C JUMPI PUSH1 0x0 DUP1 REVERT JUMPDEST POP JUMP JUMPDEST PUSH1 0x0 DUP2 CALLDATALOAD SWAP1 POP PUSH2 0x1A5E DUP2 PUSH2 0x1A38 JUMP JUMPDEST SWAP3 SWAP2 POP POP JUMP JUMPDEST PUSH1 0x0 DUP1 PUSH1 0x40 DUP4 DUP6 SUB SLT ISZERO PUSH2 0x1A7B JUMPI PUSH2 0x1A7A PUSH2 0x199E JUMP JUMPDEST JUMPDEST PUSH1 0x0 PUSH2 0x1A89 DUP6 DUP3 DUP7 ADD PUSH2 0x1A4F JUMP JUMPDEST SWAP3 POP POP PUSH1 0x20 PUSH2 0x1A9A DUP6 DUP3 DUP7 ADD PUSH2 0x1A4F JUMP JUMPDEST SWAP2 POP POP SWAP3 POP SWAP3 SWAP1 POP JUMP JUMPDEST PUSH1 0x0 DUP1 PUSH1 0x0 DUP1 PUSH1 0x0 DUP1 PUSH1 0x0 DUP1 PUSH1 0x0 DUP1 PUSH2 0x140 DUP12 DUP14 SUB SLT ISZERO PUSH2 0x1AC8 JUMPI PUSH2 0x1AC7 PUSH2 0x199E JUMP JUMPDEST JUMPDEST PUSH1 0x0 PUSH2 0x1AD6 DUP14 DUP3 DUP15 ADD PUSH2 0x19EC JUMP JUMPDEST SWAP11 POP POP PUSH1 0x20 PUSH2 0x1AE7 DUP14 DUP3 DUP15 ADD PUSH2 0x19EC JUMP JUMPDEST SWAP10 POP POP PUSH1 0x40 PUSH2 0x1AF8 DUP14 DUP3 DUP15 ADD PUSH2 0x19EC JUMP JUMPDEST SWAP9 POP POP PUSH1 0x60 PUSH2 0x1B09 DUP14 DUP3 DUP15 ADD PUSH2 0x19EC JUMP JUMPDEST SWAP8 POP POP PUSH1 0x80 PUSH2 0x1B1A DUP14 DUP3 DUP15 ADD PUSH2 0x19EC JUMP JUMPDEST SWAP7 POP POP PUSH1 0xA0 PUSH2 0x1B2B DUP14 DUP3 DUP15 ADD PUSH2 0x19EC JUMP JUMPDEST SWAP6 POP POP PUSH1 0xC0 PUSH2 0x1B3C DUP14 DUP3 DUP15 ADD PUSH2 0x19EC JUMP JUMPDEST SWAP5 POP POP PUSH1 0xE0 PUSH2 0x1B4D DUP14 DUP3 DUP15 ADD PUSH2 0x19EC JUMP JUMPDEST SWAP4 POP POP PUSH2 0x100 PUSH2 0x1B5F DUP14 DUP3 DUP15 ADD PUSH2 0x1A4F JUMP JUMPDEST SWAP3 POP POP PUSH2 0x120 PUSH2 0x1B71 DUP14 DUP3 DUP15 ADD PUSH2 0x1A4F JUMP JUMPDEST SWAP2 POP POP SWAP3 SWAP6 SWAP9 SWAP12 SWAP2 SWAP5 SWAP8 SWAP11 POP SWAP3 SWAP6 SWAP9 POP JUMP JUMPDEST PUSH2 0x1B8C DUP2 PUSH2 0x19C3 JUMP JUMPDEST DUP3 MSTORE POP POP JUMP JUMPDEST PUSH1 0x0 PUSH1 0x20 DUP3 ADD SWAP1 POP PUSH2 0x1BA7 PUSH1 0x0 DUP4 ADD DUP5 PUSH2 0x1B83 JUMP JUMPDEST SWAP3 SWAP2 POP POP JUMP JUMPDEST PUSH1 0x0 DUP1 PUSH1 0x40 DUP4 DUP6 SUB SLT ISZERO PUSH2 0x1BC4 JUMPI PUSH2 0x1BC3 PUSH2 0x199E JUMP JUMPDEST JUMPDEST PUSH1 0x0 PUSH2 0x1BD2 DUP6 DUP3 DUP7 ADD PUSH2 0x1A4F JUMP JUMPDEST SWAP3 POP POP PUSH1 0x20 PUSH2 0x1BE3 DUP6 DUP3 DUP7 ADD PUSH2 0x19EC JUMP JUMPDEST SWAP2 POP POP SWAP3 POP SWAP3 SWAP1 POP JUMP JUMPDEST PUSH1 0x0 DUP2 ISZERO ISZERO SWAP1 POP SWAP2 SWAP1 POP JUMP JUMPDEST PUSH2 0x1C02 DUP2 PUSH2 0x1BED JUMP JUMPDEST DUP3 MSTORE POP POP JUMP JUMPDEST PUSH1 0x0 PUSH1 0x20 DUP3 ADD SWAP1 POP PUSH2 0x1C1D PUSH1 0x0 DUP4 ADD DUP5 PUSH2 0x1BF9 JUMP JUMPDEST SWAP3 SWAP2 POP POP JUMP JUMPDEST PUSH2 0x1C2C DUP2 PUSH2 0x1A2E JUMP JUMPDEST DUP3 MSTORE POP POP JUMP JUMPDEST PUSH1 0x0 PUSH1 0x20 DUP3 ADD SWAP1 POP PUSH2 0x1C47 PUSH1 0x0 DUP4 ADD DUP5 PUSH2 0x1C23 JUMP JUMPDEST SWAP3 SWAP2 POP POP JUMP JUMPDEST PUSH1 0x0 DUP3 DUP3 MSTORE PUSH1 0x20 DUP3 ADD SWAP1 POP SWAP3 SWAP2 POP POP JUMP JUMPDEST PUSH32 0x496E697469616C697A61626C653A20636F6E747261637420697320616C726561 PUSH1 0x0 DUP3 ADD MSTORE PUSH32 0x647920696E697469616C697A6564000000000000000000000000000000000000 PUSH1 0x20 DUP3 ADD MSTORE POP JUMP JUMPDEST PUSH1 0x0 PUSH2 0x1CBA PUSH1 0x2E DUP4 PUSH2 0x1C4D JUMP JUMPDEST SWAP2 POP PUSH2 0x1CC5 DUP3 PUSH2 0x1C5E JUMP JUMPDEST PUSH1 0x40 DUP3 ADD SWAP1 POP SWAP2 SWAP1 POP JUMP JUMPDEST PUSH1 0x0 PUSH1 0x20 DUP3 ADD SWAP1 POP DUP2 DUP2 SUB PUSH1 0x0 DUP4 ADD MSTORE PUSH2 0x1CE9 DUP2 PUSH2 0x1CAD JUMP JUMPDEST SWAP1 POP SWAP2 SWAP1 POP JUMP JUMPDEST PUSH1 0x0 DUP2 SWAP1 POP SWAP2 SWAP1 POP JUMP JUMPDEST PUSH1 0x0 PUSH1 0xFF DUP3 AND SWAP1 POP SWAP2 SWAP1 POP JUMP JUMPDEST PUSH1 0x0 DUP2 SWAP1 POP SWAP2 SWAP1 POP JUMP JUMPDEST PUSH1 0x0 PUSH2 0x1D2C PUSH2 0x1D27 PUSH2 0x1D22 DUP5 PUSH2 0x1CF0 JUMP JUMPDEST PUSH2 0x1D07 JUMP JUMPDEST PUSH2 0x1CFA JUMP JUMPDEST SWAP1 POP SWAP2 SWAP1 POP JUMP JUMPDEST PUSH2 0x1D3C DUP2 PUSH2 0x1D11 JUMP JUMPDEST DUP3 MSTORE POP POP JUMP JUMPDEST PUSH1 0x0 PUSH1 0x20 DUP3 ADD SWAP1 POP PUSH2 0x1D57 PUSH1 0x0 DUP4 ADD DUP5 PUSH2 0x1D33 JUMP JUMPDEST SWAP3 SWAP2 POP POP JUMP JUMPDEST PUSH1 0x0 PUSH1 0x60 DUP3 ADD SWAP1 POP PUSH2 0x1D72 PUSH1 0x0 DUP4 ADD DUP7 PUSH2 0x1B83 JUMP JUMPDEST PUSH2 0x1D7F PUSH1 0x20 DUP4 ADD DUP6 PUSH2 0x1C23 JUMP JUMPDEST PUSH2 0x1D8C PUSH1 0x40 DUP4 ADD DUP5 PUSH2 0x1C23 JUMP JUMPDEST SWAP5 SWAP4 POP POP POP POP JUMP JUMPDEST PUSH32 0x496E697469616C697A61626C653A20636F6E7472616374206973206E6F742069 PUSH1 0x0 DUP3 ADD MSTORE PUSH32 0x6E697469616C697A696E67000000000000000000000000000000000000000000 PUSH1 0x20 DUP3 ADD MSTORE POP JUMP JUMPDEST PUSH1 0x0 PUSH2 0x1DF0 PUSH1 0x2B DUP4 PUSH2 0x1C4D JUMP JUMPDEST SWAP2 POP PUSH2 0x1DFB DUP3 PUSH2 0x1D94 JUMP JUMPDEST PUSH1 0x40 DUP3 ADD SWAP1 POP SWAP2 SWAP1 POP JUMP JUMPDEST PUSH1 0x0 PUSH1 0x20 DUP3 ADD SWAP1 POP DUP2 DUP2 SUB PUSH1 0x0 DUP4 ADD MSTORE PUSH2 0x1E1F DUP2 PUSH2 0x1DE3 JUMP JUMPDEST SWAP1 POP SWAP2 SWAP1 POP JUMP JUMPDEST PUSH32 0x4E487B7100000000000000000000000000000000000000000000000000000000 PUSH1 0x0 MSTORE PUSH1 0x11 PUSH1 0x4 MSTORE PUSH1 0x24 PUSH1 0x0 REVERT JUMPDEST PUSH1 0x0 PUSH2 0x1E60 DUP3 PUSH2 0x1A2E JUMP JUMPDEST SWAP2 POP PUSH2 0x1E6B DUP4 PUSH2 0x1A2E JUMP JUMPDEST SWAP3 POP DUP3 DUP3 MUL PUSH2 0x1E79 DUP2 PUSH2 0x1A2E JUMP JUMPDEST SWAP2 POP DUP3 DUP3 DIV DUP5 EQ DUP4 ISZERO OR PUSH2 0x1E90 JUMPI PUSH2 0x1E8F PUSH2 0x1E26 JUMP JUMPDEST JUMPDEST POP SWAP3 SWAP2 POP POP JUMP JUMPDEST PUSH1 0x0 PUSH1 0x60 DUP3 ADD SWAP1 POP PUSH2 0x1EAC PUSH1 0x0 DUP4 ADD DUP7 PUSH2 0x1B83 JUMP JUMPDEST PUSH2 0x1EB9 PUSH1 0x20 DUP4 ADD DUP6 PUSH2 0x1B83 JUMP JUMPDEST PUSH2 0x1EC6 PUSH1 0x40 DUP4 ADD DUP5 PUSH2 0x1C23 JUMP JUMPDEST SWAP5 SWAP4 POP POP POP POP JUMP JUMPDEST PUSH2 0x1ED7 DUP2 PUSH2 0x1BED JUMP JUMPDEST DUP2 EQ PUSH2 0x1EE2 JUMPI PUSH1 0x0 DUP1 REVERT JUMPDEST POP JUMP JUMPDEST PUSH1 0x0 DUP2 MLOAD SWAP1 POP PUSH2 0x1EF4 DUP2 PUSH2 0x1ECE JUMP JUMPDEST SWAP3 SWAP2 POP POP JUMP JUMPDEST PUSH1 0x0 PUSH1 0x20 DUP3 DUP5 SUB SLT ISZERO PUSH2 0x1F10 JUMPI PUSH2 0x1F0F PUSH2 0x199E JUMP JUMPDEST JUMPDEST PUSH1 0x0 PUSH2 0x1F1E DUP5 DUP3 DUP6 ADD PUSH2 0x1EE5 JUMP JUMPDEST SWAP2 POP POP SWAP3 SWAP2 POP POP JUMP JUMPDEST PUSH1 0x0 PUSH1 0x40 DUP3 ADD SWAP1 POP PUSH2 0x1F3C PUSH1 0x0 DUP4 ADD DUP6 PUSH2 0x1B83 JUMP JUMPDEST PUSH2 0x1F49 PUSH1 0x20 DUP4 ADD DUP5 PUSH2 0x1C23 JUMP JUMPDEST SWAP4 SWAP3 POP POP POP JUMP JUMPDEST PUSH2 0x1F59 DUP2 PUSH2 0x1CFA JUMP JUMPDEST DUP2 EQ PUSH2 0x1F64 JUMPI PUSH1 0x0 DUP1 REVERT JUMPDEST POP JUMP JUMPDEST PUSH1 0x0 DUP2 MLOAD SWAP1 POP PUSH2 0x1F76 DUP2 PUSH2 0x1F50 JUMP JUMPDEST SWAP3 SWAP2 POP POP JUMP JUMPDEST PUSH1 0x0 PUSH1 0x20 DUP3 DUP5 SUB SLT ISZERO PUSH2 0x1F92 JUMPI PUSH2 0x1F91 PUSH2 0x199E JUMP JUMPDEST JUMPDEST PUSH1 0x0 PUSH2 0x1FA0 DUP5 DUP3 DUP6 ADD PUSH2 0x1F67 JUMP JUMPDEST SWAP2 POP POP SWAP3 SWAP2 POP POP JUMP JUMPDEST PUSH32 0x4E487B7100000000000000000000000000000000000000000000000000000000 PUSH1 0x0 MSTORE PUSH1 0x12 PUSH1 0x4 MSTORE PUSH1 0x24 PUSH1 0x0 REVERT JUMPDEST PUSH1 0x0 PUSH2 0x1FE3 DUP3 PUSH2 0x1A2E JUMP JUMPDEST SWAP2 POP PUSH2 0x1FEE DUP4 PUSH2 0x1A2E JUMP JUMPDEST SWAP3 POP DUP3 PUSH2 0x1FFE JUMPI PUSH2 0x1FFD PUSH2 0x1FA9 JUMP JUMPDEST JUMPDEST DUP3 DUP3 DIV SWAP1 POP SWAP3 SWAP2 POP POP JUMP JUMPDEST PUSH32 0x456D616E6149434F3A205472616E7366657220456D616E61206661696C656400 PUSH1 0x0 DUP3 ADD MSTORE POP JUMP JUMPDEST PUSH1 0x0 PUSH2 0x203F PUSH1 0x1F DUP4 PUSH2 0x1C4D JUMP JUMPDEST SWAP2 POP PUSH2 0x204A DUP3 PUSH2 0x2009 JUMP JUMPDEST PUSH1 0x20 DUP3 ADD SWAP1 POP SWAP2 SWAP1 POP JUMP JUMPDEST PUSH1 0x0 PUSH1 0x20 DUP3 ADD SWAP1 POP DUP2 DUP2 SUB PUSH1 0x0 DUP4 ADD MSTORE PUSH2 0x206E DUP2 PUSH2 0x2032 JUMP JUMPDEST SWAP1 POP SWAP2 SWAP1 POP JUMP INVALID LOG2 PUSH5 0x6970667358 0x22 SLT KECCAK256 0x5F 0x49 0xB4 0xA8 DUP10 STOP LOG3 0xC4 0x23 PUSH5 0xFD1B04682D DUP13 0xD7 0xDE 0xC8 DUP5 PUSH25 0x265A088EF0F37A41DC3EB364736F6C63430008130033000000 "},"methodIdentifiers":{"grantGovernance(address)":"b1fd0807","initialize(address,address,address,address,address,address,address,address,uint256,uint256)":"15a8435f","isGovernor(address)":"e43581b8","isPaused()":"b187bd26","liquidity()":"1a686502","operation_1()":"238455c9","operation_2()":"f8fc6a5a","owner()":"8da5cb5b","pause()":"8456cb59","project()":"f60ca60d","purchaseUsingBusd(uint256,address)":"ac2ed7a5","purchaseUsingDai(uint256,address)":"a3ff6a69","purchaseUsingUsdt(uint256,address)":"60c4376d","revokeGovernance(address)":"04dcd58d","totalRaised()":"c5c4744c","transferOwnership(address)":"f2fde38b","tweakSettings(uint256,uint256)":"0d0c5c9e","unpause()":"3f4ba83a"}},"storageLayout":{"storage":[{"astId":6,"contract":"contracts/EmanaICO.sol:EmanaICO","label":"_initialized","offset":0,"slot":"0","type":"t_uint8"},{"astId":9,"contract":"contracts/EmanaICO.sol:EmanaICO","label":"_initializing","offset":1,"slot":"0","type":"t_bool"},{"astId":2081,"contract":"contracts/EmanaICO.sol:EmanaICO","label":"_owner","offset":2,"slot":"0","type":"t_address"},{"astId":2085,"contract":"contracts/EmanaICO.sol:EmanaICO","label":"_isGovernor","offset":0,"slot":"1","type":"t_mapping(t_address,t_bool)"},{"astId":2269,"contract":"contracts/EmanaICO.sol:EmanaICO","label":"_paused","offset":0,"slot":"2","type":"t_bool"},{"astId":1154,"contract":"contracts/EmanaICO.sol:EmanaICO","label":"emana","offset":1,"slot":"2","type":"t_contract(IEmana)2056"},{"astId":1157,"contract":"contracts/EmanaICO.sol:EmanaICO","label":"busd","offset":0,"slot":"3","type":"t_contract(IBEP20)1971"},{"astId":1160,"contract":"contracts/EmanaICO.sol:EmanaICO","label":"usdt","offset":0,"slot":"4","type":"t_contract(IBEP20)1971"},{"astId":1163,"contract":"contracts/EmanaICO.sol:EmanaICO","label":"dai","offset":0,"slot":"5","type":"t_contract(IBEP20)1971"},{"astId":1165,"contract":"contracts/EmanaICO.sol:EmanaICO","label":"totalRaised","offset":0,"slot":"6","type":"t_uint256"},{"astId":1167,"contract":"contracts/EmanaICO.sol:EmanaICO","label":"liquidity","offset":0,"slot":"7","type":"t_address"},{"astId":1169,"contract":"contracts/EmanaICO.sol:EmanaICO","label":"project","offset":0,"slot":"8","type":"t_address"},{"astId":1171,"contract":"contracts/EmanaICO.sol:EmanaICO","label":"operation_1","offset":0,"slot":"9","type":"t_address"},{"astId":1173,"contract":"contracts/EmanaICO.sol:EmanaICO","label":"operation_2","offset":0,"slot":"10","type":"t_address"},{"astId":1181,"contract":"contracts/EmanaICO.sol:EmanaICO","label":"_referrals","offset":0,"slot":"11","type":"t_mapping(t_address,t_struct(Refer_Info)1176_storage)"},{"astId":1183,"contract":"contracts/EmanaICO.sol:EmanaICO","label":"minPurchaseInUsd","offset":0,"slot":"12","type":"t_uint256"},{"astId":1185,"contract":"contracts/EmanaICO.sol:EmanaICO","label":"emanaPerUsd","offset":0,"slot":"13","type":"t_uint256"},{"astId":1881,"contract":"contracts/EmanaICO.sol:EmanaICO","label":"__gap","offset":0,"slot":"14","type":"t_array(t_uint256)40_storage"}],"types":{"t_address":{"encoding":"inplace","label":"address","numberOfBytes":"20"},"t_array(t_uint256)40_storage":{"base":"t_uint256","encoding":"inplace","label":"uint256[40]","numberOfBytes":"1280"},"t_bool":{"encoding":"inplace","label":"bool","numberOfBytes":"1"},"t_contract(IBEP20)1971":{"encoding":"inplace","label":"contract IBEP20","numberOfBytes":"20"},"t_contract(IEmana)2056":{"encoding":"inplace","label":"contract IEmana","numberOfBytes":"20"},"t_mapping(t_address,t_bool)":{"encoding":"mapping","key":"t_address","label":"mapping(address => bool)","numberOfBytes":"32","value":"t_bool"},"t_mapping(t_address,t_struct(Refer_Info)1176_storage)":{"encoding":"mapping","key":"t_address","label":"mapping(address => struct EmanaICO.Refer_Info)","numberOfBytes":"32","value":"t_struct(Refer_Info)1176_storage"},"t_struct(Refer_Info)1176_storage":{"encoding":"inplace","label":"struct EmanaICO.Refer_Info","members":[{"astId":1175,"contract":"contracts/EmanaICO.sol:EmanaICO","label":"referredBy","offset":0,"slot":"0","type":"t_address"}],"numberOfBytes":"32"},"t_uint256":{"encoding":"inplace","label":"uint256","numberOfBytes":"32"},"t_uint8":{"encoding":"inplace","label":"uint8","numberOfBytes":"1"}}}}}}