{"contracts/Emana.sol":{"Emana":{"abi":[{"inputs":[],"stateMutability":"nonpayable","type":"constructor"},{"inputs":[{"internalType":"address","name":"spender","type":"address"},{"internalType":"uint256","name":"currentAllowance","type":"uint256"},{"internalType":"uint256","name":"requestedDecrease","type":"uint256"}],"name":"ERC20FailedDecreaseAllowance","type":"error"},{"inputs":[{"internalType":"address","name":"spender","type":"address"},{"internalType":"uint256","name":"allowance","type":"uint256"},{"internalType":"uint256","name":"needed","type":"uint256"}],"name":"ERC20InsufficientAllowance","type":"error"},{"inputs":[{"internalType":"address","name":"sender","type":"address"},{"internalType":"uint256","name":"balance","type":"uint256"},{"internalType":"uint256","name":"needed","type":"uint256"}],"name":"ERC20InsufficientBalance","type":"error"},{"inputs":[{"internalType":"address","name":"account","type":"address"},{"internalType":"uint256","name":"balance","type":"uint256"},{"internalType":"uint256","name":"needed","type":"uint256"}],"name":"ERC20InsufficientBalanceForBurn","type":"error"},{"inputs":[{"internalType":"address","name":"approver","type":"address"}],"name":"ERC20InvalidApprover","type":"error"},{"inputs":[{"internalType":"address","name":"receiver","type":"address"}],"name":"ERC20InvalidReceiver","type":"error"},{"inputs":[{"internalType":"address","name":"sender","type":"address"}],"name":"ERC20InvalidSender","type":"error"},{"inputs":[{"internalType":"address","name":"spender","type":"address"}],"name":"ERC20InvalidSpender","type":"error"},{"inputs":[{"internalType":"address","name":"account","type":"address"}],"name":"InvalidAddress","type":"error"},{"inputs":[],"name":"PausedStateRequired","type":"error"},{"inputs":[{"internalType":"address","name":"account","type":"address"}],"name":"UnauthorizedAccount","type":"error"},{"inputs":[],"name":"UnpausedStateRequired","type":"error"},{"anonymous":false,"inputs":[{"indexed":true,"internalType":"address","name":"owner","type":"address"},{"indexed":true,"internalType":"address","name":"spender","type":"address"},{"indexed":false,"internalType":"uint256","name":"value","type":"uint256"}],"name":"Approval","type":"event"},{"anonymous":false,"inputs":[{"indexed":false,"internalType":"uint8","name":"version","type":"uint8"}],"name":"Initialized","type":"event"},{"anonymous":false,"inputs":[{"indexed":true,"internalType":"address","name":"previousOwner","type":"address"},{"indexed":true,"internalType":"address","name":"newOwner","type":"address"}],"name":"OwnershipTransferred","type":"event"},{"anonymous":false,"inputs":[{"indexed":false,"internalType":"address","name":"account","type":"address"}],"name":"Paused","type":"event"},{"anonymous":false,"inputs":[{"indexed":true,"internalType":"address","name":"from","type":"address"},{"indexed":true,"internalType":"address","name":"to","type":"address"},{"indexed":false,"internalType":"uint256","name":"value","type":"uint256"}],"name":"Transfer","type":"event"},{"anonymous":false,"inputs":[{"indexed":false,"internalType":"address","name":"account","type":"address"}],"name":"Unpaused","type":"event"},{"inputs":[{"internalType":"address","name":"owner","type":"address"},{"internalType":"address","name":"spender","type":"address"}],"name":"allowance","outputs":[{"internalType":"uint256","name":"","type":"uint256"}],"stateMutability":"view","type":"function"},{"inputs":[{"internalType":"address","name":"spender","type":"address"},{"internalType":"uint256","name":"amount","type":"uint256"}],"name":"approve","outputs":[{"internalType":"bool","name":"","type":"bool"}],"stateMutability":"nonpayable","type":"function"},{"inputs":[{"internalType":"address","name":"account","type":"address"}],"name":"balanceOf","outputs":[{"internalType":"uint256","name":"","type":"uint256"}],"stateMutability":"view","type":"function"},{"inputs":[{"internalType":"uint256","name":"amount","type":"uint256"}],"name":"burn","outputs":[{"internalType":"bool","name":"","type":"bool"}],"stateMutability":"nonpayable","type":"function"},{"inputs":[],"name":"decimals","outputs":[{"internalType":"uint8","name":"","type":"uint8"}],"stateMutability":"view","type":"function"},{"inputs":[{"internalType":"address","name":"spender","type":"address"},{"internalType":"uint256","name":"subtractedValue","type":"uint256"}],"name":"decreaseAllowance","outputs":[{"internalType":"bool","name":"","type":"bool"}],"stateMutability":"nonpayable","type":"function"},{"inputs":[],"name":"getOwner","outputs":[{"internalType":"address","name":"","type":"address"}],"stateMutability":"view","type":"function"},{"inputs":[{"internalType":"address","name":"to","type":"address"},{"internalType":"uint256","name":"amount","type":"uint256"}],"name":"governanceTransfer","outputs":[{"internalType":"bool","name":"","type":"bool"}],"stateMutability":"nonpayable","type":"function"},{"inputs":[{"internalType":"address","name":"from","type":"address"},{"internalType":"address","name":"to","type":"address"},{"internalType":"uint256","name":"amount","type":"uint256"}],"name":"governanceTransferFrom","outputs":[{"internalType":"bool","name":"","type":"bool"}],"stateMutability":"nonpayable","type":"function"},{"inputs":[{"internalType":"address","name":"governor","type":"address"}],"name":"grantGovernance","outputs":[],"stateMutability":"nonpayable","type":"function"},{"inputs":[{"internalType":"address","name":"spender","type":"address"},{"internalType":"uint256","name":"addedValue","type":"uint256"}],"name":"increaseAllowance","outputs":[{"internalType":"bool","name":"","type":"bool"}],"stateMutability":"nonpayable","type":"function"},{"inputs":[],"name":"initialize","outputs":[],"stateMutability":"nonpayable","type":"function"},{"inputs":[{"internalType":"address","name":"addr","type":"address"}],"name":"isGovernor","outputs":[{"internalType":"bool","name":"","type":"bool"}],"stateMutability":"view","type":"function"},{"inputs":[],"name":"isPaused","outputs":[{"internalType":"bool","name":"","type":"bool"}],"stateMutability":"view","type":"function"},{"inputs":[{"internalType":"uint256","name":"amount","type":"uint256"}],"name":"mint","outputs":[{"internalType":"bool","name":"","type":"bool"}],"stateMutability":"nonpayable","type":"function"},{"inputs":[],"name":"name","outputs":[{"internalType":"string","name":"","type":"string"}],"stateMutability":"view","type":"function"},{"inputs":[],"name":"owner","outputs":[{"internalType":"address","name":"","type":"address"}],"stateMutability":"view","type":"function"},{"inputs":[],"name":"pause","outputs":[],"stateMutability":"nonpayable","type":"function"},{"inputs":[{"internalType":"address","name":"governor","type":"address"}],"name":"revokeGovernance","outputs":[],"stateMutability":"nonpayable","type":"function"},{"inputs":[],"name":"symbol","outputs":[{"internalType":"string","name":"","type":"string"}],"stateMutability":"view","type":"function"},{"inputs":[],"name":"totalSupply","outputs":[{"internalType":"uint256","name":"","type":"uint256"}],"stateMutability":"view","type":"function"},{"inputs":[{"internalType":"address","name":"to","type":"address"},{"internalType":"uint256","name":"amount","type":"uint256"}],"name":"transfer","outputs":[{"internalType":"bool","name":"","type":"bool"}],"stateMutability":"nonpayable","type":"function"},{"inputs":[{"internalType":"address","name":"from","type":"address"},{"internalType":"address","name":"to","type":"address"},{"internalType":"uint256","name":"amount","type":"uint256"}],"name":"transferFrom","outputs":[{"internalType":"bool","name":"","type":"bool"}],"stateMutability":"nonpayable","type":"function"},{"inputs":[{"internalType":"address","name":"newOwner","type":"address"}],"name":"transferOwnership","outputs":[],"stateMutability":"nonpayable","type":"function"},{"inputs":[],"name":"unpause","outputs":[],"stateMutability":"nonpayable","type":"function"}],"evm":{"bytecode":{"linkReferences":{},"object":"60806040523480156200001157600080fd5b50620000226200002860201b60201c565b620001d2565b600060019054906101000a900460ff16156200007b576040517f08c379a0000000000000000000000000000000000000000000000000000000008152600401620000729062000175565b60405180910390fd5b60ff801660008054906101000a900460ff1660ff1614620000ec5760ff6000806101000a81548160ff021916908360ff1602179055507f7f26b83ff96e1f2b6a682f133852f6798a09c465da95921460cefb384740249860ff604051620000e39190620001b5565b60405180910390a15b565b600082825260208201905092915050565b7f496e697469616c697a61626c653a20636f6e747261637420697320696e69746960008201527f616c697a696e6700000000000000000000000000000000000000000000000000602082015250565b60006200015d602783620000ee565b91506200016a82620000ff565b604082019050919050565b6000602082019050818103600083015262000190816200014e565b9050919050565b600060ff82169050919050565b620001af8162000197565b82525050565b6000602082019050620001cc6000830184620001a4565b92915050565b61254080620001e26000396000f3fe608060405234801561001057600080fd5b50600436106101735760003560e01c8063893d20e8116100de578063b187bd2611610097578063cb7e4ed811610071578063cb7e4ed814610450578063dd62ed3e14610480578063e43581b8146104b0578063f2fde38b146104e057610173565b8063b187bd26146103e6578063b1fd080714610404578063c4534a851461042057610173565b8063893d20e8146102fc5780638da5cb5b1461031a57806395d89b4114610338578063a0712d6814610356578063a457c2d714610386578063a9059cbb146103b657610173565b80633950935111610130578063395093511461024e5780633f4ba83a1461027e57806342966c681461028857806370a08231146102b85780638129fc1c146102e85780638456cb59146102f257610173565b806304dcd58d1461017857806306fdde0314610194578063095ea7b3146101b257806318160ddd146101e257806323b872dd14610200578063313ce56714610230575b600080fd5b610192600480360381019061018d9190611d76565b6104fc565b005b61019c61055f565b6040516101a99190611e33565b60405180910390f35b6101cc60048036038101906101c79190611e8b565b610598565b6040516101d99190611ee6565b60405180910390f35b6101ea6105b4565b6040516101f79190611f10565b60405180910390f35b61021a60048036038101906102159190611f2b565b6105ba565b6040516102279190611ee6565b60405180910390f35b6102386105e2565b6040516102459190611f9a565b60405180910390f35b61026860048036038101906102639190611e8b565b6105e7565b6040516102759190611ee6565b60405180910390f35b610286610617565b005b6102a2600480360381019061029d9190611fb5565b6106b1565b6040516102af9190611ee6565b60405180910390f35b6102d260048036038101906102cd9190611d76565b6106d5565b6040516102df9190611f10565b60405180910390f35b6102f061071e565b005b6102fa610947565b005b6103046109e2565b6040516103119190611ff1565b60405180910390f35b610322610a85565b60405161032f9190611ff1565b60405180910390f35b610340610aae565b60405161034d9190611e33565b60405180910390f35b610370600480360381019061036b9190611fb5565b610ae7565b60405161037d9190611ee6565b60405180910390f35b6103a0600480360381019061039b9190611e8b565b610b0b565b6040516103ad9190611ee6565b60405180910390f35b6103d060048036038101906103cb9190611e8b565b610b81565b6040516103dd9190611ee6565b60405180910390f35b6103ee610b9d565b6040516103fb9190611ee6565b60405180910390f35b61041e60048036038101906104199190611d76565b610bb4565b005b61043a60048036038101906104359190611f2b565b610c16565b6040516104479190611ee6565b60405180910390f35b61046a60048036038101906104659190611e8b565b610c36565b6040516104779190611ee6565b60405180910390f35b61049a6004803603810190610495919061200c565b610c5c565b6040516104a79190611f10565b60405180910390f35b6104ca60048036038101906104c59190611d76565b610ce3565b6040516104d79190611ee6565b60405180910390f35b6104fa60048036038101906104f59190611d76565b610d39565b005b610504610e77565b6000600160008373ffffffffffffffffffffffffffffffffffffffff1673ffffffffffffffffffffffffffffffffffffffff16815260200190815260200160002060006101000a81548160ff02191690831515021790555050565b6040518060400160405280600b81526020017f456d616e6120546f6b656e00000000000000000000000000000000000000000081525081565b6000803390506105a9818585610f0b565b600191505092915050565b60055481565b6000803390506105cb858285611117565b6105d68585856111e8565b60019150509392505050565b601281565b60008033905061060c8185856105fd8589610c5c565b610607919061207b565b610f0b565b600191505092915050565b61061f610e77565b610627610b9d565b61065d576040517f092fc71a00000000000000000000000000000000000000000000000000000000815260040160405180910390fd5b6000600260006101000a81548160ff0219169083151502179055507f5db9ee0a495bf2e6ff9c91a7834c1ba4fdd244a5e8aa4e537bd38aeae4b073aa336040516106a79190611ff1565b60405180910390a1565b60006106bb610e77565b6106cc6106c6610a85565b83611494565b60019050919050565b6000600360008373ffffffffffffffffffffffffffffffffffffffff1673ffffffffffffffffffffffffffffffffffffffff168152602001908152602001600020549050919050565b60008060019054906101000a900460ff1615905080801561074f5750600160008054906101000a900460ff1660ff16105b8061077c575061075e30611692565b15801561077b5750600160008054906101000a900460ff1660ff16145b5b6107bb576040517f08c379a00000000000000000000000000000000000000000000000000000000081526004016107b290612121565b60405180910390fd5b60016000806101000a81548160ff021916908360ff16021790555080156107f8576001600060016101000a81548160ff0219169083151502179055505b61083e6040518060400160405280601281526020017f4f776e657220696e20456d616e613a2025730000000000000000000000000000815250610839610a85565b6116b5565b610846611751565b61088c6040518060400160405280601c81526020017f4f776e657220696e20456d616e61206166746572207365743a20257300000000815250610887610a85565b6116b5565b6108946117e3565b6108bd6040518060600160405280602181526020016124ea602191396108b8610a85565b6116b5565b6108eb6108c8610a85565b6012600a6108d69190612274565b6402540be4006108e691906122bf565b61184f565b80156109445760008060016101000a81548160ff0219169083151502179055507f7f26b83ff96e1f2b6a682f133852f6798a09c465da95921460cefb3847402498600160405161093b9190612346565b60405180910390a15b50565b61094f610e77565b610957610b9d565b1561098e576040517f74c90bdc00000000000000000000000000000000000000000000000000000000815260040160405180910390fd5b6001600260006101000a81548160ff0219169083151502179055507f62e78cea01bee320cd4e420270b5ea74000d11b0c9f74754ebdbfc544b05a258336040516109d89190611ff1565b60405180910390a1565b6000610a2a6040518060400160405280601581526020017f4f776e657220696e206765744f776e65723a2025730000000000000000000000815250610a25610a85565b6116b5565b610a786040518060400160405280601781526020017f42616c616e636520696e206765744f776e65723a202573000000000000000000815250610a73610a6e610a85565b6106d5565b6119cf565b610a80610a85565b905090565b60008060029054906101000a900473ffffffffffffffffffffffffffffffffffffffff16905090565b6040518060400160405280600581526020017f454d414e4100000000000000000000000000000000000000000000000000000081525081565b6000610af1610e77565b610b02610afc610a85565b8361184f565b60019050919050565b6000803390506000610b1d8286610c5c565b905083811015610b68578481856040517fa60f030c000000000000000000000000000000000000000000000000000000008152600401610b5f93929190612361565b60405180910390fd5b610b758286868403610f0b565b60019250505092915050565b600080339050610b928185856111e8565b600191505092915050565b6000600260009054906101000a900460ff16905090565b610bbc610e77565b60018060008373ffffffffffffffffffffffffffffffffffffffff1673ffffffffffffffffffffffffffffffffffffffff16815260200190815260200160002060006101000a81548160ff02191690831515021790555050565b6000610c20611a6b565b610c2b8484846111e8565b600190509392505050565b6000610c40611a6b565b610c52610c4b610a85565b84846111e8565b6001905092915050565b6000600460008473ffffffffffffffffffffffffffffffffffffffff1673ffffffffffffffffffffffffffffffffffffffff16815260200190815260200160002060008373ffffffffffffffffffffffffffffffffffffffff1673ffffffffffffffffffffffffffffffffffffffff16815260200190815260200160002054905092915050565b6000600160008373ffffffffffffffffffffffffffffffffffffffff1673ffffffffffffffffffffffffffffffffffffffff16815260200190815260200160002060009054906101000a900460ff169050919050565b610d41610e77565b600073ffffffffffffffffffffffffffffffffffffffff168173ffffffffffffffffffffffffffffffffffffffff1603610db257806040517f8e4c8aa6000000000000000000000000000000000000000000000000000000008152600401610da99190611ff1565b60405180910390fd5b60008060029054906101000a900473ffffffffffffffffffffffffffffffffffffffff16905081600060026101000a81548173ffffffffffffffffffffffffffffffffffffffff021916908373ffffffffffffffffffffffffffffffffffffffff1602179055508173ffffffffffffffffffffffffffffffffffffffff168173ffffffffffffffffffffffffffffffffffffffff167f8be0079c531659141344cd1fd0a4f28419497f9722a3daafe3b4186f6b6457e060405160405180910390a35050565b600060029054906101000a900473ffffffffffffffffffffffffffffffffffffffff1673ffffffffffffffffffffffffffffffffffffffff163373ffffffffffffffffffffffffffffffffffffffff1614610f0957336040517f32b2baa3000000000000000000000000000000000000000000000000000000008152600401610f009190611ff1565b60405180910390fd5b565b610f13610b9d565b15610f4a576040517f74c90bdc00000000000000000000000000000000000000000000000000000000815260040160405180910390fd5b600073ffffffffffffffffffffffffffffffffffffffff168373ffffffffffffffffffffffffffffffffffffffff1603610fbb57826040517fe602df05000000000000000000000000000000000000000000000000000000008152600401610fb29190611ff1565b60405180910390fd5b600073ffffffffffffffffffffffffffffffffffffffff168273ffffffffffffffffffffffffffffffffffffffff160361102c57816040517f94280d620000000000000000000000000000000000000000000000000000000081526004016110239190611ff1565b60405180910390fd5b80600460008573ffffffffffffffffffffffffffffffffffffffff1673ffffffffffffffffffffffffffffffffffffffff16815260200190815260200160002060008473ffffffffffffffffffffffffffffffffffffffff1673ffffffffffffffffffffffffffffffffffffffff168152602001908152602001600020819055508173ffffffffffffffffffffffffffffffffffffffff168373ffffffffffffffffffffffffffffffffffffffff167f8c5be1e5ebec7d5bd14f71427d1e84f3dd0314c0f7b2291e5b200ac8c7c3b9258360405161110a9190611f10565b60405180910390a3505050565b61111f610b9d565b15611156576040517f74c90bdc00000000000000000000000000000000000000000000000000000000815260040160405180910390fd5b60006111628484610c5c565b90507fffffffffffffffffffffffffffffffffffffffffffffffffffffffffffffffff81146111e257818110156111d4578281836040517ffb8f41b20000000000000000000000000000000000000000000000000000000081526004016111cb93929190612361565b60405180910390fd5b6111e18484848403610f0b565b5b50505050565b6111f0610b9d565b15611227576040517f74c90bdc00000000000000000000000000000000000000000000000000000000815260040160405180910390fd5b600073ffffffffffffffffffffffffffffffffffffffff168373ffffffffffffffffffffffffffffffffffffffff160361129857826040517f96c6fd1e00000000000000000000000000000000000000000000000000000000815260040161128f9190611ff1565b60405180910390fd5b600073ffffffffffffffffffffffffffffffffffffffff168273ffffffffffffffffffffffffffffffffffffffff160361130957816040517fec442f050000000000000000000000000000000000000000000000000000000081526004016113009190611ff1565b60405180910390fd5b6000600360008573ffffffffffffffffffffffffffffffffffffffff1673ffffffffffffffffffffffffffffffffffffffff16815260200190815260200160002054905081811015611396578381836040517fe450d38c00000000000000000000000000000000000000000000000000000000815260040161138d93929190612361565b60405180910390fd5b818103600360008673ffffffffffffffffffffffffffffffffffffffff1673ffffffffffffffffffffffffffffffffffffffff1681526020019081526020016000208190555081600360008573ffffffffffffffffffffffffffffffffffffffff1673ffffffffffffffffffffffffffffffffffffffff168152602001908152602001600020600082825401925050819055508273ffffffffffffffffffffffffffffffffffffffff168473ffffffffffffffffffffffffffffffffffffffff167fddf252ad1be2c89b69c2b068fc378daa952ba7f163c4a11628f55a4df523b3ef846040516114869190611f10565b60405180910390a350505050565b61149c610b9d565b156114d3576040517f74c90bdc00000000000000000000000000000000000000000000000000000000815260040160405180910390fd5b600073ffffffffffffffffffffffffffffffffffffffff168273ffffffffffffffffffffffffffffffffffffffff160361154457816040517f96c6fd1e00000000000000000000000000000000000000000000000000000000815260040161153b9190611ff1565b60405180910390fd5b6000600360008473ffffffffffffffffffffffffffffffffffffffff1673ffffffffffffffffffffffffffffffffffffffff168152602001908152602001600020549050818110156115d1578281836040517f355cc7bb0000000000000000000000000000000000000000000000000000000081526004016115c893929190612361565b60405180910390fd5b818103600360008573ffffffffffffffffffffffffffffffffffffffff1673ffffffffffffffffffffffffffffffffffffffff1681526020019081526020016000208190555081600560008282540392505081905550600073ffffffffffffffffffffffffffffffffffffffff168373ffffffffffffffffffffffffffffffffffffffff167fddf252ad1be2c89b69c2b068fc378daa952ba7f163c4a11628f55a4df523b3ef846040516116859190611f10565b60405180910390a3505050565b6000808273ffffffffffffffffffffffffffffffffffffffff163b119050919050565b61174d82826040516024016116cb929190612398565b6040516020818303038152906040527f319af333000000000000000000000000000000000000000000000000000000007bffffffffffffffffffffffffffffffffffffffffffffffffffffffff19166020820180517bffffffffffffffffffffffffffffffffffffffffffffffffffffffff8381831617835250505050611c27565b5050565b600060019054906101000a900460ff166117a0576040517f08c379a00000000000000000000000000000000000000000000000000000000081526004016117979061243a565b60405180910390fd5b33600060026101000a81548173ffffffffffffffffffffffffffffffffffffffff021916908373ffffffffffffffffffffffffffffffffffffffff160217905550565b600060019054906101000a900460ff16611832576040517f08c379a00000000000000000000000000000000000000000000000000000000081526004016118299061243a565b60405180910390fd5b6000600260006101000a81548160ff021916908315150217905550565b611857610b9d565b1561188e576040517f74c90bdc00000000000000000000000000000000000000000000000000000000815260040160405180910390fd5b600073ffffffffffffffffffffffffffffffffffffffff168273ffffffffffffffffffffffffffffffffffffffff16036118ff57816040517fec442f050000000000000000000000000000000000000000000000000000000081526004016118f69190611ff1565b60405180910390fd5b8060056000828254611911919061207b565b9250508190555080600360008473ffffffffffffffffffffffffffffffffffffffff1673ffffffffffffffffffffffffffffffffffffffff168152602001908152602001600020600082825401925050819055508173ffffffffffffffffffffffffffffffffffffffff16600073ffffffffffffffffffffffffffffffffffffffff167fddf252ad1be2c89b69c2b068fc378daa952ba7f163c4a11628f55a4df523b3ef836040516119c39190611f10565b60405180910390a35050565b611a6782826040516024016119e592919061245a565b6040516020818303038152906040527fb60e72cc000000000000000000000000000000000000000000000000000000007bffffffffffffffffffffffffffffffffffffffffffffffffffffffff19166020820180517bffffffffffffffffffffffffffffffffffffffffffffffffffffffff8381831617835250505050611c27565b5050565b600060029054906101000a900473ffffffffffffffffffffffffffffffffffffffff1673ffffffffffffffffffffffffffffffffffffffff163373ffffffffffffffffffffffffffffffffffffffff1614158015611b19575060001515600160003373ffffffffffffffffffffffffffffffffffffffff1673ffffffffffffffffffffffffffffffffffffffff16815260200190815260200160002060009054906101000a900460ff161515145b15611c2557611b5d6040518060400160405280601581526020017f53656e64657220696e204f776e61626c653a2025730000000000000000000000815250336116b5565b611be86040518060400160405280601981526020017f6973476f7665726e6f7220696e204f776e61626c653a20257300000000000000815250600160003373ffffffffffffffffffffffffffffffffffffffff1673ffffffffffffffffffffffffffffffffffffffff16815260200190815260200160002060009054906101000a900460ff16611c41565b336040517f32b2baa3000000000000000000000000000000000000000000000000000000008152600401611c1c9190611ff1565b60405180910390fd5b565b611c3e81611c36611cdd611cfe565b63ffffffff16565b50565b611cd98282604051602401611c5792919061248a565b6040516020818303038152906040527fc3b55635000000000000000000000000000000000000000000000000000000007bffffffffffffffffffffffffffffffffffffffffffffffffffffffff19166020820180517bffffffffffffffffffffffffffffffffffffffffffffffffffffffff8381831617835250505050611c27565b5050565b60006a636f6e736f6c652e6c6f679050600080835160208501845afa505050565b611d09819050919050565b611d116124ba565b565b600080fd5b600073ffffffffffffffffffffffffffffffffffffffff82169050919050565b6000611d4382611d18565b9050919050565b611d5381611d38565b8114611d5e57600080fd5b50565b600081359050611d7081611d4a565b92915050565b600060208284031215611d8c57611d8b611d13565b5b6000611d9a84828501611d61565b91505092915050565b600081519050919050565b600082825260208201905092915050565b60005b83811015611ddd578082015181840152602081019050611dc2565b60008484015250505050565b6000601f19601f8301169050919050565b6000611e0582611da3565b611e0f8185611dae565b9350611e1f818560208601611dbf565b611e2881611de9565b840191505092915050565b60006020820190508181036000830152611e4d8184611dfa565b905092915050565b6000819050919050565b611e6881611e55565b8114611e7357600080fd5b50565b600081359050611e8581611e5f565b92915050565b60008060408385031215611ea257611ea1611d13565b5b6000611eb085828601611d61565b9250506020611ec185828601611e76565b9150509250929050565b60008115159050919050565b611ee081611ecb565b82525050565b6000602082019050611efb6000830184611ed7565b92915050565b611f0a81611e55565b82525050565b6000602082019050611f256000830184611f01565b92915050565b600080600060608486031215611f4457611f43611d13565b5b6000611f5286828701611d61565b9350506020611f6386828701611d61565b9250506040611f7486828701611e76565b9150509250925092565b600060ff82169050919050565b611f9481611f7e565b82525050565b6000602082019050611faf6000830184611f8b565b92915050565b600060208284031215611fcb57611fca611d13565b5b6000611fd984828501611e76565b91505092915050565b611feb81611d38565b82525050565b60006020820190506120066000830184611fe2565b92915050565b6000806040838503121561202357612022611d13565b5b600061203185828601611d61565b925050602061204285828601611d61565b9150509250929050565b7f4e487b7100000000000000000000000000000000000000000000000000000000600052601160045260246000fd5b600061208682611e55565b915061209183611e55565b92508282019050808211156120a9576120a861204c565b5b92915050565b7f496e697469616c697a61626c653a20636f6e747261637420697320616c72656160008201527f647920696e697469616c697a6564000000000000000000000000000000000000602082015250565b600061210b602e83611dae565b9150612116826120af565b604082019050919050565b6000602082019050818103600083015261213a816120fe565b9050919050565b60008160011c9050919050565b6000808291508390505b6001851115612198578086048111156121745761217361204c565b5b60018516156121835780820291505b808102905061219185612141565b9450612158565b94509492505050565b6000826121b1576001905061226d565b816121bf576000905061226d565b81600181146121d557600281146121df5761220e565b600191505061226d565b60ff8411156121f1576121f061204c565b5b8360020a9150848211156122085761220761204c565b5b5061226d565b5060208310610133831016604e8410600b84101617156122435782820a90508381111561223e5761223d61204c565b5b61226d565b612250848484600161214e565b925090508184048111156122675761226661204c565b5b81810290505b9392505050565b600061227f82611e55565b915061228a83611f7e565b92506122b77fffffffffffffffffffffffffffffffffffffffffffffffffffffffffffffffff84846121a1565b905092915050565b60006122ca82611e55565b91506122d583611e55565b92508282026122e381611e55565b915082820484148315176122fa576122f961204c565b5b5092915050565b6000819050919050565b6000819050919050565b600061233061232b61232684612301565b61230b565b611f7e565b9050919050565b61234081612315565b82525050565b600060208201905061235b6000830184612337565b92915050565b60006060820190506123766000830186611fe2565b6123836020830185611f01565b6123906040830184611f01565b949350505050565b600060408201905081810360008301526123b28185611dfa565b90506123c16020830184611fe2565b9392505050565b7f496e697469616c697a61626c653a20636f6e7472616374206973206e6f74206960008201527f6e697469616c697a696e67000000000000000000000000000000000000000000602082015250565b6000612424602b83611dae565b915061242f826123c8565b604082019050919050565b6000602082019050818103600083015261245381612417565b9050919050565b600060408201905081810360008301526124748185611dfa565b90506124836020830184611f01565b9392505050565b600060408201905081810360008301526124a48185611dfa565b90506124b36020830184611ed7565b9392505050565b7f4e487b7100000000000000000000000000000000000000000000000000000000600052605160045260246000fdfe4f776e657220696e20456d616e61206166746572207061757361626c653a202573a26469706673582212208c17b00bedb1ff4347f881c47d0dcad5cdffc7e9e72f6060b4cdf4fd18f6a38264736f6c63430008130033","opcodes":"PUSH1 0x80 PUSH1 0x40 MSTORE CALLVALUE DUP1 ISZERO PUSH3 0x11 JUMPI PUSH1 0x0 DUP1 REVERT JUMPDEST POP PUSH3 0x22 PUSH3 0x28 PUSH1 0x20 SHL PUSH1 0x20 SHR JUMP JUMPDEST PUSH3 0x1D2 JUMP JUMPDEST PUSH1 0x0 PUSH1 0x1 SWAP1 SLOAD SWAP1 PUSH2 0x100 EXP SWAP1 DIV PUSH1 0xFF AND ISZERO PUSH3 0x7B JUMPI PUSH1 0x40 MLOAD PUSH32 0x8C379A000000000000000000000000000000000000000000000000000000000 DUP2 MSTORE PUSH1 0x4 ADD PUSH3 0x72 SWAP1 PUSH3 0x175 JUMP JUMPDEST PUSH1 0x40 MLOAD DUP1 SWAP2 SUB SWAP1 REVERT JUMPDEST PUSH1 0xFF DUP1 AND PUSH1 0x0 DUP1 SLOAD SWAP1 PUSH2 0x100 EXP SWAP1 DIV PUSH1 0xFF AND PUSH1 0xFF AND EQ PUSH3 0xEC JUMPI PUSH1 0xFF PUSH1 0x0 DUP1 PUSH2 0x100 EXP DUP2 SLOAD DUP2 PUSH1 0xFF MUL NOT AND SWAP1 DUP4 PUSH1 0xFF AND MUL OR SWAP1 SSTORE POP PUSH32 0x7F26B83FF96E1F2B6A682F133852F6798A09C465DA95921460CEFB3847402498 PUSH1 0xFF PUSH1 0x40 MLOAD PUSH3 0xE3 SWAP2 SWAP1 PUSH3 0x1B5 JUMP JUMPDEST PUSH1 0x40 MLOAD DUP1 SWAP2 SUB SWAP1 LOG1 JUMPDEST JUMP JUMPDEST PUSH1 0x0 DUP3 DUP3 MSTORE PUSH1 0x20 DUP3 ADD SWAP1 POP SWAP3 SWAP2 POP POP JUMP JUMPDEST PUSH32 0x496E697469616C697A61626C653A20636F6E747261637420697320696E697469 PUSH1 0x0 DUP3 ADD MSTORE PUSH32 0x616C697A696E6700000000000000000000000000000000000000000000000000 PUSH1 0x20 DUP3 ADD MSTORE POP JUMP JUMPDEST PUSH1 0x0 PUSH3 0x15D PUSH1 0x27 DUP4 PUSH3 0xEE JUMP JUMPDEST SWAP2 POP PUSH3 0x16A DUP3 PUSH3 0xFF JUMP JUMPDEST PUSH1 0x40 DUP3 ADD SWAP1 POP SWAP2 SWAP1 POP JUMP JUMPDEST PUSH1 0x0 PUSH1 0x20 DUP3 ADD SWAP1 POP DUP2 DUP2 SUB PUSH1 0x0 DUP4 ADD MSTORE PUSH3 0x190 DUP2 PUSH3 0x14E JUMP JUMPDEST SWAP1 POP SWAP2 SWAP1 POP JUMP JUMPDEST PUSH1 0x0 PUSH1 0xFF DUP3 AND SWAP1 POP SWAP2 SWAP1 POP JUMP JUMPDEST PUSH3 0x1AF DUP2 PUSH3 0x197 JUMP JUMPDEST DUP3 MSTORE POP POP JUMP JUMPDEST PUSH1 0x0 PUSH1 0x20 DUP3 ADD SWAP1 POP PUSH3 0x1CC PUSH1 0x0 DUP4 ADD DUP5 PUSH3 0x1A4 JUMP JUMPDEST SWAP3 SWAP2 POP POP JUMP JUMPDEST PUSH2 0x2540 DUP1 PUSH3 0x1E2 PUSH1 0x0 CODECOPY PUSH1 0x0 RETURN INVALID PUSH1 0x80 PUSH1 0x40 MSTORE CALLVALUE DUP1 ISZERO PUSH2 0x10 JUMPI PUSH1 0x0 DUP1 REVERT JUMPDEST POP PUSH1 0x4 CALLDATASIZE LT PUSH2 0x173 JUMPI PUSH1 0x0 CALLDATALOAD PUSH1 0xE0 SHR DUP1 PUSH4 0x893D20E8 GT PUSH2 0xDE JUMPI DUP1 PUSH4 0xB187BD26 GT PUSH2 0x97 JUMPI DUP1 PUSH4 0xCB7E4ED8 GT PUSH2 0x71 JUMPI DUP1 PUSH4 0xCB7E4ED8 EQ PUSH2 0x450 JUMPI DUP1 PUSH4 0xDD62ED3E EQ PUSH2 0x480 JUMPI DUP1 PUSH4 0xE43581B8 EQ PUSH2 0x4B0 JUMPI DUP1 PUSH4 0xF2FDE38B EQ PUSH2 0x4E0 JUMPI PUSH2 0x173 JUMP JUMPDEST DUP1 PUSH4 0xB187BD26 EQ PUSH2 0x3E6 JUMPI DUP1 PUSH4 0xB1FD0807 EQ PUSH2 0x404 JUMPI DUP1 PUSH4 0xC4534A85 EQ PUSH2 0x420 JUMPI PUSH2 0x173 JUMP JUMPDEST DUP1 PUSH4 0x893D20E8 EQ PUSH2 0x2FC JUMPI DUP1 PUSH4 0x8DA5CB5B EQ PUSH2 0x31A JUMPI DUP1 PUSH4 0x95D89B41 EQ PUSH2 0x338 JUMPI DUP1 PUSH4 0xA0712D68 EQ PUSH2 0x356 JUMPI DUP1 PUSH4 0xA457C2D7 EQ PUSH2 0x386 JUMPI DUP1 PUSH4 0xA9059CBB EQ PUSH2 0x3B6 JUMPI PUSH2 0x173 JUMP JUMPDEST DUP1 PUSH4 0x39509351 GT PUSH2 0x130 JUMPI DUP1 PUSH4 0x39509351 EQ PUSH2 0x24E JUMPI DUP1 PUSH4 0x3F4BA83A EQ PUSH2 0x27E JUMPI DUP1 PUSH4 0x42966C68 EQ PUSH2 0x288 JUMPI DUP1 PUSH4 0x70A08231 EQ PUSH2 0x2B8 JUMPI DUP1 PUSH4 0x8129FC1C EQ PUSH2 0x2E8 JUMPI DUP1 PUSH4 0x8456CB59 EQ PUSH2 0x2F2 JUMPI PUSH2 0x173 JUMP JUMPDEST DUP1 PUSH4 0x4DCD58D EQ PUSH2 0x178 JUMPI DUP1 PUSH4 0x6FDDE03 EQ PUSH2 0x194 JUMPI DUP1 PUSH4 0x95EA7B3 EQ PUSH2 0x1B2 JUMPI DUP1 PUSH4 0x18160DDD EQ PUSH2 0x1E2 JUMPI DUP1 PUSH4 0x23B872DD EQ PUSH2 0x200 JUMPI DUP1 PUSH4 0x313CE567 EQ PUSH2 0x230 JUMPI JUMPDEST PUSH1 0x0 DUP1 REVERT JUMPDEST PUSH2 0x192 PUSH1 0x4 DUP1 CALLDATASIZE SUB DUP2 ADD SWAP1 PUSH2 0x18D SWAP2 SWAP1 PUSH2 0x1D76 JUMP JUMPDEST PUSH2 0x4FC JUMP JUMPDEST STOP JUMPDEST PUSH2 0x19C PUSH2 0x55F JUMP JUMPDEST PUSH1 0x40 MLOAD PUSH2 0x1A9 SWAP2 SWAP1 PUSH2 0x1E33 JUMP JUMPDEST PUSH1 0x40 MLOAD DUP1 SWAP2 SUB SWAP1 RETURN JUMPDEST PUSH2 0x1CC PUSH1 0x4 DUP1 CALLDATASIZE SUB DUP2 ADD SWAP1 PUSH2 0x1C7 SWAP2 SWAP1 PUSH2 0x1E8B JUMP JUMPDEST PUSH2 0x598 JUMP JUMPDEST PUSH1 0x40 MLOAD PUSH2 0x1D9 SWAP2 SWAP1 PUSH2 0x1EE6 JUMP JUMPDEST PUSH1 0x40 MLOAD DUP1 SWAP2 SUB SWAP1 RETURN JUMPDEST PUSH2 0x1EA PUSH2 0x5B4 JUMP JUMPDEST PUSH1 0x40 MLOAD PUSH2 0x1F7 SWAP2 SWAP1 PUSH2 0x1F10 JUMP JUMPDEST PUSH1 0x40 MLOAD DUP1 SWAP2 SUB SWAP1 RETURN JUMPDEST PUSH2 0x21A PUSH1 0x4 DUP1 CALLDATASIZE SUB DUP2 ADD SWAP1 PUSH2 0x215 SWAP2 SWAP1 PUSH2 0x1F2B JUMP JUMPDEST PUSH2 0x5BA JUMP JUMPDEST PUSH1 0x40 MLOAD PUSH2 0x227 SWAP2 SWAP1 PUSH2 0x1EE6 JUMP JUMPDEST PUSH1 0x40 MLOAD DUP1 SWAP2 SUB SWAP1 RETURN JUMPDEST PUSH2 0x238 PUSH2 0x5E2 JUMP JUMPDEST PUSH1 0x40 MLOAD PUSH2 0x245 SWAP2 SWAP1 PUSH2 0x1F9A JUMP JUMPDEST PUSH1 0x40 MLOAD DUP1 SWAP2 SUB SWAP1 RETURN JUMPDEST PUSH2 0x268 PUSH1 0x4 DUP1 CALLDATASIZE SUB DUP2 ADD SWAP1 PUSH2 0x263 SWAP2 SWAP1 PUSH2 0x1E8B JUMP JUMPDEST PUSH2 0x5E7 JUMP JUMPDEST PUSH1 0x40 MLOAD PUSH2 0x275 SWAP2 SWAP1 PUSH2 0x1EE6 JUMP JUMPDEST PUSH1 0x40 MLOAD DUP1 SWAP2 SUB SWAP1 RETURN JUMPDEST PUSH2 0x286 PUSH2 0x617 JUMP JUMPDEST STOP JUMPDEST PUSH2 0x2A2 PUSH1 0x4 DUP1 CALLDATASIZE SUB DUP2 ADD SWAP1 PUSH2 0x29D SWAP2 SWAP1 PUSH2 0x1FB5 JUMP JUMPDEST PUSH2 0x6B1 JUMP JUMPDEST PUSH1 0x40 MLOAD PUSH2 0x2AF SWAP2 SWAP1 PUSH2 0x1EE6 JUMP JUMPDEST PUSH1 0x40 MLOAD DUP1 SWAP2 SUB SWAP1 RETURN JUMPDEST PUSH2 0x2D2 PUSH1 0x4 DUP1 CALLDATASIZE SUB DUP2 ADD SWAP1 PUSH2 0x2CD SWAP2 SWAP1 PUSH2 0x1D76 JUMP JUMPDEST PUSH2 0x6D5 JUMP JUMPDEST PUSH1 0x40 MLOAD PUSH2 0x2DF SWAP2 SWAP1 PUSH2 0x1F10 JUMP JUMPDEST PUSH1 0x40 MLOAD DUP1 SWAP2 SUB SWAP1 RETURN JUMPDEST PUSH2 0x2F0 PUSH2 0x71E JUMP JUMPDEST STOP JUMPDEST PUSH2 0x2FA PUSH2 0x947 JUMP JUMPDEST STOP JUMPDEST PUSH2 0x304 PUSH2 0x9E2 JUMP JUMPDEST PUSH1 0x40 MLOAD PUSH2 0x311 SWAP2 SWAP1 PUSH2 0x1FF1 JUMP JUMPDEST PUSH1 0x40 MLOAD DUP1 SWAP2 SUB SWAP1 RETURN JUMPDEST PUSH2 0x322 PUSH2 0xA85 JUMP JUMPDEST PUSH1 0x40 MLOAD PUSH2 0x32F SWAP2 SWAP1 PUSH2 0x1FF1 JUMP JUMPDEST PUSH1 0x40 MLOAD DUP1 SWAP2 SUB SWAP1 RETURN JUMPDEST PUSH2 0x340 PUSH2 0xAAE JUMP JUMPDEST PUSH1 0x40 MLOAD PUSH2 0x34D SWAP2 SWAP1 PUSH2 0x1E33 JUMP JUMPDEST PUSH1 0x40 MLOAD DUP1 SWAP2 SUB SWAP1 RETURN JUMPDEST PUSH2 0x370 PUSH1 0x4 DUP1 CALLDATASIZE SUB DUP2 ADD SWAP1 PUSH2 0x36B SWAP2 SWAP1 PUSH2 0x1FB5 JUMP JUMPDEST PUSH2 0xAE7 JUMP JUMPDEST PUSH1 0x40 MLOAD PUSH2 0x37D SWAP2 SWAP1 PUSH2 0x1EE6 JUMP JUMPDEST PUSH1 0x40 MLOAD DUP1 SWAP2 SUB SWAP1 RETURN JUMPDEST PUSH2 0x3A0 PUSH1 0x4 DUP1 CALLDATASIZE SUB DUP2 ADD SWAP1 PUSH2 0x39B SWAP2 SWAP1 PUSH2 0x1E8B JUMP JUMPDEST PUSH2 0xB0B JUMP JUMPDEST PUSH1 0x40 MLOAD PUSH2 0x3AD SWAP2 SWAP1 PUSH2 0x1EE6 JUMP JUMPDEST PUSH1 0x40 MLOAD DUP1 SWAP2 SUB SWAP1 RETURN JUMPDEST PUSH2 0x3D0 PUSH1 0x4 DUP1 CALLDATASIZE SUB DUP2 ADD SWAP1 PUSH2 0x3CB SWAP2 SWAP1 PUSH2 0x1E8B JUMP JUMPDEST PUSH2 0xB81 JUMP JUMPDEST PUSH1 0x40 MLOAD PUSH2 0x3DD SWAP2 SWAP1 PUSH2 0x1EE6 JUMP JUMPDEST PUSH1 0x40 MLOAD DUP1 SWAP2 SUB SWAP1 RETURN JUMPDEST PUSH2 0x3EE PUSH2 0xB9D JUMP JUMPDEST PUSH1 0x40 MLOAD PUSH2 0x3FB SWAP2 SWAP1 PUSH2 0x1EE6 JUMP JUMPDEST PUSH1 0x40 MLOAD DUP1 SWAP2 SUB SWAP1 RETURN JUMPDEST PUSH2 0x41E PUSH1 0x4 DUP1 CALLDATASIZE SUB DUP2 ADD SWAP1 PUSH2 0x419 SWAP2 SWAP1 PUSH2 0x1D76 JUMP JUMPDEST PUSH2 0xBB4 JUMP JUMPDEST STOP JUMPDEST PUSH2 0x43A PUSH1 0x4 DUP1 CALLDATASIZE SUB DUP2 ADD SWAP1 PUSH2 0x435 SWAP2 SWAP1 PUSH2 0x1F2B JUMP JUMPDEST PUSH2 0xC16 JUMP JUMPDEST PUSH1 0x40 MLOAD PUSH2 0x447 SWAP2 SWAP1 PUSH2 0x1EE6 JUMP JUMPDEST PUSH1 0x40 MLOAD DUP1 SWAP2 SUB SWAP1 RETURN JUMPDEST PUSH2 0x46A PUSH1 0x4 DUP1 CALLDATASIZE SUB DUP2 ADD SWAP1 PUSH2 0x465 SWAP2 SWAP1 PUSH2 0x1E8B JUMP JUMPDEST PUSH2 0xC36 JUMP JUMPDEST PUSH1 0x40 MLOAD PUSH2 0x477 SWAP2 SWAP1 PUSH2 0x1EE6 JUMP JUMPDEST PUSH1 0x40 MLOAD DUP1 SWAP2 SUB SWAP1 RETURN JUMPDEST PUSH2 0x49A PUSH1 0x4 DUP1 CALLDATASIZE SUB DUP2 ADD SWAP1 PUSH2 0x495 SWAP2 SWAP1 PUSH2 0x200C JUMP JUMPDEST PUSH2 0xC5C JUMP JUMPDEST PUSH1 0x40 MLOAD PUSH2 0x4A7 SWAP2 SWAP1 PUSH2 0x1F10 JUMP JUMPDEST PUSH1 0x40 MLOAD DUP1 SWAP2 SUB SWAP1 RETURN JUMPDEST PUSH2 0x4CA PUSH1 0x4 DUP1 CALLDATASIZE SUB DUP2 ADD SWAP1 PUSH2 0x4C5 SWAP2 SWAP1 PUSH2 0x1D76 JUMP JUMPDEST PUSH2 0xCE3 JUMP JUMPDEST PUSH1 0x40 MLOAD PUSH2 0x4D7 SWAP2 SWAP1 PUSH2 0x1EE6 JUMP JUMPDEST PUSH1 0x40 MLOAD DUP1 SWAP2 SUB SWAP1 RETURN JUMPDEST PUSH2 0x4FA PUSH1 0x4 DUP1 CALLDATASIZE SUB DUP2 ADD SWAP1 PUSH2 0x4F5 SWAP2 SWAP1 PUSH2 0x1D76 JUMP JUMPDEST PUSH2 0xD39 JUMP JUMPDEST STOP JUMPDEST PUSH2 0x504 PUSH2 0xE77 JUMP JUMPDEST PUSH1 0x0 PUSH1 0x1 PUSH1 0x0 DUP4 PUSH20 0xFFFFFFFFFFFFFFFFFFFFFFFFFFFFFFFFFFFFFFFF AND PUSH20 0xFFFFFFFFFFFFFFFFFFFFFFFFFFFFFFFFFFFFFFFF AND DUP2 MSTORE PUSH1 0x20 ADD SWAP1 DUP2 MSTORE PUSH1 0x20 ADD PUSH1 0x0 KECCAK256 PUSH1 0x0 PUSH2 0x100 EXP DUP2 SLOAD DUP2 PUSH1 0xFF MUL NOT AND SWAP1 DUP4 ISZERO ISZERO MUL OR SWAP1 SSTORE POP POP JUMP JUMPDEST PUSH1 0x40 MLOAD DUP1 PUSH1 0x40 ADD PUSH1 0x40 MSTORE DUP1 PUSH1 0xB DUP2 MSTORE PUSH1 0x20 ADD PUSH32 0x456D616E6120546F6B656E000000000000000000000000000000000000000000 DUP2 MSTORE POP DUP2 JUMP JUMPDEST PUSH1 0x0 DUP1 CALLER SWAP1 POP PUSH2 0x5A9 DUP2 DUP6 DUP6 PUSH2 0xF0B JUMP JUMPDEST PUSH1 0x1 SWAP2 POP POP SWAP3 SWAP2 POP POP JUMP JUMPDEST PUSH1 0x5 SLOAD DUP2 JUMP JUMPDEST PUSH1 0x0 DUP1 CALLER SWAP1 POP PUSH2 0x5CB DUP6 DUP3 DUP6 PUSH2 0x1117 JUMP JUMPDEST PUSH2 0x5D6 DUP6 DUP6 DUP6 PUSH2 0x11E8 JUMP JUMPDEST PUSH1 0x1 SWAP2 POP POP SWAP4 SWAP3 POP POP POP JUMP JUMPDEST PUSH1 0x12 DUP2 JUMP JUMPDEST PUSH1 0x0 DUP1 CALLER SWAP1 POP PUSH2 0x60C DUP2 DUP6 DUP6 PUSH2 0x5FD DUP6 DUP10 PUSH2 0xC5C JUMP JUMPDEST PUSH2 0x607 SWAP2 SWAP1 PUSH2 0x207B JUMP JUMPDEST PUSH2 0xF0B JUMP JUMPDEST PUSH1 0x1 SWAP2 POP POP SWAP3 SWAP2 POP POP JUMP JUMPDEST PUSH2 0x61F PUSH2 0xE77 JUMP JUMPDEST PUSH2 0x627 PUSH2 0xB9D JUMP JUMPDEST PUSH2 0x65D JUMPI PUSH1 0x40 MLOAD PUSH32 0x92FC71A00000000000000000000000000000000000000000000000000000000 DUP2 MSTORE PUSH1 0x4 ADD PUSH1 0x40 MLOAD DUP1 SWAP2 SUB SWAP1 REVERT JUMPDEST PUSH1 0x0 PUSH1 0x2 PUSH1 0x0 PUSH2 0x100 EXP DUP2 SLOAD DUP2 PUSH1 0xFF MUL NOT AND SWAP1 DUP4 ISZERO ISZERO MUL OR SWAP1 SSTORE POP PUSH32 0x5DB9EE0A495BF2E6FF9C91A7834C1BA4FDD244A5E8AA4E537BD38AEAE4B073AA CALLER PUSH1 0x40 MLOAD PUSH2 0x6A7 SWAP2 SWAP1 PUSH2 0x1FF1 JUMP JUMPDEST PUSH1 0x40 MLOAD DUP1 SWAP2 SUB SWAP1 LOG1 JUMP JUMPDEST PUSH1 0x0 PUSH2 0x6BB PUSH2 0xE77 JUMP JUMPDEST PUSH2 0x6CC PUSH2 0x6C6 PUSH2 0xA85 JUMP JUMPDEST DUP4 PUSH2 0x1494 JUMP JUMPDEST PUSH1 0x1 SWAP1 POP SWAP2 SWAP1 POP JUMP JUMPDEST PUSH1 0x0 PUSH1 0x3 PUSH1 0x0 DUP4 PUSH20 0xFFFFFFFFFFFFFFFFFFFFFFFFFFFFFFFFFFFFFFFF AND PUSH20 0xFFFFFFFFFFFFFFFFFFFFFFFFFFFFFFFFFFFFFFFF AND DUP2 MSTORE PUSH1 0x20 ADD SWAP1 DUP2 MSTORE PUSH1 0x20 ADD PUSH1 0x0 KECCAK256 SLOAD SWAP1 POP SWAP2 SWAP1 POP JUMP JUMPDEST PUSH1 0x0 DUP1 PUSH1 0x1 SWAP1 SLOAD SWAP1 PUSH2 0x100 EXP SWAP1 DIV PUSH1 0xFF AND ISZERO SWAP1 POP DUP1 DUP1 ISZERO PUSH2 0x74F JUMPI POP PUSH1 0x1 PUSH1 0x0 DUP1 SLOAD SWAP1 PUSH2 0x100 EXP SWAP1 DIV PUSH1 0xFF AND PUSH1 0xFF AND LT JUMPDEST DUP1 PUSH2 0x77C JUMPI POP PUSH2 0x75E ADDRESS PUSH2 0x1692 JUMP JUMPDEST ISZERO DUP1 ISZERO PUSH2 0x77B JUMPI POP PUSH1 0x1 PUSH1 0x0 DUP1 SLOAD SWAP1 PUSH2 0x100 EXP SWAP1 DIV PUSH1 0xFF AND PUSH1 0xFF AND EQ JUMPDEST JUMPDEST PUSH2 0x7BB JUMPI PUSH1 0x40 MLOAD PUSH32 0x8C379A000000000000000000000000000000000000000000000000000000000 DUP2 MSTORE PUSH1 0x4 ADD PUSH2 0x7B2 SWAP1 PUSH2 0x2121 JUMP JUMPDEST PUSH1 0x40 MLOAD DUP1 SWAP2 SUB SWAP1 REVERT JUMPDEST PUSH1 0x1 PUSH1 0x0 DUP1 PUSH2 0x100 EXP DUP2 SLOAD DUP2 PUSH1 0xFF MUL NOT AND SWAP1 DUP4 PUSH1 0xFF AND MUL OR SWAP1 SSTORE POP DUP1 ISZERO PUSH2 0x7F8 JUMPI PUSH1 0x1 PUSH1 0x0 PUSH1 0x1 PUSH2 0x100 EXP DUP2 SLOAD DUP2 PUSH1 0xFF MUL NOT AND SWAP1 DUP4 ISZERO ISZERO MUL OR SWAP1 SSTORE POP JUMPDEST PUSH2 0x83E PUSH1 0x40 MLOAD DUP1 PUSH1 0x40 ADD PUSH1 0x40 MSTORE DUP1 PUSH1 0x12 DUP2 MSTORE PUSH1 0x20 ADD PUSH32 0x4F776E657220696E20456D616E613A2025730000000000000000000000000000 DUP2 MSTORE POP PUSH2 0x839 PUSH2 0xA85 JUMP JUMPDEST PUSH2 0x16B5 JUMP JUMPDEST PUSH2 0x846 PUSH2 0x1751 JUMP JUMPDEST PUSH2 0x88C PUSH1 0x40 MLOAD DUP1 PUSH1 0x40 ADD PUSH1 0x40 MSTORE DUP1 PUSH1 0x1C DUP2 MSTORE PUSH1 0x20 ADD PUSH32 0x4F776E657220696E20456D616E61206166746572207365743A20257300000000 DUP2 MSTORE POP PUSH2 0x887 PUSH2 0xA85 JUMP JUMPDEST PUSH2 0x16B5 JUMP JUMPDEST PUSH2 0x894 PUSH2 0x17E3 JUMP JUMPDEST PUSH2 0x8BD PUSH1 0x40 MLOAD DUP1 PUSH1 0x60 ADD PUSH1 0x40 MSTORE DUP1 PUSH1 0x21 DUP2 MSTORE PUSH1 0x20 ADD PUSH2 0x24EA PUSH1 0x21 SWAP2 CODECOPY PUSH2 0x8B8 PUSH2 0xA85 JUMP JUMPDEST PUSH2 0x16B5 JUMP JUMPDEST PUSH2 0x8EB PUSH2 0x8C8 PUSH2 0xA85 JUMP JUMPDEST PUSH1 0x12 PUSH1 0xA PUSH2 0x8D6 SWAP2 SWAP1 PUSH2 0x2274 JUMP JUMPDEST PUSH5 0x2540BE400 PUSH2 0x8E6 SWAP2 SWAP1 PUSH2 0x22BF JUMP JUMPDEST PUSH2 0x184F JUMP JUMPDEST DUP1 ISZERO PUSH2 0x944 JUMPI PUSH1 0x0 DUP1 PUSH1 0x1 PUSH2 0x100 EXP DUP2 SLOAD DUP2 PUSH1 0xFF MUL NOT AND SWAP1 DUP4 ISZERO ISZERO MUL OR SWAP1 SSTORE POP PUSH32 0x7F26B83FF96E1F2B6A682F133852F6798A09C465DA95921460CEFB3847402498 PUSH1 0x1 PUSH1 0x40 MLOAD PUSH2 0x93B SWAP2 SWAP1 PUSH2 0x2346 JUMP JUMPDEST PUSH1 0x40 MLOAD DUP1 SWAP2 SUB SWAP1 LOG1 JUMPDEST POP JUMP JUMPDEST PUSH2 0x94F PUSH2 0xE77 JUMP JUMPDEST PUSH2 0x957 PUSH2 0xB9D JUMP JUMPDEST ISZERO PUSH2 0x98E JUMPI PUSH1 0x40 MLOAD PUSH32 0x74C90BDC00000000000000000000000000000000000000000000000000000000 DUP2 MSTORE PUSH1 0x4 ADD PUSH1 0x40 MLOAD DUP1 SWAP2 SUB SWAP1 REVERT JUMPDEST PUSH1 0x1 PUSH1 0x2 PUSH1 0x0 PUSH2 0x100 EXP DUP2 SLOAD DUP2 PUSH1 0xFF MUL NOT AND SWAP1 DUP4 ISZERO ISZERO MUL OR SWAP1 SSTORE POP PUSH32 0x62E78CEA01BEE320CD4E420270B5EA74000D11B0C9F74754EBDBFC544B05A258 CALLER PUSH1 0x40 MLOAD PUSH2 0x9D8 SWAP2 SWAP1 PUSH2 0x1FF1 JUMP JUMPDEST PUSH1 0x40 MLOAD DUP1 SWAP2 SUB SWAP1 LOG1 JUMP JUMPDEST PUSH1 0x0 PUSH2 0xA2A PUSH1 0x40 MLOAD DUP1 PUSH1 0x40 ADD PUSH1 0x40 MSTORE DUP1 PUSH1 0x15 DUP2 MSTORE PUSH1 0x20 ADD PUSH32 0x4F776E657220696E206765744F776E65723A2025730000000000000000000000 DUP2 MSTORE POP PUSH2 0xA25 PUSH2 0xA85 JUMP JUMPDEST PUSH2 0x16B5 JUMP JUMPDEST PUSH2 0xA78 PUSH1 0x40 MLOAD DUP1 PUSH1 0x40 ADD PUSH1 0x40 MSTORE DUP1 PUSH1 0x17 DUP2 MSTORE PUSH1 0x20 ADD PUSH32 0x42616C616E636520696E206765744F776E65723A202573000000000000000000 DUP2 MSTORE POP PUSH2 0xA73 PUSH2 0xA6E PUSH2 0xA85 JUMP JUMPDEST PUSH2 0x6D5 JUMP JUMPDEST PUSH2 0x19CF JUMP JUMPDEST PUSH2 0xA80 PUSH2 0xA85 JUMP JUMPDEST SWAP1 POP SWAP1 JUMP JUMPDEST PUSH1 0x0 DUP1 PUSH1 0x2 SWAP1 SLOAD SWAP1 PUSH2 0x100 EXP SWAP1 DIV PUSH20 0xFFFFFFFFFFFFFFFFFFFFFFFFFFFFFFFFFFFFFFFF AND SWAP1 POP SWAP1 JUMP JUMPDEST PUSH1 0x40 MLOAD DUP1 PUSH1 0x40 ADD PUSH1 0x40 MSTORE DUP1 PUSH1 0x5 DUP2 MSTORE PUSH1 0x20 ADD PUSH32 0x454D414E41000000000000000000000000000000000000000000000000000000 DUP2 MSTORE POP DUP2 JUMP JUMPDEST PUSH1 0x0 PUSH2 0xAF1 PUSH2 0xE77 JUMP JUMPDEST PUSH2 0xB02 PUSH2 0xAFC PUSH2 0xA85 JUMP JUMPDEST DUP4 PUSH2 0x184F JUMP JUMPDEST PUSH1 0x1 SWAP1 POP SWAP2 SWAP1 POP JUMP JUMPDEST PUSH1 0x0 DUP1 CALLER SWAP1 POP PUSH1 0x0 PUSH2 0xB1D DUP3 DUP7 PUSH2 0xC5C JUMP JUMPDEST SWAP1 POP DUP4 DUP2 LT ISZERO PUSH2 0xB68 JUMPI DUP5 DUP2 DUP6 PUSH1 0x40 MLOAD PUSH32 0xA60F030C00000000000000000000000000000000000000000000000000000000 DUP2 MSTORE PUSH1 0x4 ADD PUSH2 0xB5F SWAP4 SWAP3 SWAP2 SWAP1 PUSH2 0x2361 JUMP JUMPDEST PUSH1 0x40 MLOAD DUP1 SWAP2 SUB SWAP1 REVERT JUMPDEST PUSH2 0xB75 DUP3 DUP7 DUP7 DUP5 SUB PUSH2 0xF0B JUMP JUMPDEST PUSH1 0x1 SWAP3 POP POP POP SWAP3 SWAP2 POP POP JUMP JUMPDEST PUSH1 0x0 DUP1 CALLER SWAP1 POP PUSH2 0xB92 DUP2 DUP6 DUP6 PUSH2 0x11E8 JUMP JUMPDEST PUSH1 0x1 SWAP2 POP POP SWAP3 SWAP2 POP POP JUMP JUMPDEST PUSH1 0x0 PUSH1 0x2 PUSH1 0x0 SWAP1 SLOAD SWAP1 PUSH2 0x100 EXP SWAP1 DIV PUSH1 0xFF AND SWAP1 POP SWAP1 JUMP JUMPDEST PUSH2 0xBBC PUSH2 0xE77 JUMP JUMPDEST PUSH1 0x1 DUP1 PUSH1 0x0 DUP4 PUSH20 0xFFFFFFFFFFFFFFFFFFFFFFFFFFFFFFFFFFFFFFFF AND PUSH20 0xFFFFFFFFFFFFFFFFFFFFFFFFFFFFFFFFFFFFFFFF AND DUP2 MSTORE PUSH1 0x20 ADD SWAP1 DUP2 MSTORE PUSH1 0x20 ADD PUSH1 0x0 KECCAK256 PUSH1 0x0 PUSH2 0x100 EXP DUP2 SLOAD DUP2 PUSH1 0xFF MUL NOT AND SWAP1 DUP4 ISZERO ISZERO MUL OR SWAP1 SSTORE POP POP JUMP JUMPDEST PUSH1 0x0 PUSH2 0xC20 PUSH2 0x1A6B JUMP JUMPDEST PUSH2 0xC2B DUP5 DUP5 DUP5 PUSH2 0x11E8 JUMP JUMPDEST PUSH1 0x1 SWAP1 POP SWAP4 SWAP3 POP POP POP JUMP JUMPDEST PUSH1 0x0 PUSH2 0xC40 PUSH2 0x1A6B JUMP JUMPDEST PUSH2 0xC52 PUSH2 0xC4B PUSH2 0xA85 JUMP JUMPDEST DUP5 DUP5 PUSH2 0x11E8 JUMP JUMPDEST PUSH1 0x1 SWAP1 POP SWAP3 SWAP2 POP POP JUMP JUMPDEST PUSH1 0x0 PUSH1 0x4 PUSH1 0x0 DUP5 PUSH20 0xFFFFFFFFFFFFFFFFFFFFFFFFFFFFFFFFFFFFFFFF AND PUSH20 0xFFFFFFFFFFFFFFFFFFFFFFFFFFFFFFFFFFFFFFFF AND DUP2 MSTORE PUSH1 0x20 ADD SWAP1 DUP2 MSTORE PUSH1 0x20 ADD PUSH1 0x0 KECCAK256 PUSH1 0x0 DUP4 PUSH20 0xFFFFFFFFFFFFFFFFFFFFFFFFFFFFFFFFFFFFFFFF AND PUSH20 0xFFFFFFFFFFFFFFFFFFFFFFFFFFFFFFFFFFFFFFFF AND DUP2 MSTORE PUSH1 0x20 ADD SWAP1 DUP2 MSTORE PUSH1 0x20 ADD PUSH1 0x0 KECCAK256 SLOAD SWAP1 POP SWAP3 SWAP2 POP POP JUMP JUMPDEST PUSH1 0x0 PUSH1 0x1 PUSH1 0x0 DUP4 PUSH20 0xFFFFFFFFFFFFFFFFFFFFFFFFFFFFFFFFFFFFFFFF AND PUSH20 0xFFFFFFFFFFFFFFFFFFFFFFFFFFFFFFFFFFFFFFFF AND DUP2 MSTORE PUSH1 0x20 ADD SWAP1 DUP2 MSTORE PUSH1 0x20 ADD PUSH1 0x0 KECCAK256 PUSH1 0x0 SWAP1 SLOAD SWAP1 PUSH2 0x100 EXP SWAP1 DIV PUSH1 0xFF AND SWAP1 POP SWAP2 SWAP1 POP JUMP JUMPDEST PUSH2 0xD41 PUSH2 0xE77 JUMP JUMPDEST PUSH1 0x0 PUSH20 0xFFFFFFFFFFFFFFFFFFFFFFFFFFFFFFFFFFFFFFFF AND DUP2 PUSH20 0xFFFFFFFFFFFFFFFFFFFFFFFFFFFFFFFFFFFFFFFF AND SUB PUSH2 0xDB2 JUMPI DUP1 PUSH1 0x40 MLOAD PUSH32 0x8E4C8AA600000000000000000000000000000000000000000000000000000000 DUP2 MSTORE PUSH1 0x4 ADD PUSH2 0xDA9 SWAP2 SWAP1 PUSH2 0x1FF1 JUMP JUMPDEST PUSH1 0x40 MLOAD DUP1 SWAP2 SUB SWAP1 REVERT JUMPDEST PUSH1 0x0 DUP1 PUSH1 0x2 SWAP1 SLOAD SWAP1 PUSH2 0x100 EXP SWAP1 DIV PUSH20 0xFFFFFFFFFFFFFFFFFFFFFFFFFFFFFFFFFFFFFFFF AND SWAP1 POP DUP2 PUSH1 0x0 PUSH1 0x2 PUSH2 0x100 EXP DUP2 SLOAD DUP2 PUSH20 0xFFFFFFFFFFFFFFFFFFFFFFFFFFFFFFFFFFFFFFFF MUL NOT AND SWAP1 DUP4 PUSH20 0xFFFFFFFFFFFFFFFFFFFFFFFFFFFFFFFFFFFFFFFF AND MUL OR SWAP1 SSTORE POP DUP2 PUSH20 0xFFFFFFFFFFFFFFFFFFFFFFFFFFFFFFFFFFFFFFFF AND DUP2 PUSH20 0xFFFFFFFFFFFFFFFFFFFFFFFFFFFFFFFFFFFFFFFF AND PUSH32 0x8BE0079C531659141344CD1FD0A4F28419497F9722A3DAAFE3B4186F6B6457E0 PUSH1 0x40 MLOAD PUSH1 0x40 MLOAD DUP1 SWAP2 SUB SWAP1 LOG3 POP POP JUMP JUMPDEST PUSH1 0x0 PUSH1 0x2 SWAP1 SLOAD SWAP1 PUSH2 0x100 EXP SWAP1 DIV PUSH20 0xFFFFFFFFFFFFFFFFFFFFFFFFFFFFFFFFFFFFFFFF AND PUSH20 0xFFFFFFFFFFFFFFFFFFFFFFFFFFFFFFFFFFFFFFFF AND CALLER PUSH20 0xFFFFFFFFFFFFFFFFFFFFFFFFFFFFFFFFFFFFFFFF AND EQ PUSH2 0xF09 JUMPI CALLER PUSH1 0x40 MLOAD PUSH32 0x32B2BAA300000000000000000000000000000000000000000000000000000000 DUP2 MSTORE PUSH1 0x4 ADD PUSH2 0xF00 SWAP2 SWAP1 PUSH2 0x1FF1 JUMP JUMPDEST PUSH1 0x40 MLOAD DUP1 SWAP2 SUB SWAP1 REVERT JUMPDEST JUMP JUMPDEST PUSH2 0xF13 PUSH2 0xB9D JUMP JUMPDEST ISZERO PUSH2 0xF4A JUMPI PUSH1 0x40 MLOAD PUSH32 0x74C90BDC00000000000000000000000000000000000000000000000000000000 DUP2 MSTORE PUSH1 0x4 ADD PUSH1 0x40 MLOAD DUP1 SWAP2 SUB SWAP1 REVERT JUMPDEST PUSH1 0x0 PUSH20 0xFFFFFFFFFFFFFFFFFFFFFFFFFFFFFFFFFFFFFFFF AND DUP4 PUSH20 0xFFFFFFFFFFFFFFFFFFFFFFFFFFFFFFFFFFFFFFFF AND SUB PUSH2 0xFBB JUMPI DUP3 PUSH1 0x40 MLOAD PUSH32 0xE602DF0500000000000000000000000000000000000000000000000000000000 DUP2 MSTORE PUSH1 0x4 ADD PUSH2 0xFB2 SWAP2 SWAP1 PUSH2 0x1FF1 JUMP JUMPDEST PUSH1 0x40 MLOAD DUP1 SWAP2 SUB SWAP1 REVERT JUMPDEST PUSH1 0x0 PUSH20 0xFFFFFFFFFFFFFFFFFFFFFFFFFFFFFFFFFFFFFFFF AND DUP3 PUSH20 0xFFFFFFFFFFFFFFFFFFFFFFFFFFFFFFFFFFFFFFFF AND SUB PUSH2 0x102C JUMPI DUP2 PUSH1 0x40 MLOAD PUSH32 0x94280D6200000000000000000000000000000000000000000000000000000000 DUP2 MSTORE PUSH1 0x4 ADD PUSH2 0x1023 SWAP2 SWAP1 PUSH2 0x1FF1 JUMP JUMPDEST PUSH1 0x40 MLOAD DUP1 SWAP2 SUB SWAP1 REVERT JUMPDEST DUP1 PUSH1 0x4 PUSH1 0x0 DUP6 PUSH20 0xFFFFFFFFFFFFFFFFFFFFFFFFFFFFFFFFFFFFFFFF AND PUSH20 0xFFFFFFFFFFFFFFFFFFFFFFFFFFFFFFFFFFFFFFFF AND DUP2 MSTORE PUSH1 0x20 ADD SWAP1 DUP2 MSTORE PUSH1 0x20 ADD PUSH1 0x0 KECCAK256 PUSH1 0x0 DUP5 PUSH20 0xFFFFFFFFFFFFFFFFFFFFFFFFFFFFFFFFFFFFFFFF AND PUSH20 0xFFFFFFFFFFFFFFFFFFFFFFFFFFFFFFFFFFFFFFFF AND DUP2 MSTORE PUSH1 0x20 ADD SWAP1 DUP2 MSTORE PUSH1 0x20 ADD PUSH1 0x0 KECCAK256 DUP2 SWAP1 SSTORE POP DUP2 PUSH20 0xFFFFFFFFFFFFFFFFFFFFFFFFFFFFFFFFFFFFFFFF AND DUP4 PUSH20 0xFFFFFFFFFFFFFFFFFFFFFFFFFFFFFFFFFFFFFFFF AND PUSH32 0x8C5BE1E5EBEC7D5BD14F71427D1E84F3DD0314C0F7B2291E5B200AC8C7C3B925 DUP4 PUSH1 0x40 MLOAD PUSH2 0x110A SWAP2 SWAP1 PUSH2 0x1F10 JUMP JUMPDEST PUSH1 0x40 MLOAD DUP1 SWAP2 SUB SWAP1 LOG3 POP POP POP JUMP JUMPDEST PUSH2 0x111F PUSH2 0xB9D JUMP JUMPDEST ISZERO PUSH2 0x1156 JUMPI PUSH1 0x40 MLOAD PUSH32 0x74C90BDC00000000000000000000000000000000000000000000000000000000 DUP2 MSTORE PUSH1 0x4 ADD PUSH1 0x40 MLOAD DUP1 SWAP2 SUB SWAP1 REVERT JUMPDEST PUSH1 0x0 PUSH2 0x1162 DUP5 DUP5 PUSH2 0xC5C JUMP JUMPDEST SWAP1 POP PUSH32 0xFFFFFFFFFFFFFFFFFFFFFFFFFFFFFFFFFFFFFFFFFFFFFFFFFFFFFFFFFFFFFFFF DUP2 EQ PUSH2 0x11E2 JUMPI DUP2 DUP2 LT ISZERO PUSH2 0x11D4 JUMPI DUP3 DUP2 DUP4 PUSH1 0x40 MLOAD PUSH32 0xFB8F41B200000000000000000000000000000000000000000000000000000000 DUP2 MSTORE PUSH1 0x4 ADD PUSH2 0x11CB SWAP4 SWAP3 SWAP2 SWAP1 PUSH2 0x2361 JUMP JUMPDEST PUSH1 0x40 MLOAD DUP1 SWAP2 SUB SWAP1 REVERT JUMPDEST PUSH2 0x11E1 DUP5 DUP5 DUP5 DUP5 SUB PUSH2 0xF0B JUMP JUMPDEST JUMPDEST POP POP POP POP JUMP JUMPDEST PUSH2 0x11F0 PUSH2 0xB9D JUMP JUMPDEST ISZERO PUSH2 0x1227 JUMPI PUSH1 0x40 MLOAD PUSH32 0x74C90BDC00000000000000000000000000000000000000000000000000000000 DUP2 MSTORE PUSH1 0x4 ADD PUSH1 0x40 MLOAD DUP1 SWAP2 SUB SWAP1 REVERT JUMPDEST PUSH1 0x0 PUSH20 0xFFFFFFFFFFFFFFFFFFFFFFFFFFFFFFFFFFFFFFFF AND DUP4 PUSH20 0xFFFFFFFFFFFFFFFFFFFFFFFFFFFFFFFFFFFFFFFF AND SUB PUSH2 0x1298 JUMPI DUP3 PUSH1 0x40 MLOAD PUSH32 0x96C6FD1E00000000000000000000000000000000000000000000000000000000 DUP2 MSTORE PUSH1 0x4 ADD PUSH2 0x128F SWAP2 SWAP1 PUSH2 0x1FF1 JUMP JUMPDEST PUSH1 0x40 MLOAD DUP1 SWAP2 SUB SWAP1 REVERT JUMPDEST PUSH1 0x0 PUSH20 0xFFFFFFFFFFFFFFFFFFFFFFFFFFFFFFFFFFFFFFFF AND DUP3 PUSH20 0xFFFFFFFFFFFFFFFFFFFFFFFFFFFFFFFFFFFFFFFF AND SUB PUSH2 0x1309 JUMPI DUP2 PUSH1 0x40 MLOAD PUSH32 0xEC442F0500000000000000000000000000000000000000000000000000000000 DUP2 MSTORE PUSH1 0x4 ADD PUSH2 0x1300 SWAP2 SWAP1 PUSH2 0x1FF1 JUMP JUMPDEST PUSH1 0x40 MLOAD DUP1 SWAP2 SUB SWAP1 REVERT JUMPDEST PUSH1 0x0 PUSH1 0x3 PUSH1 0x0 DUP6 PUSH20 0xFFFFFFFFFFFFFFFFFFFFFFFFFFFFFFFFFFFFFFFF AND PUSH20 0xFFFFFFFFFFFFFFFFFFFFFFFFFFFFFFFFFFFFFFFF AND DUP2 MSTORE PUSH1 0x20 ADD SWAP1 DUP2 MSTORE PUSH1 0x20 ADD PUSH1 0x0 KECCAK256 SLOAD SWAP1 POP DUP2 DUP2 LT ISZERO PUSH2 0x1396 JUMPI DUP4 DUP2 DUP4 PUSH1 0x40 MLOAD PUSH32 0xE450D38C00000000000000000000000000000000000000000000000000000000 DUP2 MSTORE PUSH1 0x4 ADD PUSH2 0x138D SWAP4 SWAP3 SWAP2 SWAP1 PUSH2 0x2361 JUMP JUMPDEST PUSH1 0x40 MLOAD DUP1 SWAP2 SUB SWAP1 REVERT JUMPDEST DUP2 DUP2 SUB PUSH1 0x3 PUSH1 0x0 DUP7 PUSH20 0xFFFFFFFFFFFFFFFFFFFFFFFFFFFFFFFFFFFFFFFF AND PUSH20 0xFFFFFFFFFFFFFFFFFFFFFFFFFFFFFFFFFFFFFFFF AND DUP2 MSTORE PUSH1 0x20 ADD SWAP1 DUP2 MSTORE PUSH1 0x20 ADD PUSH1 0x0 KECCAK256 DUP2 SWAP1 SSTORE POP DUP2 PUSH1 0x3 PUSH1 0x0 DUP6 PUSH20 0xFFFFFFFFFFFFFFFFFFFFFFFFFFFFFFFFFFFFFFFF AND PUSH20 0xFFFFFFFFFFFFFFFFFFFFFFFFFFFFFFFFFFFFFFFF AND DUP2 MSTORE PUSH1 0x20 ADD SWAP1 DUP2 MSTORE PUSH1 0x20 ADD PUSH1 0x0 KECCAK256 PUSH1 0x0 DUP3 DUP3 SLOAD ADD SWAP3 POP POP DUP2 SWAP1 SSTORE POP DUP3 PUSH20 0xFFFFFFFFFFFFFFFFFFFFFFFFFFFFFFFFFFFFFFFF AND DUP5 PUSH20 0xFFFFFFFFFFFFFFFFFFFFFFFFFFFFFFFFFFFFFFFF AND PUSH32 0xDDF252AD1BE2C89B69C2B068FC378DAA952BA7F163C4A11628F55A4DF523B3EF DUP5 PUSH1 0x40 MLOAD PUSH2 0x1486 SWAP2 SWAP1 PUSH2 0x1F10 JUMP JUMPDEST PUSH1 0x40 MLOAD DUP1 SWAP2 SUB SWAP1 LOG3 POP POP POP POP JUMP JUMPDEST PUSH2 0x149C PUSH2 0xB9D JUMP JUMPDEST ISZERO PUSH2 0x14D3 JUMPI PUSH1 0x40 MLOAD PUSH32 0x74C90BDC00000000000000000000000000000000000000000000000000000000 DUP2 MSTORE PUSH1 0x4 ADD PUSH1 0x40 MLOAD DUP1 SWAP2 SUB SWAP1 REVERT JUMPDEST PUSH1 0x0 PUSH20 0xFFFFFFFFFFFFFFFFFFFFFFFFFFFFFFFFFFFFFFFF AND DUP3 PUSH20 0xFFFFFFFFFFFFFFFFFFFFFFFFFFFFFFFFFFFFFFFF AND SUB PUSH2 0x1544 JUMPI DUP2 PUSH1 0x40 MLOAD PUSH32 0x96C6FD1E00000000000000000000000000000000000000000000000000000000 DUP2 MSTORE PUSH1 0x4 ADD PUSH2 0x153B SWAP2 SWAP1 PUSH2 0x1FF1 JUMP JUMPDEST PUSH1 0x40 MLOAD DUP1 SWAP2 SUB SWAP1 REVERT JUMPDEST PUSH1 0x0 PUSH1 0x3 PUSH1 0x0 DUP5 PUSH20 0xFFFFFFFFFFFFFFFFFFFFFFFFFFFFFFFFFFFFFFFF AND PUSH20 0xFFFFFFFFFFFFFFFFFFFFFFFFFFFFFFFFFFFFFFFF AND DUP2 MSTORE PUSH1 0x20 ADD SWAP1 DUP2 MSTORE PUSH1 0x20 ADD PUSH1 0x0 KECCAK256 SLOAD SWAP1 POP DUP2 DUP2 LT ISZERO PUSH2 0x15D1 JUMPI DUP3 DUP2 DUP4 PUSH1 0x40 MLOAD PUSH32 0x355CC7BB00000000000000000000000000000000000000000000000000000000 DUP2 MSTORE PUSH1 0x4 ADD PUSH2 0x15C8 SWAP4 SWAP3 SWAP2 SWAP1 PUSH2 0x2361 JUMP JUMPDEST PUSH1 0x40 MLOAD DUP1 SWAP2 SUB SWAP1 REVERT JUMPDEST DUP2 DUP2 SUB PUSH1 0x3 PUSH1 0x0 DUP6 PUSH20 0xFFFFFFFFFFFFFFFFFFFFFFFFFFFFFFFFFFFFFFFF AND PUSH20 0xFFFFFFFFFFFFFFFFFFFFFFFFFFFFFFFFFFFFFFFF AND DUP2 MSTORE PUSH1 0x20 ADD SWAP1 DUP2 MSTORE PUSH1 0x20 ADD PUSH1 0x0 KECCAK256 DUP2 SWAP1 SSTORE POP DUP2 PUSH1 0x5 PUSH1 0x0 DUP3 DUP3 SLOAD SUB SWAP3 POP POP DUP2 SWAP1 SSTORE POP PUSH1 0x0 PUSH20 0xFFFFFFFFFFFFFFFFFFFFFFFFFFFFFFFFFFFFFFFF AND DUP4 PUSH20 0xFFFFFFFFFFFFFFFFFFFFFFFFFFFFFFFFFFFFFFFF AND PUSH32 0xDDF252AD1BE2C89B69C2B068FC378DAA952BA7F163C4A11628F55A4DF523B3EF DUP5 PUSH1 0x40 MLOAD PUSH2 0x1685 SWAP2 SWAP1 PUSH2 0x1F10 JUMP JUMPDEST PUSH1 0x40 MLOAD DUP1 SWAP2 SUB SWAP1 LOG3 POP POP POP JUMP JUMPDEST PUSH1 0x0 DUP1 DUP3 PUSH20 0xFFFFFFFFFFFFFFFFFFFFFFFFFFFFFFFFFFFFFFFF AND EXTCODESIZE GT SWAP1 POP SWAP2 SWAP1 POP JUMP JUMPDEST PUSH2 0x174D DUP3 DUP3 PUSH1 0x40 MLOAD PUSH1 0x24 ADD PUSH2 0x16CB SWAP3 SWAP2 SWAP1 PUSH2 0x2398 JUMP JUMPDEST PUSH1 0x40 MLOAD PUSH1 0x20 DUP2 DUP4 SUB SUB DUP2 MSTORE SWAP1 PUSH1 0x40 MSTORE PUSH32 0x319AF33300000000000000000000000000000000000000000000000000000000 PUSH28 0xFFFFFFFFFFFFFFFFFFFFFFFFFFFFFFFFFFFFFFFFFFFFFFFFFFFFFFFF NOT AND PUSH1 0x20 DUP3 ADD DUP1 MLOAD PUSH28 0xFFFFFFFFFFFFFFFFFFFFFFFFFFFFFFFFFFFFFFFFFFFFFFFFFFFFFFFF DUP4 DUP2 DUP4 AND OR DUP4 MSTORE POP POP POP POP PUSH2 0x1C27 JUMP JUMPDEST POP POP JUMP JUMPDEST PUSH1 0x0 PUSH1 0x1 SWAP1 SLOAD SWAP1 PUSH2 0x100 EXP SWAP1 DIV PUSH1 0xFF AND PUSH2 0x17A0 JUMPI PUSH1 0x40 MLOAD PUSH32 0x8C379A000000000000000000000000000000000000000000000000000000000 DUP2 MSTORE PUSH1 0x4 ADD PUSH2 0x1797 SWAP1 PUSH2 0x243A JUMP JUMPDEST PUSH1 0x40 MLOAD DUP1 SWAP2 SUB SWAP1 REVERT JUMPDEST CALLER PUSH1 0x0 PUSH1 0x2 PUSH2 0x100 EXP DUP2 SLOAD DUP2 PUSH20 0xFFFFFFFFFFFFFFFFFFFFFFFFFFFFFFFFFFFFFFFF MUL NOT AND SWAP1 DUP4 PUSH20 0xFFFFFFFFFFFFFFFFFFFFFFFFFFFFFFFFFFFFFFFF AND MUL OR SWAP1 SSTORE POP JUMP JUMPDEST PUSH1 0x0 PUSH1 0x1 SWAP1 SLOAD SWAP1 PUSH2 0x100 EXP SWAP1 DIV PUSH1 0xFF AND PUSH2 0x1832 JUMPI PUSH1 0x40 MLOAD PUSH32 0x8C379A000000000000000000000000000000000000000000000000000000000 DUP2 MSTORE PUSH1 0x4 ADD PUSH2 0x1829 SWAP1 PUSH2 0x243A JUMP JUMPDEST PUSH1 0x40 MLOAD DUP1 SWAP2 SUB SWAP1 REVERT JUMPDEST PUSH1 0x0 PUSH1 0x2 PUSH1 0x0 PUSH2 0x100 EXP DUP2 SLOAD DUP2 PUSH1 0xFF MUL NOT AND SWAP1 DUP4 ISZERO ISZERO MUL OR SWAP1 SSTORE POP JUMP JUMPDEST PUSH2 0x1857 PUSH2 0xB9D JUMP JUMPDEST ISZERO PUSH2 0x188E JUMPI PUSH1 0x40 MLOAD PUSH32 0x74C90BDC00000000000000000000000000000000000000000000000000000000 DUP2 MSTORE PUSH1 0x4 ADD PUSH1 0x40 MLOAD DUP1 SWAP2 SUB SWAP1 REVERT JUMPDEST PUSH1 0x0 PUSH20 0xFFFFFFFFFFFFFFFFFFFFFFFFFFFFFFFFFFFFFFFF AND DUP3 PUSH20 0xFFFFFFFFFFFFFFFFFFFFFFFFFFFFFFFFFFFFFFFF AND SUB PUSH2 0x18FF JUMPI DUP2 PUSH1 0x40 MLOAD PUSH32 0xEC442F0500000000000000000000000000000000000000000000000000000000 DUP2 MSTORE PUSH1 0x4 ADD PUSH2 0x18F6 SWAP2 SWAP1 PUSH2 0x1FF1 JUMP JUMPDEST PUSH1 0x40 MLOAD DUP1 SWAP2 SUB SWAP1 REVERT JUMPDEST DUP1 PUSH1 0x5 PUSH1 0x0 DUP3 DUP3 SLOAD PUSH2 0x1911 SWAP2 SWAP1 PUSH2 0x207B JUMP JUMPDEST SWAP3 POP POP DUP2 SWAP1 SSTORE POP DUP1 PUSH1 0x3 PUSH1 0x0 DUP5 PUSH20 0xFFFFFFFFFFFFFFFFFFFFFFFFFFFFFFFFFFFFFFFF AND PUSH20 0xFFFFFFFFFFFFFFFFFFFFFFFFFFFFFFFFFFFFFFFF AND DUP2 MSTORE PUSH1 0x20 ADD SWAP1 DUP2 MSTORE PUSH1 0x20 ADD PUSH1 0x0 KECCAK256 PUSH1 0x0 DUP3 DUP3 SLOAD ADD SWAP3 POP POP DUP2 SWAP1 SSTORE POP DUP2 PUSH20 0xFFFFFFFFFFFFFFFFFFFFFFFFFFFFFFFFFFFFFFFF AND PUSH1 0x0 PUSH20 0xFFFFFFFFFFFFFFFFFFFFFFFFFFFFFFFFFFFFFFFF AND PUSH32 0xDDF252AD1BE2C89B69C2B068FC378DAA952BA7F163C4A11628F55A4DF523B3EF DUP4 PUSH1 0x40 MLOAD PUSH2 0x19C3 SWAP2 SWAP1 PUSH2 0x1F10 JUMP JUMPDEST PUSH1 0x40 MLOAD DUP1 SWAP2 SUB SWAP1 LOG3 POP POP JUMP JUMPDEST PUSH2 0x1A67 DUP3 DUP3 PUSH1 0x40 MLOAD PUSH1 0x24 ADD PUSH2 0x19E5 SWAP3 SWAP2 SWAP1 PUSH2 0x245A JUMP JUMPDEST PUSH1 0x40 MLOAD PUSH1 0x20 DUP2 DUP4 SUB SUB DUP2 MSTORE SWAP1 PUSH1 0x40 MSTORE PUSH32 0xB60E72CC00000000000000000000000000000000000000000000000000000000 PUSH28 0xFFFFFFFFFFFFFFFFFFFFFFFFFFFFFFFFFFFFFFFFFFFFFFFFFFFFFFFF NOT AND PUSH1 0x20 DUP3 ADD DUP1 MLOAD PUSH28 0xFFFFFFFFFFFFFFFFFFFFFFFFFFFFFFFFFFFFFFFFFFFFFFFFFFFFFFFF DUP4 DUP2 DUP4 AND OR DUP4 MSTORE POP POP POP POP PUSH2 0x1C27 JUMP JUMPDEST POP POP JUMP JUMPDEST PUSH1 0x0 PUSH1 0x2 SWAP1 SLOAD SWAP1 PUSH2 0x100 EXP SWAP1 DIV PUSH20 0xFFFFFFFFFFFFFFFFFFFFFFFFFFFFFFFFFFFFFFFF AND PUSH20 0xFFFFFFFFFFFFFFFFFFFFFFFFFFFFFFFFFFFFFFFF AND CALLER PUSH20 0xFFFFFFFFFFFFFFFFFFFFFFFFFFFFFFFFFFFFFFFF AND EQ ISZERO DUP1 ISZERO PUSH2 0x1B19 JUMPI POP PUSH1 0x0 ISZERO ISZERO PUSH1 0x1 PUSH1 0x0 CALLER PUSH20 0xFFFFFFFFFFFFFFFFFFFFFFFFFFFFFFFFFFFFFFFF AND PUSH20 0xFFFFFFFFFFFFFFFFFFFFFFFFFFFFFFFFFFFFFFFF AND DUP2 MSTORE PUSH1 0x20 ADD SWAP1 DUP2 MSTORE PUSH1 0x20 ADD PUSH1 0x0 KECCAK256 PUSH1 0x0 SWAP1 SLOAD SWAP1 PUSH2 0x100 EXP SWAP1 DIV PUSH1 0xFF AND ISZERO ISZERO EQ JUMPDEST ISZERO PUSH2 0x1C25 JUMPI PUSH2 0x1B5D PUSH1 0x40 MLOAD DUP1 PUSH1 0x40 ADD PUSH1 0x40 MSTORE DUP1 PUSH1 0x15 DUP2 MSTORE PUSH1 0x20 ADD PUSH32 0x53656E64657220696E204F776E61626C653A2025730000000000000000000000 DUP2 MSTORE POP CALLER PUSH2 0x16B5 JUMP JUMPDEST PUSH2 0x1BE8 PUSH1 0x40 MLOAD DUP1 PUSH1 0x40 ADD PUSH1 0x40 MSTORE DUP1 PUSH1 0x19 DUP2 MSTORE PUSH1 0x20 ADD PUSH32 0x6973476F7665726E6F7220696E204F776E61626C653A20257300000000000000 DUP2 MSTORE POP PUSH1 0x1 PUSH1 0x0 CALLER PUSH20 0xFFFFFFFFFFFFFFFFFFFFFFFFFFFFFFFFFFFFFFFF AND PUSH20 0xFFFFFFFFFFFFFFFFFFFFFFFFFFFFFFFFFFFFFFFF AND DUP2 MSTORE PUSH1 0x20 ADD SWAP1 DUP2 MSTORE PUSH1 0x20 ADD PUSH1 0x0 KECCAK256 PUSH1 0x0 SWAP1 SLOAD SWAP1 PUSH2 0x100 EXP SWAP1 DIV PUSH1 0xFF AND PUSH2 0x1C41 JUMP JUMPDEST CALLER PUSH1 0x40 MLOAD PUSH32 0x32B2BAA300000000000000000000000000000000000000000000000000000000 DUP2 MSTORE PUSH1 0x4 ADD PUSH2 0x1C1C SWAP2 SWAP1 PUSH2 0x1FF1 JUMP JUMPDEST PUSH1 0x40 MLOAD DUP1 SWAP2 SUB SWAP1 REVERT JUMPDEST JUMP JUMPDEST PUSH2 0x1C3E DUP2 PUSH2 0x1C36 PUSH2 0x1CDD PUSH2 0x1CFE JUMP JUMPDEST PUSH4 0xFFFFFFFF AND JUMP JUMPDEST POP JUMP JUMPDEST PUSH2 0x1CD9 DUP3 DUP3 PUSH1 0x40 MLOAD PUSH1 0x24 ADD PUSH2 0x1C57 SWAP3 SWAP2 SWAP1 PUSH2 0x248A JUMP JUMPDEST PUSH1 0x40 MLOAD PUSH1 0x20 DUP2 DUP4 SUB SUB DUP2 MSTORE SWAP1 PUSH1 0x40 MSTORE PUSH32 0xC3B5563500000000000000000000000000000000000000000000000000000000 PUSH28 0xFFFFFFFFFFFFFFFFFFFFFFFFFFFFFFFFFFFFFFFFFFFFFFFFFFFFFFFF NOT AND PUSH1 0x20 DUP3 ADD DUP1 MLOAD PUSH28 0xFFFFFFFFFFFFFFFFFFFFFFFFFFFFFFFFFFFFFFFFFFFFFFFFFFFFFFFF DUP4 DUP2 DUP4 AND OR DUP4 MSTORE POP POP POP POP PUSH2 0x1C27 JUMP JUMPDEST POP POP JUMP JUMPDEST PUSH1 0x0 PUSH11 0x636F6E736F6C652E6C6F67 SWAP1 POP PUSH1 0x0 DUP1 DUP4 MLOAD PUSH1 0x20 DUP6 ADD DUP5 GAS STATICCALL POP POP POP JUMP JUMPDEST PUSH2 0x1D09 DUP2 SWAP1 POP SWAP2 SWAP1 POP JUMP JUMPDEST PUSH2 0x1D11 PUSH2 0x24BA JUMP JUMPDEST JUMP JUMPDEST PUSH1 0x0 DUP1 REVERT JUMPDEST PUSH1 0x0 PUSH20 0xFFFFFFFFFFFFFFFFFFFFFFFFFFFFFFFFFFFFFFFF DUP3 AND SWAP1 POP SWAP2 SWAP1 POP JUMP JUMPDEST PUSH1 0x0 PUSH2 0x1D43 DUP3 PUSH2 0x1D18 JUMP JUMPDEST SWAP1 POP SWAP2 SWAP1 POP JUMP JUMPDEST PUSH2 0x1D53 DUP2 PUSH2 0x1D38 JUMP JUMPDEST DUP2 EQ PUSH2 0x1D5E JUMPI PUSH1 0x0 DUP1 REVERT JUMPDEST POP JUMP JUMPDEST PUSH1 0x0 DUP2 CALLDATALOAD SWAP1 POP PUSH2 0x1D70 DUP2 PUSH2 0x1D4A JUMP JUMPDEST SWAP3 SWAP2 POP POP JUMP JUMPDEST PUSH1 0x0 PUSH1 0x20 DUP3 DUP5 SUB SLT ISZERO PUSH2 0x1D8C JUMPI PUSH2 0x1D8B PUSH2 0x1D13 JUMP JUMPDEST JUMPDEST PUSH1 0x0 PUSH2 0x1D9A DUP5 DUP3 DUP6 ADD PUSH2 0x1D61 JUMP JUMPDEST SWAP2 POP POP SWAP3 SWAP2 POP POP JUMP JUMPDEST PUSH1 0x0 DUP2 MLOAD SWAP1 POP SWAP2 SWAP1 POP JUMP JUMPDEST PUSH1 0x0 DUP3 DUP3 MSTORE PUSH1 0x20 DUP3 ADD SWAP1 POP SWAP3 SWAP2 POP POP JUMP JUMPDEST PUSH1 0x0 JUMPDEST DUP4 DUP2 LT ISZERO PUSH2 0x1DDD JUMPI DUP1 DUP3 ADD MLOAD DUP2 DUP5 ADD MSTORE PUSH1 0x20 DUP2 ADD SWAP1 POP PUSH2 0x1DC2 JUMP JUMPDEST PUSH1 0x0 DUP5 DUP5 ADD MSTORE POP POP POP POP JUMP JUMPDEST PUSH1 0x0 PUSH1 0x1F NOT PUSH1 0x1F DUP4 ADD AND SWAP1 POP SWAP2 SWAP1 POP JUMP JUMPDEST PUSH1 0x0 PUSH2 0x1E05 DUP3 PUSH2 0x1DA3 JUMP JUMPDEST PUSH2 0x1E0F DUP2 DUP6 PUSH2 0x1DAE JUMP JUMPDEST SWAP4 POP PUSH2 0x1E1F DUP2 DUP6 PUSH1 0x20 DUP7 ADD PUSH2 0x1DBF JUMP JUMPDEST PUSH2 0x1E28 DUP2 PUSH2 0x1DE9 JUMP JUMPDEST DUP5 ADD SWAP2 POP POP SWAP3 SWAP2 POP POP JUMP JUMPDEST PUSH1 0x0 PUSH1 0x20 DUP3 ADD SWAP1 POP DUP2 DUP2 SUB PUSH1 0x0 DUP4 ADD MSTORE PUSH2 0x1E4D DUP2 DUP5 PUSH2 0x1DFA JUMP JUMPDEST SWAP1 POP SWAP3 SWAP2 POP POP JUMP JUMPDEST PUSH1 0x0 DUP2 SWAP1 POP SWAP2 SWAP1 POP JUMP JUMPDEST PUSH2 0x1E68 DUP2 PUSH2 0x1E55 JUMP JUMPDEST DUP2 EQ PUSH2 0x1E73 JUMPI PUSH1 0x0 DUP1 REVERT JUMPDEST POP JUMP JUMPDEST PUSH1 0x0 DUP2 CALLDATALOAD SWAP1 POP PUSH2 0x1E85 DUP2 PUSH2 0x1E5F JUMP JUMPDEST SWAP3 SWAP2 POP POP JUMP JUMPDEST PUSH1 0x0 DUP1 PUSH1 0x40 DUP4 DUP6 SUB SLT ISZERO PUSH2 0x1EA2 JUMPI PUSH2 0x1EA1 PUSH2 0x1D13 JUMP JUMPDEST JUMPDEST PUSH1 0x0 PUSH2 0x1EB0 DUP6 DUP3 DUP7 ADD PUSH2 0x1D61 JUMP JUMPDEST SWAP3 POP POP PUSH1 0x20 PUSH2 0x1EC1 DUP6 DUP3 DUP7 ADD PUSH2 0x1E76 JUMP JUMPDEST SWAP2 POP POP SWAP3 POP SWAP3 SWAP1 POP JUMP JUMPDEST PUSH1 0x0 DUP2 ISZERO ISZERO SWAP1 POP SWAP2 SWAP1 POP JUMP JUMPDEST PUSH2 0x1EE0 DUP2 PUSH2 0x1ECB JUMP JUMPDEST DUP3 MSTORE POP POP JUMP JUMPDEST PUSH1 0x0 PUSH1 0x20 DUP3 ADD SWAP1 POP PUSH2 0x1EFB PUSH1 0x0 DUP4 ADD DUP5 PUSH2 0x1ED7 JUMP JUMPDEST SWAP3 SWAP2 POP POP JUMP JUMPDEST PUSH2 0x1F0A DUP2 PUSH2 0x1E55 JUMP JUMPDEST DUP3 MSTORE POP POP JUMP JUMPDEST PUSH1 0x0 PUSH1 0x20 DUP3 ADD SWAP1 POP PUSH2 0x1F25 PUSH1 0x0 DUP4 ADD DUP5 PUSH2 0x1F01 JUMP JUMPDEST SWAP3 SWAP2 POP POP JUMP JUMPDEST PUSH1 0x0 DUP1 PUSH1 0x0 PUSH1 0x60 DUP5 DUP7 SUB SLT ISZERO PUSH2 0x1F44 JUMPI PUSH2 0x1F43 PUSH2 0x1D13 JUMP JUMPDEST JUMPDEST PUSH1 0x0 PUSH2 0x1F52 DUP7 DUP3 DUP8 ADD PUSH2 0x1D61 JUMP JUMPDEST SWAP4 POP POP PUSH1 0x20 PUSH2 0x1F63 DUP7 DUP3 DUP8 ADD PUSH2 0x1D61 JUMP JUMPDEST SWAP3 POP POP PUSH1 0x40 PUSH2 0x1F74 DUP7 DUP3 DUP8 ADD PUSH2 0x1E76 JUMP JUMPDEST SWAP2 POP POP SWAP3 POP SWAP3 POP SWAP3 JUMP JUMPDEST PUSH1 0x0 PUSH1 0xFF DUP3 AND SWAP1 POP SWAP2 SWAP1 POP JUMP JUMPDEST PUSH2 0x1F94 DUP2 PUSH2 0x1F7E JUMP JUMPDEST DUP3 MSTORE POP POP JUMP JUMPDEST PUSH1 0x0 PUSH1 0x20 DUP3 ADD SWAP1 POP PUSH2 0x1FAF PUSH1 0x0 DUP4 ADD DUP5 PUSH2 0x1F8B JUMP JUMPDEST SWAP3 SWAP2 POP POP JUMP JUMPDEST PUSH1 0x0 PUSH1 0x20 DUP3 DUP5 SUB SLT ISZERO PUSH2 0x1FCB JUMPI PUSH2 0x1FCA PUSH2 0x1D13 JUMP JUMPDEST JUMPDEST PUSH1 0x0 PUSH2 0x1FD9 DUP5 DUP3 DUP6 ADD PUSH2 0x1E76 JUMP JUMPDEST SWAP2 POP POP SWAP3 SWAP2 POP POP JUMP JUMPDEST PUSH2 0x1FEB DUP2 PUSH2 0x1D38 JUMP JUMPDEST DUP3 MSTORE POP POP JUMP JUMPDEST PUSH1 0x0 PUSH1 0x20 DUP3 ADD SWAP1 POP PUSH2 0x2006 PUSH1 0x0 DUP4 ADD DUP5 PUSH2 0x1FE2 JUMP JUMPDEST SWAP3 SWAP2 POP POP JUMP JUMPDEST PUSH1 0x0 DUP1 PUSH1 0x40 DUP4 DUP6 SUB SLT ISZERO PUSH2 0x2023 JUMPI PUSH2 0x2022 PUSH2 0x1D13 JUMP JUMPDEST JUMPDEST PUSH1 0x0 PUSH2 0x2031 DUP6 DUP3 DUP7 ADD PUSH2 0x1D61 JUMP JUMPDEST SWAP3 POP POP PUSH1 0x20 PUSH2 0x2042 DUP6 DUP3 DUP7 ADD PUSH2 0x1D61 JUMP JUMPDEST SWAP2 POP POP SWAP3 POP SWAP3 SWAP1 POP JUMP JUMPDEST PUSH32 0x4E487B7100000000000000000000000000000000000000000000000000000000 PUSH1 0x0 MSTORE PUSH1 0x11 PUSH1 0x4 MSTORE PUSH1 0x24 PUSH1 0x0 REVERT JUMPDEST PUSH1 0x0 PUSH2 0x2086 DUP3 PUSH2 0x1E55 JUMP JUMPDEST SWAP2 POP PUSH2 0x2091 DUP4 PUSH2 0x1E55 JUMP JUMPDEST SWAP3 POP DUP3 DUP3 ADD SWAP1 POP DUP1 DUP3 GT ISZERO PUSH2 0x20A9 JUMPI PUSH2 0x20A8 PUSH2 0x204C JUMP JUMPDEST JUMPDEST SWAP3 SWAP2 POP POP JUMP JUMPDEST PUSH32 0x496E697469616C697A61626C653A20636F6E747261637420697320616C726561 PUSH1 0x0 DUP3 ADD MSTORE PUSH32 0x647920696E697469616C697A6564000000000000000000000000000000000000 PUSH1 0x20 DUP3 ADD MSTORE POP JUMP JUMPDEST PUSH1 0x0 PUSH2 0x210B PUSH1 0x2E DUP4 PUSH2 0x1DAE JUMP JUMPDEST SWAP2 POP PUSH2 0x2116 DUP3 PUSH2 0x20AF JUMP JUMPDEST PUSH1 0x40 DUP3 ADD SWAP1 POP SWAP2 SWAP1 POP JUMP JUMPDEST PUSH1 0x0 PUSH1 0x20 DUP3 ADD SWAP1 POP DUP2 DUP2 SUB PUSH1 0x0 DUP4 ADD MSTORE PUSH2 0x213A DUP2 PUSH2 0x20FE JUMP JUMPDEST SWAP1 POP SWAP2 SWAP1 POP JUMP JUMPDEST PUSH1 0x0 DUP2 PUSH1 0x1 SHR SWAP1 POP SWAP2 SWAP1 POP JUMP JUMPDEST PUSH1 0x0 DUP1 DUP3 SWAP2 POP DUP4 SWAP1 POP JUMPDEST PUSH1 0x1 DUP6 GT ISZERO PUSH2 0x2198 JUMPI DUP1 DUP7 DIV DUP2 GT ISZERO PUSH2 0x2174 JUMPI PUSH2 0x2173 PUSH2 0x204C JUMP JUMPDEST JUMPDEST PUSH1 0x1 DUP6 AND ISZERO PUSH2 0x2183 JUMPI DUP1 DUP3 MUL SWAP2 POP JUMPDEST DUP1 DUP2 MUL SWAP1 POP PUSH2 0x2191 DUP6 PUSH2 0x2141 JUMP JUMPDEST SWAP5 POP PUSH2 0x2158 JUMP JUMPDEST SWAP5 POP SWAP5 SWAP3 POP POP POP JUMP JUMPDEST PUSH1 0x0 DUP3 PUSH2 0x21B1 JUMPI PUSH1 0x1 SWAP1 POP PUSH2 0x226D JUMP JUMPDEST DUP2 PUSH2 0x21BF JUMPI PUSH1 0x0 SWAP1 POP PUSH2 0x226D JUMP JUMPDEST DUP2 PUSH1 0x1 DUP2 EQ PUSH2 0x21D5 JUMPI PUSH1 0x2 DUP2 EQ PUSH2 0x21DF JUMPI PUSH2 0x220E JUMP JUMPDEST PUSH1 0x1 SWAP2 POP POP PUSH2 0x226D JUMP JUMPDEST PUSH1 0xFF DUP5 GT ISZERO PUSH2 0x21F1 JUMPI PUSH2 0x21F0 PUSH2 0x204C JUMP JUMPDEST JUMPDEST DUP4 PUSH1 0x2 EXP SWAP2 POP DUP5 DUP3 GT ISZERO PUSH2 0x2208 JUMPI PUSH2 0x2207 PUSH2 0x204C JUMP JUMPDEST JUMPDEST POP PUSH2 0x226D JUMP JUMPDEST POP PUSH1 0x20 DUP4 LT PUSH2 0x133 DUP4 LT AND PUSH1 0x4E DUP5 LT PUSH1 0xB DUP5 LT AND OR ISZERO PUSH2 0x2243 JUMPI DUP3 DUP3 EXP SWAP1 POP DUP4 DUP2 GT ISZERO PUSH2 0x223E JUMPI PUSH2 0x223D PUSH2 0x204C JUMP JUMPDEST JUMPDEST PUSH2 0x226D JUMP JUMPDEST PUSH2 0x2250 DUP5 DUP5 DUP5 PUSH1 0x1 PUSH2 0x214E JUMP JUMPDEST SWAP3 POP SWAP1 POP DUP2 DUP5 DIV DUP2 GT ISZERO PUSH2 0x2267 JUMPI PUSH2 0x2266 PUSH2 0x204C JUMP JUMPDEST JUMPDEST DUP2 DUP2 MUL SWAP1 POP JUMPDEST SWAP4 SWAP3 POP POP POP JUMP JUMPDEST PUSH1 0x0 PUSH2 0x227F DUP3 PUSH2 0x1E55 JUMP JUMPDEST SWAP2 POP PUSH2 0x228A DUP4 PUSH2 0x1F7E JUMP JUMPDEST SWAP3 POP PUSH2 0x22B7 PUSH32 0xFFFFFFFFFFFFFFFFFFFFFFFFFFFFFFFFFFFFFFFFFFFFFFFFFFFFFFFFFFFFFFFF DUP5 DUP5 PUSH2 0x21A1 JUMP JUMPDEST SWAP1 POP SWAP3 SWAP2 POP POP JUMP JUMPDEST PUSH1 0x0 PUSH2 0x22CA DUP3 PUSH2 0x1E55 JUMP JUMPDEST SWAP2 POP PUSH2 0x22D5 DUP4 PUSH2 0x1E55 JUMP JUMPDEST SWAP3 POP DUP3 DUP3 MUL PUSH2 0x22E3 DUP2 PUSH2 0x1E55 JUMP JUMPDEST SWAP2 POP DUP3 DUP3 DIV DUP5 EQ DUP4 ISZERO OR PUSH2 0x22FA JUMPI PUSH2 0x22F9 PUSH2 0x204C JUMP JUMPDEST JUMPDEST POP SWAP3 SWAP2 POP POP JUMP JUMPDEST PUSH1 0x0 DUP2 SWAP1 POP SWAP2 SWAP1 POP JUMP JUMPDEST PUSH1 0x0 DUP2 SWAP1 POP SWAP2 SWAP1 POP JUMP JUMPDEST PUSH1 0x0 PUSH2 0x2330 PUSH2 0x232B PUSH2 0x2326 DUP5 PUSH2 0x2301 JUMP JUMPDEST PUSH2 0x230B JUMP JUMPDEST PUSH2 0x1F7E JUMP JUMPDEST SWAP1 POP SWAP2 SWAP1 POP JUMP JUMPDEST PUSH2 0x2340 DUP2 PUSH2 0x2315 JUMP JUMPDEST DUP3 MSTORE POP POP JUMP JUMPDEST PUSH1 0x0 PUSH1 0x20 DUP3 ADD SWAP1 POP PUSH2 0x235B PUSH1 0x0 DUP4 ADD DUP5 PUSH2 0x2337 JUMP JUMPDEST SWAP3 SWAP2 POP POP JUMP JUMPDEST PUSH1 0x0 PUSH1 0x60 DUP3 ADD SWAP1 POP PUSH2 0x2376 PUSH1 0x0 DUP4 ADD DUP7 PUSH2 0x1FE2 JUMP JUMPDEST PUSH2 0x2383 PUSH1 0x20 DUP4 ADD DUP6 PUSH2 0x1F01 JUMP JUMPDEST PUSH2 0x2390 PUSH1 0x40 DUP4 ADD DUP5 PUSH2 0x1F01 JUMP JUMPDEST SWAP5 SWAP4 POP POP POP POP JUMP JUMPDEST PUSH1 0x0 PUSH1 0x40 DUP3 ADD SWAP1 POP DUP2 DUP2 SUB PUSH1 0x0 DUP4 ADD MSTORE PUSH2 0x23B2 DUP2 DUP6 PUSH2 0x1DFA JUMP JUMPDEST SWAP1 POP PUSH2 0x23C1 PUSH1 0x20 DUP4 ADD DUP5 PUSH2 0x1FE2 JUMP JUMPDEST SWAP4 SWAP3 POP POP POP JUMP JUMPDEST PUSH32 0x496E697469616C697A61626C653A20636F6E7472616374206973206E6F742069 PUSH1 0x0 DUP3 ADD MSTORE PUSH32 0x6E697469616C697A696E67000000000000000000000000000000000000000000 PUSH1 0x20 DUP3 ADD MSTORE POP JUMP JUMPDEST PUSH1 0x0 PUSH2 0x2424 PUSH1 0x2B DUP4 PUSH2 0x1DAE JUMP JUMPDEST SWAP2 POP PUSH2 0x242F DUP3 PUSH2 0x23C8 JUMP JUMPDEST PUSH1 0x40 DUP3 ADD SWAP1 POP SWAP2 SWAP1 POP JUMP JUMPDEST PUSH1 0x0 PUSH1 0x20 DUP3 ADD SWAP1 POP DUP2 DUP2 SUB PUSH1 0x0 DUP4 ADD MSTORE PUSH2 0x2453 DUP2 PUSH2 0x2417 JUMP JUMPDEST SWAP1 POP SWAP2 SWAP1 POP JUMP JUMPDEST PUSH1 0x0 PUSH1 0x40 DUP3 ADD SWAP1 POP DUP2 DUP2 SUB PUSH1 0x0 DUP4 ADD MSTORE PUSH2 0x2474 DUP2 DUP6 PUSH2 0x1DFA JUMP JUMPDEST SWAP1 POP PUSH2 0x2483 PUSH1 0x20 DUP4 ADD DUP5 PUSH2 0x1F01 JUMP JUMPDEST SWAP4 SWAP3 POP POP POP JUMP JUMPDEST PUSH1 0x0 PUSH1 0x40 DUP3 ADD SWAP1 POP DUP2 DUP2 SUB PUSH1 0x0 DUP4 ADD MSTORE PUSH2 0x24A4 DUP2 DUP6 PUSH2 0x1DFA JUMP JUMPDEST SWAP1 POP PUSH2 0x24B3 PUSH1 0x20 DUP4 ADD DUP5 PUSH2 0x1ED7 JUMP JUMPDEST SWAP4 SWAP3 POP POP POP JUMP JUMPDEST PUSH32 0x4E487B7100000000000000000000000000000000000000000000000000000000 PUSH1 0x0 MSTORE PUSH1 0x51 PUSH1 0x4 MSTORE PUSH1 0x24 PUSH1 0x0 REVERT INVALID 0x4F PUSH24 0x6E657220696E20456D616E61206166746572207061757361 PUSH3 0x6C653A KECCAK256 0x25 PUSH20 0xA26469706673582212208C17B00BEDB1FF4347F8 DUP2 0xC4 PUSH30 0xDCAD5CDFFC7E9E72F6060B4CDF4FD18F6A38264736F6C63430008130033 "},"methodIdentifiers":{"allowance(address,address)":"dd62ed3e","approve(address,uint256)":"095ea7b3","balanceOf(address)":"70a08231","burn(uint256)":"42966c68","decimals()":"313ce567","decreaseAllowance(address,uint256)":"a457c2d7","getOwner()":"893d20e8","governanceTransfer(address,uint256)":"cb7e4ed8","governanceTransferFrom(address,address,uint256)":"c4534a85","grantGovernance(address)":"b1fd0807","increaseAllowance(address,uint256)":"39509351","initialize()":"8129fc1c","isGovernor(address)":"e43581b8","isPaused()":"b187bd26","mint(uint256)":"a0712d68","name()":"06fdde03","owner()":"8da5cb5b","pause()":"8456cb59","revokeGovernance(address)":"04dcd58d","symbol()":"95d89b41","totalSupply()":"18160ddd","transfer(address,uint256)":"a9059cbb","transferFrom(address,address,uint256)":"23b872dd","transferOwnership(address)":"f2fde38b","unpause()":"3f4ba83a"}},"storageLayout":{"storage":[{"astId":6,"contract":"contracts/Emana.sol:Emana","label":"_initialized","offset":0,"slot":"0","type":"t_uint8"},{"astId":9,"contract":"contracts/Emana.sol:Emana","label":"_initializing","offset":1,"slot":"0","type":"t_bool"},{"astId":2081,"contract":"contracts/Emana.sol:Emana","label":"_owner","offset":2,"slot":"0","type":"t_address"},{"astId":2085,"contract":"contracts/Emana.sol:Emana","label":"_isGovernor","offset":0,"slot":"1","type":"t_mapping(t_address,t_bool)"},{"astId":2269,"contract":"contracts/Emana.sol:Emana","label":"_paused","offset":0,"slot":"2","type":"t_bool"},{"astId":514,"contract":"contracts/Emana.sol:Emana","label":"_balances","offset":0,"slot":"3","type":"t_mapping(t_address,t_uint256)"},{"astId":520,"contract":"contracts/Emana.sol:Emana","label":"_allowances","offset":0,"slot":"4","type":"t_mapping(t_address,t_mapping(t_address,t_uint256))"},{"astId":522,"contract":"contracts/Emana.sol:Emana","label":"totalSupply","offset":0,"slot":"5","type":"t_uint256"},{"astId":1140,"contract":"contracts/Emana.sol:Emana","label":"__gap","offset":0,"slot":"6","type":"t_array(t_uint256)40_storage"}],"types":{"t_address":{"encoding":"inplace","label":"address","numberOfBytes":"20"},"t_array(t_uint256)40_storage":{"base":"t_uint256","encoding":"inplace","label":"uint256[40]","numberOfBytes":"1280"},"t_bool":{"encoding":"inplace","label":"bool","numberOfBytes":"1"},"t_mapping(t_address,t_bool)":{"encoding":"mapping","key":"t_address","label":"mapping(address => bool)","numberOfBytes":"32","value":"t_bool"},"t_mapping(t_address,t_mapping(t_address,t_uint256))":{"encoding":"mapping","key":"t_address","label":"mapping(address => mapping(address => uint256))","numberOfBytes":"32","value":"t_mapping(t_address,t_uint256)"},"t_mapping(t_address,t_uint256)":{"encoding":"mapping","key":"t_address","label":"mapping(address => uint256)","numberOfBytes":"32","value":"t_uint256"},"t_uint256":{"encoding":"inplace","label":"uint256","numberOfBytes":"32"},"t_uint8":{"encoding":"inplace","label":"uint8","numberOfBytes":"1"}}}}}}