{
  "_format": "hh-sol-artifact-1",
  "contractName": "Emana",
  "sourceName": "contracts/Emana.sol",
  "abi": [
    {
      "inputs": [],
      "stateMutability": "nonpayable",
      "type": "constructor"
    },
    {
      "inputs": [
        {
          "internalType": "address",
          "name": "spender",
          "type": "address"
        },
        {
          "internalType": "uint256",
          "name": "currentAllowance",
          "type": "uint256"
        },
        {
          "internalType": "uint256",
          "name": "requestedDecrease",
          "type": "uint256"
        }
      ],
      "name": "ERC20FailedDecreaseAllowance",
      "type": "error"
    },
    {
      "inputs": [
        {
          "internalType": "address",
          "name": "spender",
          "type": "address"
        },
        {
          "internalType": "uint256",
          "name": "allowance",
          "type": "uint256"
        },
        {
          "internalType": "uint256",
          "name": "needed",
          "type": "uint256"
        }
      ],
      "name": "ERC20InsufficientAllowance",
      "type": "error"
    },
    {
      "inputs": [
        {
          "internalType": "address",
          "name": "sender",
          "type": "address"
        },
        {
          "internalType": "uint256",
          "name": "balance",
          "type": "uint256"
        },
        {
          "internalType": "uint256",
          "name": "needed",
          "type": "uint256"
        }
      ],
      "name": "ERC20InsufficientBalance",
      "type": "error"
    },
    {
      "inputs": [
        {
          "internalType": "address",
          "name": "account",
          "type": "address"
        },
        {
          "internalType": "uint256",
          "name": "balance",
          "type": "uint256"
        },
        {
          "internalType": "uint256",
          "name": "needed",
          "type": "uint256"
        }
      ],
      "name": "ERC20InsufficientBalanceForBurn",
      "type": "error"
    },
    {
      "inputs": [
        {
          "internalType": "address",
          "name": "approver",
          "type": "address"
        }
      ],
      "name": "ERC20InvalidApprover",
      "type": "error"
    },
    {
      "inputs": [
        {
          "internalType": "address",
          "name": "receiver",
          "type": "address"
        }
      ],
      "name": "ERC20InvalidReceiver",
      "type": "error"
    },
    {
      "inputs": [
        {
          "internalType": "address",
          "name": "sender",
          "type": "address"
        }
      ],
      "name": "ERC20InvalidSender",
      "type": "error"
    },
    {
      "inputs": [
        {
          "internalType": "address",
          "name": "spender",
          "type": "address"
        }
      ],
      "name": "ERC20InvalidSpender",
      "type": "error"
    },
    {
      "inputs": [
        {
          "internalType": "address",
          "name": "account",
          "type": "address"
        }
      ],
      "name": "InvalidAddress",
      "type": "error"
    },
    {
      "inputs": [],
      "name": "PausedStateRequired",
      "type": "error"
    },
    {
      "inputs": [
        {
          "internalType": "address",
          "name": "account",
          "type": "address"
        }
      ],
      "name": "UnauthorizedAccount",
      "type": "error"
    },
    {
      "inputs": [],
      "name": "UnpausedStateRequired",
      "type": "error"
    },
    {
      "anonymous": false,
      "inputs": [
        {
          "indexed": true,
          "internalType": "address",
          "name": "owner",
          "type": "address"
        },
        {
          "indexed": true,
          "internalType": "address",
          "name": "spender",
          "type": "address"
        },
        {
          "indexed": false,
          "internalType": "uint256",
          "name": "value",
          "type": "uint256"
        }
      ],
      "name": "Approval",
      "type": "event"
    },
    {
      "anonymous": false,
      "inputs": [
        {
          "indexed": false,
          "internalType": "uint8",
          "name": "version",
          "type": "uint8"
        }
      ],
      "name": "Initialized",
      "type": "event"
    },
    {
      "anonymous": false,
      "inputs": [
        {
          "indexed": true,
          "internalType": "address",
          "name": "previousOwner",
          "type": "address"
        },
        {
          "indexed": true,
          "internalType": "address",
          "name": "newOwner",
          "type": "address"
        }
      ],
      "name": "OwnershipTransferred",
      "type": "event"
    },
    {
      "anonymous": false,
      "inputs": [
        {
          "indexed": false,
          "internalType": "address",
          "name": "account",
          "type": "address"
        }
      ],
      "name": "Paused",
      "type": "event"
    },
    {
      "anonymous": false,
      "inputs": [
        {
          "indexed": true,
          "internalType": "address",
          "name": "from",
          "type": "address"
        },
        {
          "indexed": true,
          "internalType": "address",
          "name": "to",
          "type": "address"
        },
        {
          "indexed": false,
          "internalType": "uint256",
          "name": "value",
          "type": "uint256"
        }
      ],
      "name": "Transfer",
      "type": "event"
    },
    {
      "anonymous": false,
      "inputs": [
        {
          "indexed": false,
          "internalType": "address",
          "name": "account",
          "type": "address"
        }
      ],
      "name": "Unpaused",
      "type": "event"
    },
    {
      "inputs": [
        {
          "internalType": "address",
          "name": "owner",
          "type": "address"
        },
        {
          "internalType": "address",
          "name": "spender",
          "type": "address"
        }
      ],
      "name": "allowance",
      "outputs": [
        {
          "internalType": "uint256",
          "name": "",
          "type": "uint256"
        }
      ],
      "stateMutability": "view",
      "type": "function"
    },
    {
      "inputs": [
        {
          "internalType": "address",
          "name": "spender",
          "type": "address"
        },
        {
          "internalType": "uint256",
          "name": "amount",
          "type": "uint256"
        }
      ],
      "name": "approve",
      "outputs": [
        {
          "internalType": "bool",
          "name": "",
          "type": "bool"
        }
      ],
      "stateMutability": "nonpayable",
      "type": "function"
    },
    {
      "inputs": [
        {
          "internalType": "address",
          "name": "account",
          "type": "address"
        }
      ],
      "name": "balanceOf",
      "outputs": [
        {
          "internalType": "uint256",
          "name": "",
          "type": "uint256"
        }
      ],
      "stateMutability": "view",
      "type": "function"
    },
    {
      "inputs": [
        {
          "internalType": "uint256",
          "name": "amount",
          "type": "uint256"
        }
      ],
      "name": "burn",
      "outputs": [
        {
          "internalType": "bool",
          "name": "",
          "type": "bool"
        }
      ],
      "stateMutability": "nonpayable",
      "type": "function"
    },
    {
      "inputs": [],
      "name": "decimals",
      "outputs": [
        {
          "internalType": "uint8",
          "name": "",
          "type": "uint8"
        }
      ],
      "stateMutability": "view",
      "type": "function"
    },
    {
      "inputs": [
        {
          "internalType": "address",
          "name": "spender",
          "type": "address"
        },
        {
          "internalType": "uint256",
          "name": "subtractedValue",
          "type": "uint256"
        }
      ],
      "name": "decreaseAllowance",
      "outputs": [
        {
          "internalType": "bool",
          "name": "",
          "type": "bool"
        }
      ],
      "stateMutability": "nonpayable",
      "type": "function"
    },
    {
      "inputs": [],
      "name": "getOwner",
      "outputs": [
        {
          "internalType": "address",
          "name": "",
          "type": "address"
        }
      ],
      "stateMutability": "view",
      "type": "function"
    },
    {
      "inputs": [
        {
          "internalType": "address",
          "name": "to",
          "type": "address"
        },
        {
          "internalType": "uint256",
          "name": "amount",
          "type": "uint256"
        }
      ],
      "name": "governanceTransfer",
      "outputs": [
        {
          "internalType": "bool",
          "name": "",
          "type": "bool"
        }
      ],
      "stateMutability": "nonpayable",
      "type": "function"
    },
    {
      "inputs": [
        {
          "internalType": "address",
          "name": "from",
          "type": "address"
        },
        {
          "internalType": "address",
          "name": "to",
          "type": "address"
        },
        {
          "internalType": "uint256",
          "name": "amount",
          "type": "uint256"
        }
      ],
      "name": "governanceTransferFrom",
      "outputs": [
        {
          "internalType": "bool",
          "name": "",
          "type": "bool"
        }
      ],
      "stateMutability": "nonpayable",
      "type": "function"
    },
    {
      "inputs": [
        {
          "internalType": "address",
          "name": "governor",
          "type": "address"
        }
      ],
      "name": "grantGovernance",
      "outputs": [],
      "stateMutability": "nonpayable",
      "type": "function"
    },
    {
      "inputs": [
        {
          "internalType": "address",
          "name": "spender",
          "type": "address"
        },
        {
          "internalType": "uint256",
          "name": "addedValue",
          "type": "uint256"
        }
      ],
      "name": "increaseAllowance",
      "outputs": [
        {
          "internalType": "bool",
          "name": "",
          "type": "bool"
        }
      ],
      "stateMutability": "nonpayable",
      "type": "function"
    },
    {
      "inputs": [],
      "name": "initialize",
      "outputs": [],
      "stateMutability": "nonpayable",
      "type": "function"
    },
    {
      "inputs": [
        {
          "internalType": "address",
          "name": "addr",
          "type": "address"
        }
      ],
      "name": "isGovernor",
      "outputs": [
        {
          "internalType": "bool",
          "name": "",
          "type": "bool"
        }
      ],
      "stateMutability": "view",
      "type": "function"
    },
    {
      "inputs": [],
      "name": "isPaused",
      "outputs": [
        {
          "internalType": "bool",
          "name": "",
          "type": "bool"
        }
      ],
      "stateMutability": "view",
      "type": "function"
    },
    {
      "inputs": [
        {
          "internalType": "uint256",
          "name": "amount",
          "type": "uint256"
        }
      ],
      "name": "mint",
      "outputs": [
        {
          "internalType": "bool",
          "name": "",
          "type": "bool"
        }
      ],
      "stateMutability": "nonpayable",
      "type": "function"
    },
    {
      "inputs": [],
      "name": "name",
      "outputs": [
        {
          "internalType": "string",
          "name": "",
          "type": "string"
        }
      ],
      "stateMutability": "view",
      "type": "function"
    },
    {
      "inputs": [],
      "name": "owner",
      "outputs": [
        {
          "internalType": "address",
          "name": "",
          "type": "address"
        }
      ],
      "stateMutability": "view",
      "type": "function"
    },
    {
      "inputs": [],
      "name": "pause",
      "outputs": [],
      "stateMutability": "nonpayable",
      "type": "function"
    },
    {
      "inputs": [
        {
          "internalType": "address",
          "name": "governor",
          "type": "address"
        }
      ],
      "name": "revokeGovernance",
      "outputs": [],
      "stateMutability": "nonpayable",
      "type": "function"
    },
    {
      "inputs": [],
      "name": "symbol",
      "outputs": [
        {
          "internalType": "string",
          "name": "",
          "type": "string"
        }
      ],
      "stateMutability": "view",
      "type": "function"
    },
    {
      "inputs": [],
      "name": "totalSupply",
      "outputs": [
        {
          "internalType": "uint256",
          "name": "",
          "type": "uint256"
        }
      ],
      "stateMutability": "view",
      "type": "function"
    },
    {
      "inputs": [
        {
          "internalType": "address",
          "name": "to",
          "type": "address"
        },
        {
          "internalType": "uint256",
          "name": "amount",
          "type": "uint256"
        }
      ],
      "name": "transfer",
      "outputs": [
        {
          "internalType": "bool",
          "name": "",
          "type": "bool"
        }
      ],
      "stateMutability": "nonpayable",
      "type": "function"
    },
    {
      "inputs": [
        {
          "internalType": "address",
          "name": "from",
          "type": "address"
        },
        {
          "internalType": "address",
          "name": "to",
          "type": "address"
        },
        {
          "internalType": "uint256",
          "name": "amount",
          "type": "uint256"
        }
      ],
      "name": "transferFrom",
      "outputs": [
        {
          "internalType": "bool",
          "name": "",
          "type": "bool"
        }
      ],
      "stateMutability": "nonpayable",
      "type": "function"
    },
    {
      "inputs": [
        {
          "internalType": "address",
          "name": "newOwner",
          "type": "address"
        }
      ],
      "name": "transferOwnership",
      "outputs": [],
      "stateMutability": "nonpayable",
      "type": "function"
    },
    {
      "inputs": [],
      "name": "unpause",
      "outputs": [],
      "stateMutability": "nonpayable",
      "type": "function"
    }
  ],
  "bytecode": "0x60806040523480156200001157600080fd5b50620000226200002860201b60201c565b620001d2565b600060019054906101000a900460ff16156200007b576040517f08c379a0000000000000000000000000000000000000000000000000000000008152600401620000729062000175565b60405180910390fd5b60ff801660008054906101000a900460ff1660ff1614620000ec5760ff6000806101000a81548160ff021916908360ff1602179055507f7f26b83ff96e1f2b6a682f133852f6798a09c465da95921460cefb384740249860ff604051620000e39190620001b5565b60405180910390a15b565b600082825260208201905092915050565b7f496e697469616c697a61626c653a20636f6e747261637420697320696e69746960008201527f616c697a696e6700000000000000000000000000000000000000000000000000602082015250565b60006200015d602783620000ee565b91506200016a82620000ff565b604082019050919050565b6000602082019050818103600083015262000190816200014e565b9050919050565b600060ff82169050919050565b620001af8162000197565b82525050565b6000602082019050620001cc6000830184620001a4565b92915050565b61254080620001e26000396000f3fe608060405234801561001057600080fd5b50600436106101735760003560e01c8063893d20e8116100de578063b187bd2611610097578063cb7e4ed811610071578063cb7e4ed814610450578063dd62ed3e14610480578063e43581b8146104b0578063f2fde38b146104e057610173565b8063b187bd26146103e6578063b1fd080714610404578063c4534a851461042057610173565b8063893d20e8146102fc5780638da5cb5b1461031a57806395d89b4114610338578063a0712d6814610356578063a457c2d714610386578063a9059cbb146103b657610173565b80633950935111610130578063395093511461024e5780633f4ba83a1461027e57806342966c681461028857806370a08231146102b85780638129fc1c146102e85780638456cb59146102f257610173565b806304dcd58d1461017857806306fdde0314610194578063095ea7b3146101b257806318160ddd146101e257806323b872dd14610200578063313ce56714610230575b600080fd5b610192600480360381019061018d9190611d76565b6104fc565b005b61019c61055f565b6040516101a99190611e33565b60405180910390f35b6101cc60048036038101906101c79190611e8b565b610598565b6040516101d99190611ee6565b60405180910390f35b6101ea6105b4565b6040516101f79190611f10565b60405180910390f35b61021a60048036038101906102159190611f2b565b6105ba565b6040516102279190611ee6565b60405180910390f35b6102386105e2565b6040516102459190611f9a565b60405180910390f35b61026860048036038101906102639190611e8b565b6105e7565b6040516102759190611ee6565b60405180910390f35b610286610617565b005b6102a2600480360381019061029d9190611fb5565b6106b1565b6040516102af9190611ee6565b60405180910390f35b6102d260048036038101906102cd9190611d76565b6106d5565b6040516102df9190611f10565b60405180910390f35b6102f061071e565b005b6102fa610947565b005b6103046109e2565b6040516103119190611ff1565b60405180910390f35b610322610a85565b60405161032f9190611ff1565b60405180910390f35b610340610aae565b60405161034d9190611e33565b60405180910390f35b610370600480360381019061036b9190611fb5565b610ae7565b60405161037d9190611ee6565b60405180910390f35b6103a0600480360381019061039b9190611e8b565b610b0b565b6040516103ad9190611ee6565b60405180910390f35b6103d060048036038101906103cb9190611e8b565b610b81565b6040516103dd9190611ee6565b60405180910390f35b6103ee610b9d565b6040516103fb9190611ee6565b60405180910390f35b61041e60048036038101906104199190611d76565b610bb4565b005b61043a60048036038101906104359190611f2b565b610c16565b6040516104479190611ee6565b60405180910390f35b61046a60048036038101906104659190611e8b565b610c36565b6040516104779190611ee6565b60405180910390f35b61049a6004803603810190610495919061200c565b610c5c565b6040516104a79190611f10565b60405180910390f35b6104ca60048036038101906104c59190611d76565b610ce3565b6040516104d79190611ee6565b60405180910390f35b6104fa60048036038101906104f59190611d76565b610d39565b005b610504610e77565b6000600160008373ffffffffffffffffffffffffffffffffffffffff1673ffffffffffffffffffffffffffffffffffffffff16815260200190815260200160002060006101000a81548160ff02191690831515021790555050565b6040518060400160405280600b81526020017f456d616e6120546f6b656e00000000000000000000000000000000000000000081525081565b6000803390506105a9818585610f0b565b600191505092915050565b60055481565b6000803390506105cb858285611117565b6105d68585856111e8565b60019150509392505050565b601281565b60008033905061060c8185856105fd8589610c5c565b610607919061207b565b610f0b565b600191505092915050565b61061f610e77565b610627610b9d565b61065d576040517f092fc71a00000000000000000000000000000000000000000000000000000000815260040160405180910390fd5b6000600260006101000a81548160ff0219169083151502179055507f5db9ee0a495bf2e6ff9c91a7834c1ba4fdd244a5e8aa4e537bd38aeae4b073aa336040516106a79190611ff1565b60405180910390a1565b60006106bb610e77565b6106cc6106c6610a85565b83611494565b60019050919050565b6000600360008373ffffffffffffffffffffffffffffffffffffffff1673ffffffffffffffffffffffffffffffffffffffff168152602001908152602001600020549050919050565b60008060019054906101000a900460ff1615905080801561074f5750600160008054906101000a900460ff1660ff16105b8061077c575061075e30611692565b15801561077b5750600160008054906101000a900460ff1660ff16145b5b6107bb576040517f08c379a00000000000000000000000000000000000000000000000000000000081526004016107b290612121565b60405180910390fd5b60016000806101000a81548160ff021916908360ff16021790555080156107f8576001600060016101000a81548160ff0219169083151502179055505b61083e6040518060400160405280601281526020017f4f776e657220696e20456d616e613a2025730000000000000000000000000000815250610839610a85565b6116b5565b610846611751565b61088c6040518060400160405280601c81526020017f4f776e657220696e20456d616e61206166746572207365743a20257300000000815250610887610a85565b6116b5565b6108946117e3565b6108bd6040518060600160405280602181526020016124ea602191396108b8610a85565b6116b5565b6108eb6108c8610a85565b6012600a6108d69190612274565b6402540be4006108e691906122bf565b61184f565b80156109445760008060016101000a81548160ff0219169083151502179055507f7f26b83ff96e1f2b6a682f133852f6798a09c465da95921460cefb3847402498600160405161093b9190612346565b60405180910390a15b50565b61094f610e77565b610957610b9d565b1561098e576040517f74c90bdc00000000000000000000000000000000000000000000000000000000815260040160405180910390fd5b6001600260006101000a81548160ff0219169083151502179055507f62e78cea01bee320cd4e420270b5ea74000d11b0c9f74754ebdbfc544b05a258336040516109d89190611ff1565b60405180910390a1565b6000610a2a6040518060400160405280601581526020017f4f776e657220696e206765744f776e65723a2025730000000000000000000000815250610a25610a85565b6116b5565b610a786040518060400160405280601781526020017f42616c616e636520696e206765744f776e65723a202573000000000000000000815250610a73610a6e610a85565b6106d5565b6119cf565b610a80610a85565b905090565b60008060029054906101000a900473ffffffffffffffffffffffffffffffffffffffff16905090565b6040518060400160405280600581526020017f454d414e4100000000000000000000000000000000000000000000000000000081525081565b6000610af1610e77565b610b02610afc610a85565b8361184f565b60019050919050565b6000803390506000610b1d8286610c5c565b905083811015610b68578481856040517fa60f030c000000000000000000000000000000000000000000000000000000008152600401610b5f93929190612361565b60405180910390fd5b610b758286868403610f0b565b60019250505092915050565b600080339050610b928185856111e8565b600191505092915050565b6000600260009054906101000a900460ff16905090565b610bbc610e77565b60018060008373ffffffffffffffffffffffffffffffffffffffff1673ffffffffffffffffffffffffffffffffffffffff16815260200190815260200160002060006101000a81548160ff02191690831515021790555050565b6000610c20611a6b565b610c2b8484846111e8565b600190509392505050565b6000610c40611a6b565b610c52610c4b610a85565b84846111e8565b6001905092915050565b6000600460008473ffffffffffffffffffffffffffffffffffffffff1673ffffffffffffffffffffffffffffffffffffffff16815260200190815260200160002060008373ffffffffffffffffffffffffffffffffffffffff1673ffffffffffffffffffffffffffffffffffffffff16815260200190815260200160002054905092915050565b6000600160008373ffffffffffffffffffffffffffffffffffffffff1673ffffffffffffffffffffffffffffffffffffffff16815260200190815260200160002060009054906101000a900460ff169050919050565b610d41610e77565b600073ffffffffffffffffffffffffffffffffffffffff168173ffffffffffffffffffffffffffffffffffffffff1603610db257806040517f8e4c8aa6000000000000000000000000000000000000000000000000000000008152600401610da99190611ff1565b60405180910390fd5b60008060029054906101000a900473ffffffffffffffffffffffffffffffffffffffff16905081600060026101000a81548173ffffffffffffffffffffffffffffffffffffffff021916908373ffffffffffffffffffffffffffffffffffffffff1602179055508173ffffffffffffffffffffffffffffffffffffffff168173ffffffffffffffffffffffffffffffffffffffff167f8be0079c531659141344cd1fd0a4f28419497f9722a3daafe3b4186f6b6457e060405160405180910390a35050565b600060029054906101000a900473ffffffffffffffffffffffffffffffffffffffff1673ffffffffffffffffffffffffffffffffffffffff163373ffffffffffffffffffffffffffffffffffffffff1614610f0957336040517f32b2baa3000000000000000000000000000000000000000000000000000000008152600401610f009190611ff1565b60405180910390fd5b565b610f13610b9d565b15610f4a576040517f74c90bdc00000000000000000000000000000000000000000000000000000000815260040160405180910390fd5b600073ffffffffffffffffffffffffffffffffffffffff168373ffffffffffffffffffffffffffffffffffffffff1603610fbb57826040517fe602df05000000000000000000000000000000000000000000000000000000008152600401610fb29190611ff1565b60405180910390fd5b600073ffffffffffffffffffffffffffffffffffffffff168273ffffffffffffffffffffffffffffffffffffffff160361102c57816040517f94280d620000000000000000000000000000000000000000000000000000000081526004016110239190611ff1565b60405180910390fd5b80600460008573ffffffffffffffffffffffffffffffffffffffff1673ffffffffffffffffffffffffffffffffffffffff16815260200190815260200160002060008473ffffffffffffffffffffffffffffffffffffffff1673ffffffffffffffffffffffffffffffffffffffff168152602001908152602001600020819055508173ffffffffffffffffffffffffffffffffffffffff168373ffffffffffffffffffffffffffffffffffffffff167f8c5be1e5ebec7d5bd14f71427d1e84f3dd0314c0f7b2291e5b200ac8c7c3b9258360405161110a9190611f10565b60405180910390a3505050565b61111f610b9d565b15611156576040517f74c90bdc00000000000000000000000000000000000000000000000000000000815260040160405180910390fd5b60006111628484610c5c565b90507fffffffffffffffffffffffffffffffffffffffffffffffffffffffffffffffff81146111e257818110156111d4578281836040517ffb8f41b20000000000000000000000000000000000000000000000000000000081526004016111cb93929190612361565b60405180910390fd5b6111e18484848403610f0b565b5b50505050565b6111f0610b9d565b15611227576040517f74c90bdc00000000000000000000000000000000000000000000000000000000815260040160405180910390fd5b600073ffffffffffffffffffffffffffffffffffffffff168373ffffffffffffffffffffffffffffffffffffffff160361129857826040517f96c6fd1e00000000000000000000000000000000000000000000000000000000815260040161128f9190611ff1565b60405180910390fd5b600073ffffffffffffffffffffffffffffffffffffffff168273ffffffffffffffffffffffffffffffffffffffff160361130957816040517fec442f050000000000000000000000000000000000000000000000000000000081526004016113009190611ff1565b60405180910390fd5b6000600360008573ffffffffffffffffffffffffffffffffffffffff1673ffffffffffffffffffffffffffffffffffffffff16815260200190815260200160002054905081811015611396578381836040517fe450d38c00000000000000000000000000000000000000000000000000000000815260040161138d93929190612361565b60405180910390fd5b818103600360008673ffffffffffffffffffffffffffffffffffffffff1673ffffffffffffffffffffffffffffffffffffffff1681526020019081526020016000208190555081600360008573ffffffffffffffffffffffffffffffffffffffff1673ffffffffffffffffffffffffffffffffffffffff168152602001908152602001600020600082825401925050819055508273ffffffffffffffffffffffffffffffffffffffff168473ffffffffffffffffffffffffffffffffffffffff167fddf252ad1be2c89b69c2b068fc378daa952ba7f163c4a11628f55a4df523b3ef846040516114869190611f10565b60405180910390a350505050565b61149c610b9d565b156114d3576040517f74c90bdc00000000000000000000000000000000000000000000000000000000815260040160405180910390fd5b600073ffffffffffffffffffffffffffffffffffffffff168273ffffffffffffffffffffffffffffffffffffffff160361154457816040517f96c6fd1e00000000000000000000000000000000000000000000000000000000815260040161153b9190611ff1565b60405180910390fd5b6000600360008473ffffffffffffffffffffffffffffffffffffffff1673ffffffffffffffffffffffffffffffffffffffff168152602001908152602001600020549050818110156115d1578281836040517f355cc7bb0000000000000000000000000000000000000000000000000000000081526004016115c893929190612361565b60405180910390fd5b818103600360008573ffffffffffffffffffffffffffffffffffffffff1673ffffffffffffffffffffffffffffffffffffffff1681526020019081526020016000208190555081600560008282540392505081905550600073ffffffffffffffffffffffffffffffffffffffff168373ffffffffffffffffffffffffffffffffffffffff167fddf252ad1be2c89b69c2b068fc378daa952ba7f163c4a11628f55a4df523b3ef846040516116859190611f10565b60405180910390a3505050565b6000808273ffffffffffffffffffffffffffffffffffffffff163b119050919050565b61174d82826040516024016116cb929190612398565b6040516020818303038152906040527f319af333000000000000000000000000000000000000000000000000000000007bffffffffffffffffffffffffffffffffffffffffffffffffffffffff19166020820180517bffffffffffffffffffffffffffffffffffffffffffffffffffffffff8381831617835250505050611c27565b5050565b600060019054906101000a900460ff166117a0576040517f08c379a00000000000000000000000000000000000000000000000000000000081526004016117979061243a565b60405180910390fd5b33600060026101000a81548173ffffffffffffffffffffffffffffffffffffffff021916908373ffffffffffffffffffffffffffffffffffffffff160217905550565b600060019054906101000a900460ff16611832576040517f08c379a00000000000000000000000000000000000000000000000000000000081526004016118299061243a565b60405180910390fd5b6000600260006101000a81548160ff021916908315150217905550565b611857610b9d565b1561188e576040517f74c90bdc00000000000000000000000000000000000000000000000000000000815260040160405180910390fd5b600073ffffffffffffffffffffffffffffffffffffffff168273ffffffffffffffffffffffffffffffffffffffff16036118ff57816040517fec442f050000000000000000000000000000000000000000000000000000000081526004016118f69190611ff1565b60405180910390fd5b8060056000828254611911919061207b565b9250508190555080600360008473ffffffffffffffffffffffffffffffffffffffff1673ffffffffffffffffffffffffffffffffffffffff168152602001908152602001600020600082825401925050819055508173ffffffffffffffffffffffffffffffffffffffff16600073ffffffffffffffffffffffffffffffffffffffff167fddf252ad1be2c89b69c2b068fc378daa952ba7f163c4a11628f55a4df523b3ef836040516119c39190611f10565b60405180910390a35050565b611a6782826040516024016119e592919061245a565b6040516020818303038152906040527fb60e72cc000000000000000000000000000000000000000000000000000000007bffffffffffffffffffffffffffffffffffffffffffffffffffffffff19166020820180517bffffffffffffffffffffffffffffffffffffffffffffffffffffffff8381831617835250505050611c27565b5050565b600060029054906101000a900473ffffffffffffffffffffffffffffffffffffffff1673ffffffffffffffffffffffffffffffffffffffff163373ffffffffffffffffffffffffffffffffffffffff1614158015611b19575060001515600160003373ffffffffffffffffffffffffffffffffffffffff1673ffffffffffffffffffffffffffffffffffffffff16815260200190815260200160002060009054906101000a900460ff161515145b15611c2557611b5d6040518060400160405280601581526020017f53656e64657220696e204f776e61626c653a2025730000000000000000000000815250336116b5565b611be86040518060400160405280601981526020017f6973476f7665726e6f7220696e204f776e61626c653a20257300000000000000815250600160003373ffffffffffffffffffffffffffffffffffffffff1673ffffffffffffffffffffffffffffffffffffffff16815260200190815260200160002060009054906101000a900460ff16611c41565b336040517f32b2baa3000000000000000000000000000000000000000000000000000000008152600401611c1c9190611ff1565b60405180910390fd5b565b611c3e81611c36611cdd611cfe565b63ffffffff16565b50565b611cd98282604051602401611c5792919061248a565b6040516020818303038152906040527fc3b55635000000000000000000000000000000000000000000000000000000007bffffffffffffffffffffffffffffffffffffffffffffffffffffffff19166020820180517bffffffffffffffffffffffffffffffffffffffffffffffffffffffff8381831617835250505050611c27565b5050565b60006a636f6e736f6c652e6c6f679050600080835160208501845afa505050565b611d09819050919050565b611d116124ba565b565b600080fd5b600073ffffffffffffffffffffffffffffffffffffffff82169050919050565b6000611d4382611d18565b9050919050565b611d5381611d38565b8114611d5e57600080fd5b50565b600081359050611d7081611d4a565b92915050565b600060208284031215611d8c57611d8b611d13565b5b6000611d9a84828501611d61565b91505092915050565b600081519050919050565b600082825260208201905092915050565b60005b83811015611ddd578082015181840152602081019050611dc2565b60008484015250505050565b6000601f19601f8301169050919050565b6000611e0582611da3565b611e0f8185611dae565b9350611e1f818560208601611dbf565b611e2881611de9565b840191505092915050565b60006020820190508181036000830152611e4d8184611dfa565b905092915050565b6000819050919050565b611e6881611e55565b8114611e7357600080fd5b50565b600081359050611e8581611e5f565b92915050565b60008060408385031215611ea257611ea1611d13565b5b6000611eb085828601611d61565b9250506020611ec185828601611e76565b9150509250929050565b60008115159050919050565b611ee081611ecb565b82525050565b6000602082019050611efb6000830184611ed7565b92915050565b611f0a81611e55565b82525050565b6000602082019050611f256000830184611f01565b92915050565b600080600060608486031215611f4457611f43611d13565b5b6000611f5286828701611d61565b9350506020611f6386828701611d61565b9250506040611f7486828701611e76565b9150509250925092565b600060ff82169050919050565b611f9481611f7e565b82525050565b6000602082019050611faf6000830184611f8b565b92915050565b600060208284031215611fcb57611fca611d13565b5b6000611fd984828501611e76565b91505092915050565b611feb81611d38565b82525050565b60006020820190506120066000830184611fe2565b92915050565b6000806040838503121561202357612022611d13565b5b600061203185828601611d61565b925050602061204285828601611d61565b9150509250929050565b7f4e487b7100000000000000000000000000000000000000000000000000000000600052601160045260246000fd5b600061208682611e55565b915061209183611e55565b92508282019050808211156120a9576120a861204c565b5b92915050565b7f496e697469616c697a61626c653a20636f6e747261637420697320616c72656160008201527f647920696e697469616c697a6564000000000000000000000000000000000000602082015250565b600061210b602e83611dae565b9150612116826120af565b604082019050919050565b6000602082019050818103600083015261213a816120fe565b9050919050565b60008160011c9050919050565b6000808291508390505b6001851115612198578086048111156121745761217361204c565b5b60018516156121835780820291505b808102905061219185612141565b9450612158565b94509492505050565b6000826121b1576001905061226d565b816121bf576000905061226d565b81600181146121d557600281146121df5761220e565b600191505061226d565b60ff8411156121f1576121f061204c565b5b8360020a9150848211156122085761220761204c565b5b5061226d565b5060208310610133831016604e8410600b84101617156122435782820a90508381111561223e5761223d61204c565b5b61226d565b612250848484600161214e565b925090508184048111156122675761226661204c565b5b81810290505b9392505050565b600061227f82611e55565b915061228a83611f7e565b92506122b77fffffffffffffffffffffffffffffffffffffffffffffffffffffffffffffffff84846121a1565b905092915050565b60006122ca82611e55565b91506122d583611e55565b92508282026122e381611e55565b915082820484148315176122fa576122f961204c565b5b5092915050565b6000819050919050565b6000819050919050565b600061233061232b61232684612301565b61230b565b611f7e565b9050919050565b61234081612315565b82525050565b600060208201905061235b6000830184612337565b92915050565b60006060820190506123766000830186611fe2565b6123836020830185611f01565b6123906040830184611f01565b949350505050565b600060408201905081810360008301526123b28185611dfa565b90506123c16020830184611fe2565b9392505050565b7f496e697469616c697a61626c653a20636f6e7472616374206973206e6f74206960008201527f6e697469616c697a696e67000000000000000000000000000000000000000000602082015250565b6000612424602b83611dae565b915061242f826123c8565b604082019050919050565b6000602082019050818103600083015261245381612417565b9050919050565b600060408201905081810360008301526124748185611dfa565b90506124836020830184611f01565b9392505050565b600060408201905081810360008301526124a48185611dfa565b90506124b36020830184611ed7565b9392505050565b7f4e487b7100000000000000000000000000000000000000000000000000000000600052605160045260246000fdfe4f776e657220696e20456d616e61206166746572207061757361626c653a202573a26469706673582212208c17b00bedb1ff4347f881c47d0dcad5cdffc7e9e72f6060b4cdf4fd18f6a38264736f6c63430008130033",
  "linkReferences": {},
  "deployedLinkReferences": {}
}