{
  "_format": "hh-sol-artifact-1",
  "contractName": "PancakeRouterMock",
  "sourceName": "contracts/mocks/PancakeRouterMock.sol",
  "abi": [
    {
      "inputs": [
        {
          "internalType": "uint256",
          "name": "amountOut",
          "type": "uint256"
        },
        {
          "internalType": "address[]",
          "name": "",
          "type": "address[]"
        }
      ],
      "name": "getAmountsIn",
      "outputs": [
        {
          "internalType": "uint256[2]",
          "name": "",
          "type": "uint256[2]"
        }
      ],
      "stateMutability": "pure",
      "type": "function"
    }
  ],
  "bytecode": "0x608060405234801561001057600080fd5b506101be806100206000396000f3fe608060405234801561001057600080fd5b506004361061002b5760003560e01c80631f00ca7414610030575b600080fd5b6100f06004803603604081101561004657600080fd5b81019080803590602001909291908035906020019064010000000081111561006d57600080fd5b82018360208201111561007f57600080fd5b803590602001918460208302840111640100000000831117156100a157600080fd5b919080806020026020016040519081016040528093929190818152602001838360200280828437600081840152601f19601f82011690508083019250505050505050919291929050505061012e565b6040518082600260200280838360005b8381101561011b578082015181840152602081019050610100565b5050505090500191505060405180910390f35b610136610166565b61013e610166565b60405180604001604052806610b2a00671c00081526020018581525090508091505092915050565b604051806040016040528060029060208202803683378082019150509050509056fea2646970667358221220dc7a9021f2c9825fa7c5c12df1a309aa515f11e93639eb208f2c24e2ec66d08c64736f6c63430006060033",
  "linkReferences": {},
  "deployedLinkReferences": {}
}