{
  "_format": "hh-sol-artifact-1",
  "contractName": "EmanaICO",
  "sourceName": "contracts/EmanaICO.sol",
  "abi": [
    {
      "inputs": [],
      "stateMutability": "nonpayable",
      "type": "constructor"
    },
    {
      "inputs": [
        {
          "internalType": "address",
          "name": "account",
          "type": "address"
        }
      ],
      "name": "InvalidAddress",
      "type": "error"
    },
    {
      "inputs": [
        {
          "internalType": "address",
          "name": "from",
          "type": "address"
        },
        {
          "internalType": "uint256",
          "name": "sent",
          "type": "uint256"
        },
        {
          "internalType": "uint256",
          "name": "needed",
          "type": "uint256"
        }
      ],
      "name": "MinimumPurchaseNotMet",
      "type": "error"
    },
    {
      "inputs": [],
      "name": "PausedStateRequired",
      "type": "error"
    },
    {
      "inputs": [
        {
          "internalType": "address",
          "name": "from",
          "type": "address"
        },
        {
          "internalType": "uint256",
          "name": "sent",
          "type": "uint256"
        }
      ],
      "name": "TransferPaymentFailed",
      "type": "error"
    },
    {
      "inputs": [
        {
          "internalType": "address",
          "name": "account",
          "type": "address"
        }
      ],
      "name": "UnauthorizedAccount",
      "type": "error"
    },
    {
      "inputs": [],
      "name": "UnpausedStateRequired",
      "type": "error"
    },
    {
      "anonymous": false,
      "inputs": [
        {
          "indexed": false,
          "internalType": "uint8",
          "name": "version",
          "type": "uint8"
        }
      ],
      "name": "Initialized",
      "type": "event"
    },
    {
      "anonymous": false,
      "inputs": [
        {
          "indexed": true,
          "internalType": "address",
          "name": "previousOwner",
          "type": "address"
        },
        {
          "indexed": true,
          "internalType": "address",
          "name": "newOwner",
          "type": "address"
        }
      ],
      "name": "OwnershipTransferred",
      "type": "event"
    },
    {
      "anonymous": false,
      "inputs": [
        {
          "indexed": false,
          "internalType": "address",
          "name": "account",
          "type": "address"
        }
      ],
      "name": "Paused",
      "type": "event"
    },
    {
      "anonymous": false,
      "inputs": [
        {
          "indexed": true,
          "internalType": "address",
          "name": "account",
          "type": "address"
        },
        {
          "indexed": false,
          "internalType": "uint256",
          "name": "amount",
          "type": "uint256"
        }
      ],
      "name": "Purchased",
      "type": "event"
    },
    {
      "anonymous": false,
      "inputs": [
        {
          "indexed": false,
          "internalType": "address",
          "name": "account",
          "type": "address"
        }
      ],
      "name": "Unpaused",
      "type": "event"
    },
    {
      "stateMutability": "payable",
      "type": "fallback"
    },
    {
      "inputs": [
        {
          "internalType": "address",
          "name": "governor",
          "type": "address"
        }
      ],
      "name": "grantGovernance",
      "outputs": [],
      "stateMutability": "nonpayable",
      "type": "function"
    },
    {
      "inputs": [
        {
          "internalType": "address",
          "name": "emana_addr",
          "type": "address"
        },
        {
          "internalType": "address",
          "name": "busd_addr",
          "type": "address"
        },
        {
          "internalType": "address",
          "name": "usdt_addr",
          "type": "address"
        },
        {
          "internalType": "address",
          "name": "dai_addr",
          "type": "address"
        },
        {
          "internalType": "address",
          "name": "liquidity_addr",
          "type": "address"
        },
        {
          "internalType": "address",
          "name": "project_addr",
          "type": "address"
        },
        {
          "internalType": "address",
          "name": "operation1_addr",
          "type": "address"
        },
        {
          "internalType": "address",
          "name": "operation2_addr",
          "type": "address"
        },
        {
          "internalType": "uint256",
          "name": "_minPurchaseInUsd",
          "type": "uint256"
        },
        {
          "internalType": "uint256",
          "name": "_emanaPerUsd",
          "type": "uint256"
        }
      ],
      "name": "initialize",
      "outputs": [],
      "stateMutability": "nonpayable",
      "type": "function"
    },
    {
      "inputs": [
        {
          "internalType": "address",
          "name": "addr",
          "type": "address"
        }
      ],
      "name": "isGovernor",
      "outputs": [
        {
          "internalType": "bool",
          "name": "",
          "type": "bool"
        }
      ],
      "stateMutability": "view",
      "type": "function"
    },
    {
      "inputs": [],
      "name": "isPaused",
      "outputs": [
        {
          "internalType": "bool",
          "name": "",
          "type": "bool"
        }
      ],
      "stateMutability": "view",
      "type": "function"
    },
    {
      "inputs": [],
      "name": "liquidity",
      "outputs": [
        {
          "internalType": "address",
          "name": "",
          "type": "address"
        }
      ],
      "stateMutability": "view",
      "type": "function"
    },
    {
      "inputs": [],
      "name": "operation_1",
      "outputs": [
        {
          "internalType": "address",
          "name": "",
          "type": "address"
        }
      ],
      "stateMutability": "view",
      "type": "function"
    },
    {
      "inputs": [],
      "name": "operation_2",
      "outputs": [
        {
          "internalType": "address",
          "name": "",
          "type": "address"
        }
      ],
      "stateMutability": "view",
      "type": "function"
    },
    {
      "inputs": [],
      "name": "owner",
      "outputs": [
        {
          "internalType": "address",
          "name": "",
          "type": "address"
        }
      ],
      "stateMutability": "view",
      "type": "function"
    },
    {
      "inputs": [],
      "name": "pause",
      "outputs": [],
      "stateMutability": "nonpayable",
      "type": "function"
    },
    {
      "inputs": [],
      "name": "project",
      "outputs": [
        {
          "internalType": "address",
          "name": "",
          "type": "address"
        }
      ],
      "stateMutability": "view",
      "type": "function"
    },
    {
      "inputs": [
        {
          "internalType": "uint256",
          "name": "busdAmount",
          "type": "uint256"
        },
        {
          "internalType": "address",
          "name": "referrer",
          "type": "address"
        }
      ],
      "name": "purchaseUsingBusd",
      "outputs": [
        {
          "internalType": "bool",
          "name": "",
          "type": "bool"
        }
      ],
      "stateMutability": "nonpayable",
      "type": "function"
    },
    {
      "inputs": [
        {
          "internalType": "uint256",
          "name": "daiAmount",
          "type": "uint256"
        },
        {
          "internalType": "address",
          "name": "referrer",
          "type": "address"
        }
      ],
      "name": "purchaseUsingDai",
      "outputs": [
        {
          "internalType": "bool",
          "name": "",
          "type": "bool"
        }
      ],
      "stateMutability": "nonpayable",
      "type": "function"
    },
    {
      "inputs": [
        {
          "internalType": "uint256",
          "name": "usdtAmount",
          "type": "uint256"
        },
        {
          "internalType": "address",
          "name": "referrer",
          "type": "address"
        }
      ],
      "name": "purchaseUsingUsdt",
      "outputs": [
        {
          "internalType": "bool",
          "name": "",
          "type": "bool"
        }
      ],
      "stateMutability": "nonpayable",
      "type": "function"
    },
    {
      "inputs": [
        {
          "internalType": "address",
          "name": "governor",
          "type": "address"
        }
      ],
      "name": "revokeGovernance",
      "outputs": [],
      "stateMutability": "nonpayable",
      "type": "function"
    },
    {
      "inputs": [],
      "name": "totalRaised",
      "outputs": [
        {
          "internalType": "uint256",
          "name": "",
          "type": "uint256"
        }
      ],
      "stateMutability": "view",
      "type": "function"
    },
    {
      "inputs": [
        {
          "internalType": "address",
          "name": "newOwner",
          "type": "address"
        }
      ],
      "name": "transferOwnership",
      "outputs": [],
      "stateMutability": "nonpayable",
      "type": "function"
    },
    {
      "inputs": [
        {
          "internalType": "uint256",
          "name": "_minPurchaseInUsd",
          "type": "uint256"
        },
        {
          "internalType": "uint256",
          "name": "_emanaPerUsd",
          "type": "uint256"
        }
      ],
      "name": "tweakSettings",
      "outputs": [],
      "stateMutability": "nonpayable",
      "type": "function"
    },
    {
      "inputs": [],
      "name": "unpause",
      "outputs": [],
      "stateMutability": "nonpayable",
      "type": "function"
    },
    {
      "stateMutability": "payable",
      "type": "receive"
    }
  ],
  "bytecode": "0x60806040523480156200001157600080fd5b50620000226200002860201b60201c565b620001d2565b600060019054906101000a900460ff16156200007b576040517f08c379a0000000000000000000000000000000000000000000000000000000008152600401620000729062000175565b60405180910390fd5b60ff801660008054906101000a900460ff1660ff1614620000ec5760ff6000806101000a81548160ff021916908360ff1602179055507f7f26b83ff96e1f2b6a682f133852f6798a09c465da95921460cefb384740249860ff604051620000e39190620001b5565b60405180910390a15b565b600082825260208201905092915050565b7f496e697469616c697a61626c653a20636f6e747261637420697320696e69746960008201527f616c697a696e6700000000000000000000000000000000000000000000000000602082015250565b60006200015d602783620000ee565b91506200016a82620000ff565b604082019050919050565b6000602082019050818103600083015262000190816200014e565b9050919050565b600060ff82169050919050565b620001af8162000197565b82525050565b6000602082019050620001cc6000830184620001a4565b92915050565b6120ab80620001e26000396000f3fe60806040526004361061010d5760003560e01c8063a3ff6a6911610095578063c5c4744c11610064578063c5c4744c1461034b578063e43581b814610376578063f2fde38b146103b3578063f60ca60d146103dc578063f8fc6a5a1461040757610114565b8063a3ff6a691461027d578063ac2ed7a5146102ba578063b187bd26146102f7578063b1fd08071461032257610114565b8063238455c9116100dc578063238455c9146101bc5780633f4ba83a146101e757806360c4376d146101fe5780638456cb591461023b5780638da5cb5b1461025257610114565b806304dcd58d146101165780630d0c5c9e1461013f57806315a8435f146101685780631a6865021461019157610114565b3661011457005b005b34801561012257600080fd5b5061013d60048036038101906101389190611a01565b610432565b005b34801561014b57600080fd5b5061016660048036038101906101619190611a64565b610495565b005b34801561017457600080fd5b5061018f600480360381019061018a9190611aa4565b6104af565b005b34801561019d57600080fd5b506101a6610815565b6040516101b39190611b92565b60405180910390f35b3480156101c857600080fd5b506101d161083b565b6040516101de9190611b92565b60405180910390f35b3480156101f357600080fd5b506101fc610861565b005b34801561020a57600080fd5b5061022560048036038101906102209190611bad565b6108fb565b6040516102329190611c08565b60405180910390f35b34801561024757600080fd5b506102506109f9565b005b34801561025e57600080fd5b50610267610a94565b6040516102749190611b92565b60405180910390f35b34801561028957600080fd5b506102a4600480360381019061029f9190611bad565b610abd565b6040516102b19190611c08565b60405180910390f35b3480156102c657600080fd5b506102e160048036038101906102dc9190611bad565b610bbb565b6040516102ee9190611c08565b60405180910390f35b34801561030357600080fd5b5061030c610cb9565b6040516103199190611c08565b60405180910390f35b34801561032e57600080fd5b5061034960048036038101906103449190611a01565b610cd0565b005b34801561035757600080fd5b50610360610d32565b60405161036d9190611c32565b60405180910390f35b34801561038257600080fd5b5061039d60048036038101906103989190611a01565b610d38565b6040516103aa9190611c08565b60405180910390f35b3480156103bf57600080fd5b506103da60048036038101906103d59190611a01565b610d8e565b005b3480156103e857600080fd5b506103f1610ecc565b6040516103fe9190611b92565b60405180910390f35b34801561041357600080fd5b5061041c610ef2565b6040516104299190611b92565b60405180910390f35b61043a610f18565b6000600160008373ffffffffffffffffffffffffffffffffffffffff1673ffffffffffffffffffffffffffffffffffffffff16815260200190815260200160002060006101000a81548160ff02191690831515021790555050565b61049d610f18565b81600c8190555080600d819055505050565b60008060019054906101000a900460ff161590508080156104e05750600160008054906101000a900460ff1660ff16105b8061050d57506104ef30610fac565b15801561050c5750600160008054906101000a900460ff1660ff16145b5b61054c576040517f08c379a000000000000000000000000000000000000000000000000000000000815260040161054390611cd0565b60405180910390fd5b60016000806101000a81548160ff021916908360ff1602179055508015610589576001600060016101000a81548160ff0219169083151502179055505b610591610fcf565b610599611061565b8a600260016101000a81548173ffffffffffffffffffffffffffffffffffffffff021916908373ffffffffffffffffffffffffffffffffffffffff16021790555089600360006101000a81548173ffffffffffffffffffffffffffffffffffffffff021916908373ffffffffffffffffffffffffffffffffffffffff16021790555088600460006101000a81548173ffffffffffffffffffffffffffffffffffffffff021916908373ffffffffffffffffffffffffffffffffffffffff16021790555087600560006101000a81548173ffffffffffffffffffffffffffffffffffffffff021916908373ffffffffffffffffffffffffffffffffffffffff16021790555086600760006101000a81548173ffffffffffffffffffffffffffffffffffffffff021916908373ffffffffffffffffffffffffffffffffffffffff16021790555085600860006101000a81548173ffffffffffffffffffffffffffffffffffffffff021916908373ffffffffffffffffffffffffffffffffffffffff16021790555084600960006101000a81548173ffffffffffffffffffffffffffffffffffffffff021916908373ffffffffffffffffffffffffffffffffffffffff16021790555083600a60006101000a81548173ffffffffffffffffffffffffffffffffffffffff021916908373ffffffffffffffffffffffffffffffffffffffff16021790555082600c8190555081600d8190555080156108085760008060016101000a81548160ff0219169083151502179055507f7f26b83ff96e1f2b6a682f133852f6798a09c465da95921460cefb384740249860016040516107ff9190611d42565b60405180910390a15b5050505050505050505050565b600760009054906101000a900473ffffffffffffffffffffffffffffffffffffffff1681565b600960009054906101000a900473ffffffffffffffffffffffffffffffffffffffff1681565b610869610f18565b610871610cb9565b6108a7576040517f092fc71a00000000000000000000000000000000000000000000000000000000815260040160405180910390fd5b6000600260006101000a81548160ff0219169083151502179055507f5db9ee0a495bf2e6ff9c91a7834c1ba4fdd244a5e8aa4e537bd38aeae4b073aa336040516108f19190611b92565b60405180910390a1565b6000806109066110cd565b905080841015610951573384826040517fdf58d7af00000000000000000000000000000000000000000000000000000000815260040161094893929190611d5d565b60405180910390fd5b61097d600460009054906101000a900473ffffffffffffffffffffffffffffffffffffffff16856110ea565b60006109ab600460009054906101000a900473ffffffffffffffffffffffffffffffffffffffff168661121f565b90506109b6816112b3565b6109e4600460009054906101000a900473ffffffffffffffffffffffffffffffffffffffff168683876112ed565b6109ed8161157c565b60019250505092915050565b610a01610f18565b610a09610cb9565b15610a40576040517f74c90bdc00000000000000000000000000000000000000000000000000000000815260040160405180910390fd5b6001600260006101000a81548160ff0219169083151502179055507f62e78cea01bee320cd4e420270b5ea74000d11b0c9f74754ebdbfc544b05a25833604051610a8a9190611b92565b60405180910390a1565b60008060029054906101000a900473ffffffffffffffffffffffffffffffffffffffff16905090565b600080610ac86110cd565b905080841015610b13573384826040517fdf58d7af000000000000000000000000000000000000000000000000000000008152600401610b0a93929190611d5d565b60405180910390fd5b610b3f600560009054906101000a900473ffffffffffffffffffffffffffffffffffffffff16856110ea565b6000610b6d600560009054906101000a900473ffffffffffffffffffffffffffffffffffffffff168661121f565b9050610b78816112b3565b610ba6600560009054906101000a900473ffffffffffffffffffffffffffffffffffffffff168683876112ed565b610baf8161157c565b60019250505092915050565b600080610bc66110cd565b905080841015610c11573384826040517fdf58d7af000000000000000000000000000000000000000000000000000000008152600401610c0893929190611d5d565b60405180910390fd5b610c3d600360009054906101000a900473ffffffffffffffffffffffffffffffffffffffff16856110ea565b6000610c6b600360009054906101000a900473ffffffffffffffffffffffffffffffffffffffff168661121f565b9050610c76816112b3565b610ca4600360009054906101000a900473ffffffffffffffffffffffffffffffffffffffff168683876112ed565b610cad8161157c565b60019250505092915050565b6000600260009054906101000a900460ff16905090565b610cd8610f18565b60018060008373ffffffffffffffffffffffffffffffffffffffff1673ffffffffffffffffffffffffffffffffffffffff16815260200190815260200160002060006101000a81548160ff02191690831515021790555050565b60065481565b6000600160008373ffffffffffffffffffffffffffffffffffffffff1673ffffffffffffffffffffffffffffffffffffffff16815260200190815260200160002060009054906101000a900460ff169050919050565b610d96610f18565b600073ffffffffffffffffffffffffffffffffffffffff168173ffffffffffffffffffffffffffffffffffffffff1603610e0757806040517f8e4c8aa6000000000000000000000000000000000000000000000000000000008152600401610dfe9190611b92565b60405180910390fd5b60008060029054906101000a900473ffffffffffffffffffffffffffffffffffffffff16905081600060026101000a81548173ffffffffffffffffffffffffffffffffffffffff021916908373ffffffffffffffffffffffffffffffffffffffff1602179055508173ffffffffffffffffffffffffffffffffffffffff168173ffffffffffffffffffffffffffffffffffffffff167f8be0079c531659141344cd1fd0a4f28419497f9722a3daafe3b4186f6b6457e060405160405180910390a35050565b600860009054906101000a900473ffffffffffffffffffffffffffffffffffffffff1681565b600a60009054906101000a900473ffffffffffffffffffffffffffffffffffffffff1681565b600060029054906101000a900473ffffffffffffffffffffffffffffffffffffffff1673ffffffffffffffffffffffffffffffffffffffff163373ffffffffffffffffffffffffffffffffffffffff1614610faa57336040517f32b2baa3000000000000000000000000000000000000000000000000000000008152600401610fa19190611b92565b60405180910390fd5b565b6000808273ffffffffffffffffffffffffffffffffffffffff163b119050919050565b600060019054906101000a900460ff1661101e576040517f08c379a000000000000000000000000000000000000000000000000000000000815260040161101590611e06565b60405180910390fd5b33600060026101000a81548173ffffffffffffffffffffffffffffffffffffffff021916908373ffffffffffffffffffffffffffffffffffffffff160217905550565b600060019054906101000a900460ff166110b0576040517f08c379a00000000000000000000000000000000000000000000000000000000081526004016110a790611e06565b60405180910390fd5b6000600260006101000a81548160ff021916908315150217905550565b6000670de0b6b3a7640000600c546110e59190611e55565b905090565b60008273ffffffffffffffffffffffffffffffffffffffff166323b872dd3330856040518463ffffffff1660e01b815260040161112993929190611e97565b6020604051808303816000875af1158015611148573d6000803e3d6000fd5b505050506040513d601f19601f8201168201806040525081019061116c9190611efa565b9050806111b25733826040517f29dd36ae0000000000000000000000000000000000000000000000000000000081526004016111a9929190611f27565b60405180910390fd5b6111e183600760009054906101000a900473ffffffffffffffffffffffffffffffffffffffff1684603261166e565b61121083600860009054906101000a900473ffffffffffffffffffffffffffffffffffffffff1684601e61166e565b61121a8383611744565b505050565b6000600d548373ffffffffffffffffffffffffffffffffffffffff1663313ce5676040518163ffffffff1660e01b8152600401602060405180830381865afa15801561126f573d6000803e3d6000fd5b505050506040513d601f19601f820116820180604052508101906112939190611f7c565b60ff16836112a19190611fd8565b6112ab9190611e55565b905092915050565b6112e1600760009054906101000a900473ffffffffffffffffffffffffffffffffffffffff168260326117a6565b6112ea81611893565b50565b6000600b60003373ffffffffffffffffffffffffffffffffffffffff1673ffffffffffffffffffffffffffffffffffffffff16815260200190815260200160002060000160009054906101000a900473ffffffffffffffffffffffffffffffffffffffff16905060008073ffffffffffffffffffffffffffffffffffffffff168273ffffffffffffffffffffffffffffffffffffffff161461138f5781611391565b825b905060008073ffffffffffffffffffffffffffffffffffffffff168273ffffffffffffffffffffffffffffffffffffffff1614905080156113e4576113d68787611744565b6113df85611893565b611573565b6000600b60008473ffffffffffffffffffffffffffffffffffffffff1673ffffffffffffffffffffffffffffffffffffffff16815260200190815260200160002060000160009054906101000a900473ffffffffffffffffffffffffffffffffffffffff1690506000600b60008373ffffffffffffffffffffffffffffffffffffffff1673ffffffffffffffffffffffffffffffffffffffff16815260200190815260200160002060000160009054906101000a900473ffffffffffffffffffffffffffffffffffffffff1690506114bb846118f2565b6114c889858a600561166e565b6114d4848860056117a6565b600073ffffffffffffffffffffffffffffffffffffffff168273ffffffffffffffffffffffffffffffffffffffff16146115225761151589838a600361166e565b611521828860036117a6565b5b600073ffffffffffffffffffffffffffffffffffffffff168173ffffffffffffffffffffffffffffffffffffffff16146115705761156389828a600261166e565b61156f818860026117a6565b5b50505b50505050505050565b600260019054906101000a900473ffffffffffffffffffffffffffffffffffffffff1673ffffffffffffffffffffffffffffffffffffffff1663cb7e4ed833836040518363ffffffff1660e01b81526004016115d9929190611f27565b6020604051808303816000875af11580156115f8573d6000803e3d6000fd5b505050506040513d601f19601f8201168201806040525081019061161c9190611efa565b503373ffffffffffffffffffffffffffffffffffffffff167fa512fb2532ca8587f236380171326ebb69670e86a2ba0c4412a3fcca4c3ada9b826040516116639190611c32565b60405180910390a250565b60008473ffffffffffffffffffffffffffffffffffffffff1663a9059cbb856116978686611976565b6040518363ffffffff1660e01b81526004016116b4929190611f27565b6020604051808303816000875af11580156116d3573d6000803e3d6000fd5b505050506040513d601f19601f820116820180604052508101906116f79190611efa565b90508061173d5733836040517f29dd36ae000000000000000000000000000000000000000000000000000000008152600401611734929190611f27565b60405180910390fd5b5050505050565b61177382600960009054906101000a900473ffffffffffffffffffffffffffffffffffffffff1683600561166e565b6117a282600a60009054906101000a900473ffffffffffffffffffffffffffffffffffffffff1683600561166e565b5050565b600260019054906101000a900473ffffffffffffffffffffffffffffffffffffffff1673ffffffffffffffffffffffffffffffffffffffff1663cb7e4ed8846117ef8585611976565b6040518363ffffffff1660e01b815260040161180c929190611f27565b6020604051808303816000875af115801561182b573d6000803e3d6000fd5b505050506040513d601f19601f8201168201806040525081019061184f9190611efa565b61188e576040517f08c379a000000000000000000000000000000000000000000000000000000000815260040161188590612055565b60405180910390fd5b505050565b6118c1600960009054906101000a900473ffffffffffffffffffffffffffffffffffffffff168260056117a6565b6118ef600a60009054906101000a900473ffffffffffffffffffffffffffffffffffffffff168260056117a6565b50565b80600b60003373ffffffffffffffffffffffffffffffffffffffff1673ffffffffffffffffffffffffffffffffffffffff16815260200190815260200160002060000160006101000a81548173ffffffffffffffffffffffffffffffffffffffff021916908373ffffffffffffffffffffffffffffffffffffffff16021790555050565b6000606460ff168260ff168461198c9190611e55565b6119969190611fd8565b905092915050565b600080fd5b600073ffffffffffffffffffffffffffffffffffffffff82169050919050565b60006119ce826119a3565b9050919050565b6119de816119c3565b81146119e957600080fd5b50565b6000813590506119fb816119d5565b92915050565b600060208284031215611a1757611a1661199e565b5b6000611a25848285016119ec565b91505092915050565b6000819050919050565b611a4181611a2e565b8114611a4c57600080fd5b50565b600081359050611a5e81611a38565b92915050565b60008060408385031215611a7b57611a7a61199e565b5b6000611a8985828601611a4f565b9250506020611a9a85828601611a4f565b9150509250929050565b6000806000806000806000806000806101408b8d031215611ac857611ac761199e565b5b6000611ad68d828e016119ec565b9a50506020611ae78d828e016119ec565b9950506040611af88d828e016119ec565b9850506060611b098d828e016119ec565b9750506080611b1a8d828e016119ec565b96505060a0611b2b8d828e016119ec565b95505060c0611b3c8d828e016119ec565b94505060e0611b4d8d828e016119ec565b935050610100611b5f8d828e01611a4f565b925050610120611b718d828e01611a4f565b9150509295989b9194979a5092959850565b611b8c816119c3565b82525050565b6000602082019050611ba76000830184611b83565b92915050565b60008060408385031215611bc457611bc361199e565b5b6000611bd285828601611a4f565b9250506020611be3858286016119ec565b9150509250929050565b60008115159050919050565b611c0281611bed565b82525050565b6000602082019050611c1d6000830184611bf9565b92915050565b611c2c81611a2e565b82525050565b6000602082019050611c476000830184611c23565b92915050565b600082825260208201905092915050565b7f496e697469616c697a61626c653a20636f6e747261637420697320616c72656160008201527f647920696e697469616c697a6564000000000000000000000000000000000000602082015250565b6000611cba602e83611c4d565b9150611cc582611c5e565b604082019050919050565b60006020820190508181036000830152611ce981611cad565b9050919050565b6000819050919050565b600060ff82169050919050565b6000819050919050565b6000611d2c611d27611d2284611cf0565b611d07565b611cfa565b9050919050565b611d3c81611d11565b82525050565b6000602082019050611d576000830184611d33565b92915050565b6000606082019050611d726000830186611b83565b611d7f6020830185611c23565b611d8c6040830184611c23565b949350505050565b7f496e697469616c697a61626c653a20636f6e7472616374206973206e6f74206960008201527f6e697469616c697a696e67000000000000000000000000000000000000000000602082015250565b6000611df0602b83611c4d565b9150611dfb82611d94565b604082019050919050565b60006020820190508181036000830152611e1f81611de3565b9050919050565b7f4e487b7100000000000000000000000000000000000000000000000000000000600052601160045260246000fd5b6000611e6082611a2e565b9150611e6b83611a2e565b9250828202611e7981611a2e565b91508282048414831517611e9057611e8f611e26565b5b5092915050565b6000606082019050611eac6000830186611b83565b611eb96020830185611b83565b611ec66040830184611c23565b949350505050565b611ed781611bed565b8114611ee257600080fd5b50565b600081519050611ef481611ece565b92915050565b600060208284031215611f1057611f0f61199e565b5b6000611f1e84828501611ee5565b91505092915050565b6000604082019050611f3c6000830185611b83565b611f496020830184611c23565b9392505050565b611f5981611cfa565b8114611f6457600080fd5b50565b600081519050611f7681611f50565b92915050565b600060208284031215611f9257611f9161199e565b5b6000611fa084828501611f67565b91505092915050565b7f4e487b7100000000000000000000000000000000000000000000000000000000600052601260045260246000fd5b6000611fe382611a2e565b9150611fee83611a2e565b925082611ffe57611ffd611fa9565b5b828204905092915050565b7f456d616e6149434f3a205472616e7366657220456d616e61206661696c656400600082015250565b600061203f601f83611c4d565b915061204a82612009565b602082019050919050565b6000602082019050818103600083015261206e81612032565b905091905056fea26469706673582212205f49b4a88900a3c42364fd1b04682d8cd7dec88478265a088ef0f37a41dc3eb364736f6c63430008130033",
  "linkReferences": {},
  "deployedLinkReferences": {}
}